:08000000803102288731DE2F58
:10000A008E31EE2680318E31AC2680318E319926A2
:10001A0080318E31B32680318E31D52608002000FA
:10002A00BC000230B9003908BE000F30B9003908E7
:10003A00BF003C08B9003908C0000330B9003908CC
:10004A00F8003E30BA003A08F9003E308F310527F1
:10005A0080312000BB003B08BD0003303D06031D74
:10006A0008000330B9003908BE000E30B90039085B
:10007A00BF000330B9003908F8003E30BA003A0828
:10008A00F9003E308F31052780312000BB003B0844
:10009A00BD006508031908006330A0009230A10072
:1000AA004008B900BA013908A2003A08A30083310E
:1000BA0054230800F600F70171080319AB287608E3
:1000CA00031D8D2892287208031D76287708760763
:1000DA00F30073088600870101088E31C226803139
:1000EA00892877087607F3007308860087010108D4
:1000FA008E31C2268031F40077087207F500750840
:10010A0086008701740881000130F3007308F7073D
:10011A00710877020318AB2868287208031DA728FC
:10012A00AB2800308E31C2268031F300770872077F
:10013A00F400740886008701730881000130F30017
:10014A007308F70771087702031C962877080800D6
:10015A0020006908C6006808C5000230C1004108CD
:10016A00F8004530C2004208F90045308F310527B2
:10017A0080312000C3004308C4004608C10041087A
:10018A00C700470803190800471CD928650803193E
:10019A00D528AA30A0009230A1008331542380319F
:1001AA000030813162210800C71CE928650803195B
:1001BA00E528B730A0009230A10083315423803162
:1001CA000130813162210800C71DEF2800308F31CC
:1001DA0065270800C71EF52801308F3165270800FA
:1001EA00C71F080002308F3165270800FD007D080F
:1001FA008600870120300106031D08290130F80016
:10020A007808FD07FC287D08860087010930010669
:10021A0003190329FB01FC01FA017D088600870105
:10022A002D300106031D1E290130F8007808FA074F
:10023A0025297D08860087012B300106031D2929FF
:10024A000130F8007808FD077D088600870101085B
:10025A008E31E0268031031C4E297C08F1007B0890
:10026A00F0000A30F2000030F3008F311E2780318F
:10027A007D088600870101087007F80071080318D5
:10028A00710AF9007808D03EFB00FF30793DFC0086
:10029A0025297A0803195D297B09F8007C09F900E8
:1002AA00F80A0319F90A7808F6007908F70008002D
:1002BA007C08F7007B08F60008002000C000400810
:1002CA00EC3E840092300318013E850000080907BD
:1002DA00903EB90039082100A0000E302000B90074
:1002EA003908F800A030BA003A08F900A0308F3176
:1002FA00052781312000BB003B08BD0021002508ED
:10030A002000B9003908BE003E08063EA03E86001D
:10031A008701810165080319F129BC30A0009130D9
:10032A00A1004008B900BA013908A2003A08A3009E
:10033A00210021082000BB00BC013B08A4003C08A6
:10034A00A50083315423813100302000A00092306F
:10035A00A1004008B900BA013908A2003A08A3006E
:10036A00210022082000BB00BC013B08A4003C0875
:10037A00A50083315423813144302000A0009230FB
:10038A00A1004008B900BA013908A2003A08A3003E
:10039A00210025082000BB00BC013B08A4003C0842
:1003AA00A50083315423813154302000A0009230BB
:1003BA00A1004008B900BA013908A2003A08A3000E
:1003CA00210026082000BB00BC013B08A4003C0811
:1003DA00A500833154238131A6302000B9003908A1
:1003EA00BF0064080319042A4530A0009130A10017
:1003FA003F08B9003908A200833154230800573056
:10040A002000A0009130A1003F08B9003908A200DD
:10041A008331542308002000BE00C9016B08C000C4
:10042A006A08BF000230BA003A08F8003F30BB0041
:10043A003B08F9003F308F31052782312000BC008C
:10044A003C08C2004008BA003A08C30043193A2AD5
:10045A0065080319372A8030A0009230A100833141
:10046A00542382312000C9015B2A431A4A2A6508AB
:10047A000319462A8E30A0009230A10083315423FA
:10048A0082312000C901C90A5B2A431F5B2A650819
:10049A000319562A9C30A0009230A10083315423BC
:1004AA00823102302000BA003A08C9004908E63E03
:1004BA00840092300318013E85000008403EBA00CD
:1004CA003A082100AF0020006108BA003A0821006A
:1004DA00B00020006208BA003A082100B100B20157
:1004EA00B30120003908BA003A082100B4002000FC
:1004FA00C801390848020318AD2A48083E07BA005D
:10050A003A08860087010108BB004808063EAF3E4C
:10051A00860087013B08810065080319A72A703005
:10052A00A0009130A1004808063EAF3E8600870130
:10053A000108BA00BB013A08A2003B08A3008331B4
:10054A005423823101302000BA003A08C8077E2AB3
:10055A003908063EBA003A08C1004108BA003A080A
:10056A00F800AF30BB003B08F900AF308F310527E8
:10057A0082312000BC003C08C2000330BA003A08AD
:10058A00C5004908E33E840092300318013E850005
:10059A000008BA003A08C600C7010330BA003A0890
:1005AA00F8004530BB003B08F90045308F3105277C
:1005BA008231200065080319F72ACD30A000913056
:1005CA00A1004908BA00BB013A08A2003B08A300EF
:1005DA004708BC00BD013C08A4003D08A5008331C2
:1005EA005423823103302000BA003A08C500490872
:1005FA00E33E840092300318013E85000008013E64
:10060A00BA003A08C600C7010330BA003A08F8002F
:10061A004530BB003B08F90045308F310527823150
:10062A002000650803192E2B1130A0009230A1007A
:10063A004908BA00BB013A08A2003B08A3004708D0
:10064A00BC00BD013C08A4003D08A5008331542329
:10065A008231200042084106031D522B0130BA00A4
:10066A00490A382BBA35890B372B3A08803EBB002A
:10067A003B08C400F801F80A4430BA003A08F90005
:10068A0044308F31052782312000BB003B08C2006D
:10069A004203031D522B01300800003008002230AB
:1006AA002000A8002808B20020002108A90020087C
:1006BA00A800A00A0319A10A2808840029088500AD
:1006CA000008AA002A08B8003808031908002530CB
:1006DA0038060319752B38088E31A1268331592B18
:1006EA002000B601B701B5017F2B35150130A007EF
:1006FA000030A13D20088400210885000008303A16
:10070A0003197A2B882B2008840021088500000809
:10071A008E31E0268331031C332C2000B601B70149
:10072A000A30F0000030F10020003708F3003608E4
:10073A00F2008F311E27833171082000B70070083C
:10074A00B60020088400210885000008D03EA800D1
:10075A00FF3003180030A9002808B6072908B73D5A
:10076A000130A0070030A13D20088400210885003F
:10077A0000088E31E0268331031C332C952BB517E4
:10078A00542C3208860087010108AE000030AF0001
:10079A000130A8002808B2072E082F04031DD92B00
:1007AA00D630AE009230AF00B001B1012E0830074A
:1007BA0084002F08313D850012000319E92B01300E
:1007CA00B0070030B13DDB2B37083102031DEF2B98
:1007DA00360830020318F62B3008B6023108B73B48
:1007EA00F82BB601B701FF302000B607FF30B73D3E
:1007FA00360A0319370A0319142C20308E31A12620
:10080A008331F82B2E0884002F08850000088E31CA
:10081A00A126833101302000AE070030AF3D013000
:10082A00B0020030B13B300A031D072C310A03190C
:10083A00592B072C3208860087010108A8002808CE
:10084A00B8000230A8002808B2073830AE000030DD
:10085A00AF000130B0000030B100E92B20002108C0
:10086A00A9002008A800A00A0319A10A28088400E0
:10087A00290885000008B800003A03198E2D633A4A
:10088A0003191F2C073A0319542C0D3A0319542C37
:10089A001A3A0319C62B0B3A0319C42B2A2C200027
:1008AA00B51B6E2C320886008701403FB300413FDA
:1008BA00B4000230A8002808B207B41FBE2C0330C7
:1008CA00A8002808B504B309B409B30A0319B40A7D
:1008DA00BE2C320886008701403FB300413FB40076
:1008EA000230A8002808B207BE2CB801B80A0530A1
:1008FA0038060319C72C3808A800A901A835A90D7C
:10090A00C430280784009230293D8500003FAA00A0
:10091A00013FAB002B083402031D952C2A08330231
:10092A00031CC72C0130A8002808B8077C2CB80182
:10093A00B80A043038060319C72C3808A800A901D8
:10094A00A835A90DCE30280784009230293D8500AC
:10095A00003FAA00013FAB002B083402031DB72C4D
:10096A002A083302031CC72C0130A8002808B8073C
:10097A009E2C35088039003A03197A2C803A0319DB
:10098A009C2CC72C360837040319D32C3508033995
:10099A000319D32CFF30B607FF30B73D3808A8003B
:1009AA00A901A81BA9032908803AAA003708803A96
:1009BA002A02031DE22C360828020318EF2C200015
:1009CA003808A800A901A81BA9032808B602290803
:1009DA00B73BF22C2000B601B701351D0B2D3508A7
:1009EA0003390319FC2C2D308E31A12683312000C6
:1009FA00360837040319242D30308E31A12683316D
:100A0A00FF302000B607FF30B73DFD2C360837040B
:100A1A0003191C2D20308E31A1268331FF3020008E
:100A2A00B607FF30B73D36083704031D0F2D3508CA
:100A3A0003390319242D2D308E31A126833120004C
:100A4A003808A8002808AD007C2D0A30F8000030CC
:100A5A00F9002D08A800A901A835A90DC430280756
:100A6A0084009230293D8500003FF000013FF100EB
:100A7A003408F3003308F2008F319127833171086B
:100A8A00FB007008FA008F31392783317808303E2D
:100A9A002000AA002A08772D2D08A800A901A83548
:100AAA00A90DCE30280784009230293D8500003FE9
:100ABA00F000013FF1003408F3003308F2008F31EF
:100ACA009127833170080F392000AA002A08AC0048
:100ADA002C08AB3E840091300318013E85000008C3
:100AEA00A8002808B80038088E31A1268331FF30C3
:100AFA002000A8002808AD072D0A0319592B35082C
:100B0A008039003A03192A2D803A0319512D782D7C
:100B1A00782D080080310520853100302000B90089
:100B2A00BA008F31C52785312000E30100308031BA
:100B3A0014208531332FBF308031FB208531760870
:100B4A002000CA004A08D4005408CA00CB014A0847
:100B5A00B9004B08BA008F31C5278531332F64306D
:100B6A0021003F06031DBD2D2000E501E50AC42D25
:100B7A00763021003F06031DC72D2000E501E40160
:100B8A00E40A332F6E3021003F06031D332F200065
:100B9A00E501E401332F6C3021003F06031DDC2DF3
:100BAA0040302000CA004A08E30040309C2D6E30D5
:100BBA0021003F06031D332F992D803080311420E8
:100BCA00853121003F08D03E2000CA004A08E000D3
:100BDA00C0308031FB20853177082000D8007608A4
:100BEA00D7005808CB005708CA00CB36CA0CCB36F8
:100BFA00CA0CCB36CA0C4A08CC004C08D900570894
:100C0A000739CA000430CA35FF3E031D082E4A358B
:100C1A00CB004B08DA0065080319382E6D305F06E1
:100C2A00031D1B2E5B30A00091301F2E18302000B0
:100C3A00A0009130A1006008CA00CB014A08A200B6
:100C4A004B08A3005908CC00CD014C08A4004D085C
:100C5A00A5005A08CE00CF014E08A6004F08A700EB
:100C6A0083315423853102302000CA004A08DB0050
:100C7A006D305F060319462E6008DD3E840092300F
:100C8A004A2E6008EE3E840092300318013E850029
:100C9A000008CA00CB014A08D0004B08D10050080E
:100CAA00CA004A08DC005908CA004A08DD005A0886
:100CBA00CA004A08DE000430CA004A08F8005B305D
:100CCA00CB004B08F9005B308F31052785312000B6
:100CDA0065080319E82E0330CA004A08DB006D30A4
:100CEA005F0603197D2E6008DD3E84009230812E56
:100CFA006008EE3E840092300318013E8500000829
:100D0A00CA00CB014A08D2004B08D3005208CA00D5
:100D1A004A08DC00DD01DE010430CA004A08F80096
:100D2A005B30CB004B08F9005B308F3105278531EA
:100D3A006D3020005F06031DBC2EEF30A0009130FD
:100D4A00A1006008CA00CB014A08A2004B08A30010
:100D5A005D08CC00CD014C08A4004D08A5008331E4
:100D6A005423853133302000A0009230D62EDE3055
:100D7A002000A0009130A1006008CA00CB014A08F7
:100D8A00A2004B08A3005D08CC00CD014C08A400CA
:100D9A004D08A50083315423853122302000A0005C
:100DAA009230A1006008CA00CB014A08A2004B0891
:100DBA00A3005E08CC00CD014C08A4004D08A50094
:100DCA00833154238531200063089C2D7230200022
:100DDA00A0009230A100833154238531363020009F
:100DEA00A0009030A10083315423853101302000C6
:100DFA00A0008830A10083315423853100302000BF
:100E0A00A0009030A100833154238531BF302000E7
:100E1A00A0009030A1008331542385319530200001
:100E2A00A0009030A100833154238531E5302000A1
:100E3A00A0009030A100833154238531693020000D
:100E4A00A0009030A1008331542385312F30200037
:100E5A00A0009130A1008331542385312000E6019E
:100E6A008031AD2085312000911E352F8E31CB2661
:100E7A0085312000CA004A08E70064080319532F85
:100E8A00E930A0009230A1006708CA00CB014A08E5
:100E9A00A2004B08A3008331542385312000670840
:100EAA00CA006608BD3E860087014A0881000A30EA
:100EBA006706031DA82F6608BD3E860087018101CB
:100ECA00403021003D06031D852F3E082000CA0040
:100EDA004A08DF0020005F08663A0319E22D0E3A3D
:100EEA000319EB2E013A0319A02D043A0319E22D36
:100EFA00023A0319D02D193A0319B42DA72F332F0B
:100F0A0020006608CA004A08B900BD3082311022A2
:100F1A0085312000CB004B08D500550803199C2FBA
:100F2A0064080319332F9930A0009130D02F200084
:100F3A0064080319332F0030A0009130A1008331D7
:100F4A0054238531332F0130CA004A08E60700309E
:100F5A008400883085000008CB0066084B0203181D
:100F6A00352F6608BD3E8600870181016608CA00E2
:100F7A004A08B900BD308231102285312000CB00E9
:100F8A004B08D60056080319D62F64080319332FC5
:100F9A009830A0009130A100BD30CA004A08A200D2
:100FAA00302F200064080319332FFF30A00090303F
:100FBA002F2F8E319D268731E8008E319E2687316C
:100FCA00E9008E319F268731EA008E31A0268731CB
:100FDA00EB00613084000030850007308E31A62690
:100FEA008731A03084000030850026308E31A62655
:100FFA00200085318F2D07345B34533465347434C3
:10100A0020346F3475347434703475347434203445
:10101A006D346F34643465345D3420347B34643425
:10102A0065346234753467343A3420344034763463
:10103A0064342C34203476346534723462346F3438
:10104A00733465343A3420344034763476342C346C
:10105A0020346E346F3472346D3461346C343A3403
:0E106A002034403476346E347D340A34003441
:101D32001630210097000800A0340034A03400348B
:101D4200F10071088E31BA26080064008001013169
:101D5200890BA72E003460302100990098012200DF
:101D62009601080040302400940020309500920132
:101D72000800F0002000111EBB2E700823009A00FC
:101D82000800F0002400951370089100141CC72E5F
:101D9200110808002000911ECB2E23009D1CD32E7B
:101DA2001D121D1619080800083023009F009030EC
:101DB2009D0024309E0033309B009C010800F100FE
:101DC200F0013A3071020318EC2E30307102031C1C
:101DD200EC2EF001F00A700C0800103022008C008A
:101DE2008E012F3021008C0032308E0023008E01B4
:101DF20007308C0024008C0130308E0021009513B6
:101E020022009E019D0108002000A10022000C1268
:101E12007808FA007A08F1007908FB007B08F200E2
:101E22002000210880315F20FC007C082000A000F7
:101E320022000C16200020080800F401F501701C95
:101E4200262F7208F4077308F53D0130F235F30DC1
:101E5200890B272F0130F136F00C890B2C2F7008DB
:101E62007104031D202F7508F1007408F0000800AA
:101E7200780879040319602FFD01FD0AF91B4B2F25
:101E82000130F835F90D890B422F0130FC007C0836
:101E9200FD073F2F79087B02031D512F78087A0234
:101EA200031C572F7808FA027908FB3B0130F936F8
:101EB200F80C890B582F0130FD02031D4B2F7B08B4
:101EC200F9007A08F80008002000A5000130A200FD
:101ED2002508023E890A6E2FA235890B6D2F220832
:101EE200A3002308A6000530A2002208A8002C3077
:101EF200A2002208A9002608A2002208AA00AB011B
:101F02000430A2002208F8002830A3002308F900B8
:101F120028308F3105272000A4002408A7000800DC
:101F2200F501F601700871040319C02FF701F70AD1
:101F3200F11BA52F0130F035F10D890B9C2F0130DB
:101F4200F4007408F707992F0130F535F60D890B67
:101F5200A62F71087302031DB02F70087202031CB2
:101F6200B72F7008F2027108F33B75140130F13695
:101F7200F00C890BB82F0130F702031DA52F76084C
:101F8200F1007508F000080020003A08BC0039088A
:101F9200BB00BC36BB0CBC36BB0CBC36BB0C3B0816
:101FA200BD003D08BF003908BB000430BB35FF3E11
:101FB200031DD72F3B35E039BC003C08C0003F0869
:101FC200BB003B08E1004008BB003B08E20065089B
:101FD200031908008430A0009130A1003F08BB0023
:101FE200BC013B08A2003C08A3004008BD00BE01A2
:101FF2003D08A4003E08A5008331542308005B3449
:1020020045346E34613462346C34653420346F3458
:102012007034653472346134743469346F346E34BC
:1020220020346D346F34643465345D3420347B3451
:102032006C346F346F3470346234613463346B34B3
:102042003A34203440346F346C342C3420346E34BF
:102052006F3472346D3461346C343A342034403429
:102062006F346E347D340A3400345B345334653457
:10207200743420347334743461346E3464346134AF
:102082007234643420346934643465346E347434A4
:10209200693466346934653472345D3420344034D2
:1020A20069343C345334743461346E34643461348E
:1020B2007234643420344934643465346E34743494
:1020C200693466346934653472343E340A34003417
:1020D2005B34523465346334653469347634653440
:1020E20020346D3465347334733461346734653449
:1020F2005D3420343C346D3465347334733461346C
:10210200673465343E342034773469346C346C344B
:1021120020346234653420346F347534743470344E
:10212200753474340A3400345B3453346534743493
:102132002034663469346C347434653472345D34FA
:102142002034403466343C346E343E343C3466349D
:1021520069346C34743465347234283453344934F9
:1021620044343134303420347E34203453344934CE
:102172004434303429343E340A3400345B3453342A
:102182006534743420346D34613473346B345D34AB
:10219200203440346D343C346E343E343C346D343F
:1021A200613473346B342834533449344434313415
:1021B200303420347E34203453344934443430347F
:1021C20029343E340A3400345B34533465346E347B
:1021D200643420346D346534733473346134673459
:1021E20065345D3420343C346D3465347334733477
:1021F2006134673465343E340A3400340A34553469
:102202006E34613462346C346534203474346F3427
:102212002034733465346E34643420346D34653460
:10222200733473346134673465340A340034663489
:1022320069346C347434653472342834253464342B
:1022420029343A342034253430343234783420344A
:1022520025343034323478340A3400345B34533425
:1022620068346F34773420347434683469347334A6
:102272002034683465346C3470345D343A3420343C
:10228200403468340A3400344D3465347334733462
:1022920061346734653420347234653463346534B0
:1022A20069347634653464343A34203425347334F2
:1022B2000A3400346D34613473346B342834253479
:1022C200643429343A342034253430343234783486
:1022D200203425343034323478340A3400344334F0
:1022E2006F347034793469346E3467342034623434
:1022F200753466346634653472343A3420342534A5
:1023020063340A340034533449344434203473344B
:10231200653474343A3420342534303432347834E9
:10232200203425343034323478340A3400340A34D8
:102332004D34653473347334613467346534203416
:10234200733465346E3474343A342034253473343F
:102352000A340034303431343234333434343534A2
:102362003634373438343934613462346334643463
:10237200653466340034523458344234253464347B
:1023820053344934443448343A34203425343034D4
:10239200323478340A3400345434583442342534D4
:1023A200643453344934443448343A342034253480
:1023B2003034323478340A340034523458344634A7
:1023C2002534643453344934443448343A34203460
:1023D20025343034323478340A34003452345834A8
:1023E2004D342534643453344934443448343A3413
:1023F200203425343034323478340A3400345234C0
:1024020058344234253464345334493444344C34DB
:102412003A34203425343034323478340A340034B7
:1024220054345834423425346434533449344434B3
:102432004C343A34203425343034323478340A344B
:1024420000345234583446342534643453344934D5
:1024520044344C343A3420342534303432347834F1
:102462000A340034523458344D34253464345334ED
:10247200493444344C343A34203425343034323400
:1024820078340A34003452345834423425346434B3
:1024920044344C3443343A342034253430343234E6
:1024A20078340A3400345234583442342534643493
:1024B200443430343A3420342534303432347834AD
:1024C2000A340034433441344E34533454344134A6
:1024D20054343A34203425343034323478340A34A3
:1024E20000342D342D342D342034483445344C34CA
:1024F200503420342D342D342D340A3400345434E5
:1025020058344234303420346934733420346934DA
:1025120064346C3465340A340034543458344234EC
:1025220031342034693473342034693464346C3483
:1025320065340A340034543458344234323420344A
:10254200693473342034693464346C3465340A3445
:1025520000345234583430344934463420346934E7
:10256200733420346F346E340A34003452345834A5
:1025720031344934463420346934733420346F346E
:102582006E340A340034013400340A3400346434C2
:102592000034E83403341034273401340034103466
:1025A2000034003401340034103428346E3475346D
:1025B2006C346C342934003400340434083410345C
:1025C2001434183431344134513400340234043474
:0E25D2002534633400340034023420342434C1
:020000040001F9
:04000E00E4FFFFFE0E
:00000001FF
