:08000000803102288731EE2F48
:10000C00FD007D088600870120300106031D1328A2
:10001C000130F8007808FD0707287D088600870165
:10002C000930010603190E28FB01FC01FA017D08B9
:10003C00860087012D300106031D29280130F800A8
:10004C007808FA0730287D08860087012B300106D6
:10005C00031D34280130F8007808FD077D08860060
:10006C00870101088A31C6228031031C59287C087B
:10007C00F1007B08F0000A30F2000030F3008B3105
:10008C00372380317D088600870101087007F8004E
:10009C0071080318710AF9007808D03EFB00FF3094
:1000AC00793DFC0030287A08031968287B09F80090
:1000BC007C09F900F80A0319F90A7808F60079089E
:1000CC00F70008007C08F7007B08F6000800763083
:1000DC002000A2009430A3008531A325803120009C
:1000EC00D101023051020318D4285135633E8600E9
:1000FC008701403FCF00413FD0005008C4004F085B
:10010C00C300C436C30CC436C30CC436C30C43087A
:10011C00C5004508CD004F080739C3000430C3356E
:10012C00FF3E031D95284335C4004408CE000B3018
:10013C00A2009130A3005108C300C4014308A400DD
:10014C004408A5005108C500C6014508A60046088C
:10015C00A7005108C700C8014708A8004808A90013
:10016C005008AB004F08AA004D08C900CA01490845
:10017C00AC004A08AD004E08CB00CC014B08AE00D9
:10018C004C08AF008531A325803101302000C3001D
:10019C004308D10702305102031C7B28D1010630E1
:1001AC005102031832295135A03E86008701403F89
:1001BC00CF00413FD0005008C4004F08C300C436E4
:1001CC00C30CC436C30CC436C30C4308C500450865
:1001DC00CD004F080739C3000430C335FF3E031D63
:1001EC00F3284335C4004408CE00DF30A200903021
:1001FC00A3005108C300C4014308A4004408A5008F
:10020C005108C500C6014508A6004608A7005108BC
:10021C00C700C8014708A8004808A9005008AB004F
:10022C004F08AA004D08C900CA014908AC004A0889
:10023C00AD004E08CB00CC014B08AE004C08AF0013
:10024C008531A325803101302000C3004308D1073C
:10025C0006305102031CD9287630A2009430A3003A
:10026C008531A325080076302000A2009430A3002D
:10027C008531A325813123302000A2009330A300C7
:10028C006B08C300C4014308A4004408A5008531D1
:10029C00A325813145302000A2009330A3006C08C7
:1002AC00C300C4014308A4004408A5008531A3255C
:1002BC00813179302000A2009430A3008531A32530
:1002CC00813133302000A2009430A3002A308B31CE
:1002DC001E2381312000C300C4014308A40044083C
:1002EC00A5008531A32581313F302000A200943038
:1002FC00A30029308B311E2381312000C300C4019F
:10030C004308A4004408A5008531A32581314B3056
:10031C002000A2009430A30028308B311E238131A1
:10032C002000C300C4014308A4004408A500853183
:10033C00A325813179302000A2009430A3008531AF
:10034C00A325813182302000A2009330A3003030ED
:10035C008B311E2381312000C300C4014308A4004B
:10036C004408A5008531A3258131A2302000A200CC
:10037C009330A30040308B311E2381312000C30009
:10038C00C4014308A4004408A5008531A32581318C
:10039C00B2302000A2009330A30050308B311E23CA
:1003AC0081312000C300C4014308A4004408A50007
:1003BC008531A325813179302000A2009430A3002F
:1003CC008531A325813172302000A2009330A30027
:1003DC0060308B311E2381312000C300C4014308DF
:1003EC00A4004408A5008531A3258131923020005A
:1003FC00A2009330A30070308B311E23813120007A
:10040C00C300C4014308A4004408A5008531A325FA
:10041C00813179302000A2009430A3008531A325CE
:10042C008131D1302000A2009330A3000F308B31EA
:10043C001E2381312000C300C4014308A4004408DA
:10044C00A5008531A3258131E0302000A200933036
:10045C00A3000E308B311E2381312000C300C40158
:10046C004308A4004408A5008531A32581317630CA
:10047C002000A2009430A3008531A32508002000A1
:10048C00CB00CD01A030C40044082100AC00AD016C
:10049C0002302000C4004408F800AC308A31F2224B
:1004AC0082312000C5004508C90021002D0820001C
:1004BC00C4004408CA004A1B732A690803196D2A30
:1004CC000B30A2009430A3008531A3258231023079
:1004DC002000C4004408CD00912A4A1A832A6908D6
:1004EC0003197F2AFD30A2009330A3008531A32588
:1004FC0082312000CD01CD0A912A4A19912A69082E
:10050C0003198F2AEF30A2009330A3008531A32565
:10051C0082312000CD014D087E3E840094300318BA
:10052C00013E85000008403EC40044082100AC0098
:10053C0020006B08C40044082100AD0020006C08AA
:10054C00C40044082100AE00AF01B00120004308F4
:10055C00C40044082100B1002000CC0143084C0227
:10056C000318E42A4C084B07C40044088600870192
:10057C000108C5004C08063EAC3E860087014508C4
:10058C00810069080319DE2AD630A2009230A3003C
:10059C004C084B07C4004408860087010108C500BD
:1005AC00C6014508A4004608A5008531A325823163
:1005BC0001302000C4004408CC07B42A4308063E8E
:1005CC00C4004408C8004808C4004408F800AC3013
:1005DC008A31F22282312000C5004508C90003305F
:1005EC00C40044082100AC0020004D087B3E840070
:1005FC0094300318013E85000008C4004408210013
:10060C00AD00AE0103302000C4004408F800AC304B
:10061C008A31F22282312000690803192C2B2F30E9
:10062C00A2009330A3004D08C400C5014408A400E7
:10063C004508A50021002E082000C600C701460869
:10064C00A6004708A7008531A3258231033020007E
:10065C00C40044082100AC0020004D087B3E8400FF
:10066C0094300318013E85000008013EC400440884
:10067C002100AD00AE0103302000C4004408F80096
:10068C00AC308A31F2228231200069080319652BC3
:10069C005130A2009330A3004D08C400C50144089A
:1006AC00A4004508A50021002E082000C600C701A3
:1006BC004608A6004708A7008531A32582312000F3
:1006CC0049084806031D08000130C4004D0A6F2B71
:1006DC00C435890B6E2B4408803EC50045082100AB
:1006EC00AC00F801F80AAC308A31F22282312000D9
:1006FC00C4004408C9004903031D08006908031914
:10070C000800EA30A2009230A3004B08A40000308D
:10071C00A5008531A325080022008E152100E301D8
:10072C0005302000E2000F30E100F130890B9C2BEA
:10073C00E10B9C2BE20B9C2B8A31D42283312100C0
:10074C00E001CB01E8012000EE013B30C7000F3087
:10075C00C8008D31582583318C31AB248331200076
:10076C00E10061082100DF005F080319C02B2200A3
:10077C008E11C22B22008E1521004B080319E12B80
:10078C006008BC3E8600870101082000E10061087A
:10079C002100E50001302000E10061082100E007A4
:1007AC0065088A31782283310A3021006506031DE1
:1007BC00E12BCB01E0012000911EB22B8A319B2250
:1007CC0083312000E10061082100E6006308031971
:1007DC00002C81302000A2009430A3002100660878
:1007EC002000E100E2016108A4006208A500853147
:1007FC00A3258331210066082000E1002100680850
:10080C00CE3E860087012000610881000A3021005D
:10081C006606031D882D6808CE3E8600870181017F
:10082C0040304E06031D7E2D4F082000E10061086C
:10083C002100E700592DD030803106208331770814
:10084C002100CD007608CC004D08F1004C08F000DA
:10085C008B3152238331A02D643021005006031DAF
:10086C003B2CF001F00A0130422C76305006031D6F
:10087C00492CF001F00A00308A31AF22833121007B
:10088C00E301E30AA02D6E305006031DA02DF001EC
:10089C0000308A31AF2283312100E301A02D6C306E
:1008AC005006031D5B2C4030612C6E30210050062D
:1008BC00031D642C00308D3101258331210051083A
:1008CC00031D6B2C2000EE01A02D7330210051066E
:1008DC00031DA02D5208031DA02D2000EE01EE0AD1
:1008EC00A02D8A31E3228331D03080310620833130
:1008FC0076082000E10061082100DE005E088B31E3
:10090C00F6238331A02D21005008D03E2000E100B9
:10091C0061082100E400D130803106208331770852
:10092C002100E2007608E1006D306706031DB02C53
:10093C0064082000E1006108C70021006208200063
:10094C00C900210061082000C80000308D31E2256B
:10095C008331A02D663021006706031DA02D64088D
:10096C002000E1006108C700210062082000C900D6
:10097C00210061082000C80001308D31E22583314F
:10098C00A02D8A31E3228331A02D80316D2083315B
:10099C00A02D813139218331A02D21006808FF3E23
:1009AC002000E1006108C300CF309D2DD93020001C
:1009BC00A2009130A300C130A4009230A500853173
:1009CC00A3258331AC302000A2009030A3008531E8
:1009DC00A325833102302000A2009030A300853182
:1009EC00A325833176302000A2009030A3008531FE
:1009FC00A32583311A302000A2009230A300853148
:100A0C00A32583318D302000A2009130A3008531C5
:100A1C00A325833163302000A2009130A3008531DF
:100A2C00A325833151302000A2009230A3008531E0
:100A3C00A3258331B3302000A2009130A30085316F
:100A4C00A3258331FD302000A2009130A300853115
:100A5C00A3258331AC302000A2009230A300853155
:100A6C00A325833137302000A2009230A3008531BA
:100A7C00A32583313D302000A2009030A3008531A6
:100A8C00A325833137302000A2009130A30085319B
:100A9C00A325833181302000A2009230A300853140
:100AAC00A3258331A02D21006708403A0319D32CCC
:100ABC00043A0319CF2C023A0319CB2C273A031909
:100ACC00C72C033A0319772C043A0319892C0E3AD4
:100ADC000319DC2C013A0319212C043A0319892C33
:100AEC00023A0319552C193A0319322C872DA02DD3
:100AFC0068082000E1006108C300CE308231452235
:100B0C008331A02D01302000E10061082100E807AD
:100B1C0008306802031CB22B6808CE3E86008701A1
:100B2C00810168082000E1006108C300CE308231E9
:100B3C00452283312100E801B22B24302000B00083
:100B4C003008BC0020002308B1002208B000A20A23
:100B5C000319A30A30088400310885000008B2008C
:100B6C003208C20042080319080025304206031956
:100B7C00C42D42088A3178228531A82D2000C0016D
:100B8C00C101BF01CE2D3F150130A2070030A33D9E
:100B9C0022088400230885000008303A0319C92D67
:100BAC00D72D220884002308850000088A31C6222C
:100BBC008531031C832E2000C001C1010A30F000D6
:100BCC000030F10020004108F3004008F2008B31A6
:100BDC003723853171082000C1007008C00022083D
:100BEC008400230885000008D03EB000FF300318B5
:100BFC000030B1003008C0073108C13D0130A207F8
:100C0C000030A33D220884002308850000088A31A7
:100C1C00C6228531031C832EE42DBF16BF17A72EC9
:100C2C003C0886008701403FB800413FB9000230C4
:100C3C00B0003008BC0738083904031D292E693070
:100C4C00B8009430B900BA01BB0138083A078400E7
:100C5C0039083B3D850012000319392E0130BA07C3
:100C6C000030BB3D2B2E41083B02031D3F2E40089C
:100C7C003A020318462E3A08C0023B08C13B482EE4
:100C8C00C001C101FF302000C007FF30C13D400A48
:100C9C000319410A0319642E20308A3178228531D8
:100CAC00482E380884003908850000088A317822DB
:100CBC00853101302000B8070030B93D0130BA024F
:100CCC000030BB3B3A0A031D572E3B0A0319A82DD3
:100CDC00572E3C08860087010108B0003008C2007E
:100CEC000230B0003008BC074230B8000030B90008
:100CFC000130BA000030BB00392E20002308B100AF
:100D0C002208B000A20A0319A30A30088400310893
:100D1C0085000008C200003A0319ED2F583A031958
:100D2C00132E3B3A03196F2E073A0319A72E0D3ACF
:100D3C000319A72E1A3A0319162E0B3A0319142E5F
:100D4C007A2E2000BF1BC12E3C0886008701403F35
:100D5C00BD00413FBE000230B0003008BC07BE1FD2
:100D6C00112F0330B0003008BF04BD09BE09BD0A05
:100D7C000319BE0A112F3C0886008701403FBD00B5
:100D8C00413FBE000230B0003008BC07112FC20139
:100D9C00C20A0530420603191A2F4208B000B101ED
:100DAC00B035B10D5730300784009430313D85009B
:100DBC00003FB200013FB30033083E02031DE82E92
:100DCC0032083D02031C1A2F0130B0003008C20754
:100DDC00CF2EC201C20A0430420603191A2F420850
:100DEC00B000B101B035B10D6130300784009430E2
:100DFC00313D8500003FB200013FB30033083E0295
:100E0C00031D0A2F32083D02031C1A2F0130B000BB
:100E1C003008C207F12E3F088039003A0319CD2E55
:100E2C00803A0319EF2E1A2F400841040319262F7C
:100E3C003F0803390319262FFF30C007FF30C13D8F
:100E4C004208B000B101B01BB1033108803AB200C6
:100E5C004108803A3202031D352F40083002031836
:100E6C00422F20004208B000B101B01BB103300882
:100E7C00C0023108C13B452F2000C001C1013F1DFC
:100E8C005E2F3F08033903194F2F2D308A317822FA
:100E9C0085312000400841040319772F30308A3106
:100EAC0078228531FF302000C007FF30C13D502F24
:100EBC004008410403196F2F20308A317822853184
:100ECC00FF302000C007FF30C13D40084104031D26
:100EDC00622F3F0803390319772F2D308A3178227E
:100EEC00853120004208B0003008B700DB2F0A30F3
:100EFC00F8000030F9003708B000B101B035B10D81
:100F0C005730300784009430313D8500003FF000AD
:100F1C00013FF1003E08F3003D08F2008C3129241A
:100F2C0085317108FB007008FA008B319C238531E8
:100F3C007808303E2000D42F3708B000B101B0350E
:100F4C00B10D6130300784009430313D8500003F95
:100F5C00F000013FF1003E08F3003D08F2008C3137
:100F6C002924853170080F392000B2003208B600F0
:100F7C00BF1AC42F0D30B4009330C72FFC30B4000F
:100F8C009230B5003508B1003408B000360830078F
:100F9C00840031080318310A85000008B2003208B9
:100FAC00C20042088A3178228531FF302000B0001F
:100FBC003008B707370A0319A82D3F088039003AC3
:100FCC0003197D2F803A0319A22FD72FD72F080092
:100FDC0063308400003085000C308A317D228731EB
:100FEC00A0308400003085002C308A317D22200016
:040FFC008331922B80
:1014E8001630210097000800F10071088A318A221D
:1014F8000800640080010131890B7E2A00344030E5
:10150800240094002030950092010800F00020008B
:10151800111E8B2A700823009A000800F00024008E
:10152800951370089100141C972A110808002000D0
:10153800911E9B2A23009D1CA32A1D121D16190803
:1015480008007030210099009801220096012100BE
:101558001A1B0800AB2AF2007208F100710820007B
:10156800E9007008F1007108EA000800083023005B
:101578009F0090309D0024309E0040309B00033037
:101588009C000800F100F0013A3071020318D22AD9
:1015980030307102031CD22AF001F00A700C0800E6
:1015A8008B3107238A318A31A5228A318A31742204
:1015B8008A318A3183228A318A31BA2208008030FE
:1015C8008D3101258A318B3176238A312000C7007D
:1015D8004708C8006D088D3101250800FD0022006C
:1015E8000C117808F9007908F1007D08FA007A08EA
:1015F800F2007D088C315D24FB007B08FC00220092
:101608000C157C080800143022008C008E013B3039
:1016180021008C0032308E0023008E018C012400C2
:101628008C0130308E002100951722009E018430F5
:101638009D0008002000A1000330A0002008210020
:10164800AC0020002108A00020082100AD00AE0158
:1016580003302000A0002008F800AC308A31F222C4
:1016680021002E080800F401F501701C3F2B7208B8
:10167800F4077308F53D0130F235F30D890B402B63
:101688000130F136F00C890B452B70087104031DED
:10169800392B7508F1007408F00008007108F30090
:1016A8007008F200F336F20CF336F20CF336F20C53
:1016B8007208F4007408F5007008F2000430F2357E
:1016C800FF3E031D632B7235E039F3007308F60003
:1016D8007508F20072082000EB007608F200720824
:1016E800EC00080005302000A00020082100AC0014
:1016F8000F302000A00020082100AD00103020008D
:10170800A00020082100AE0010302000A000200812
:101718002100AF0004302000A0002008F800AC3001
:101728008A31F2222000A1002108A2002208080024
:10173800780879040319C32BFD01FD0AF91BAE2BA8
:101748000130F835F90D890BA52B0130FC007C0818
:10175800FD07A22B79087B02031DB42B78087A02B7
:10176800031CBA2B7808FA027908FB3B0130F936DA
:10177800F80C890BBB2B0130FD02031DAE2B7B0837
:10178800F9007A08F80008002000A4000130A00041
:101798002408023E890AD12BA035890BD02B2008BA
:1017A800A1002108A2000530A00020082100AC00FB
:1017B8002C302000A00020082100AD0020002208C5
:1017C800A00020082100AE00AF0104302000A000D6
:1017D8002008F800AC308A31F2222000A10021084C
:1017E800A30008002000C90080308D3101258B310D
:1017F8003F302000C7004708CA000530C700470827
:101808002100AC002A302000C70047082100AD00A5
:1018180020004A08C70047082100AE0020004908F8
:10182800C70047082100AF0004302000C700470860
:10183800F800AC308A31F2228B312000C800480809
:10184800CB006D088D3101250800F501F6017008FF
:1018580071040319582CF701F70AF11B3D2C0130CC
:10186800F035F10D890B342C0130F4007408F707BA
:10187800312C0130F535F60D890B3E2C71087302B9
:10188800031D482C70087202031C4F2C7008F202CA
:101898007108F33B75140130F136F00C890B502CAC
:1018A8000130F702031D3D2C7608F1007508F000A1
:1018B8000800F600F70171080319A92C7608031D22
:1018C8008B2C902C7208031D742C77087607F30074
:1018D80073088600870101088A3192228C31872C8F
:1018E80077087607F30073088600870101088A31B4
:1018F80092228C31F40077087207F500750886008B
:101908008701740881000130F3007308F707710834
:1019180077020318A92C662C7208031DA52CA92C84
:1019280000308A3192228C31F30077087207F40074
:10193800740886008701730881000130F30073087A
:10194800F70771087702031C942C77080800A03069
:101958002000DD005D082100AC00AD010230200050
:10196800DD005D08F800AC308A31F2228C312000AD
:10197800DE005E08DF0021002D082000DD005D0884
:10198800E0006008031DCA2C01300800E01CDB2CB5
:1019980069080319D62C2630A2009430A30085319B
:1019A800A3258C3101308E3187268C31FA2C601CAE
:1019B800EC2C69080319E72C1930A2009430A30015
:1019C8008531A3258C3100308E3187268C31FA2C55
:1019D800E01DF02C0030F72CE01EF42C0130F72C21
:1019E800E01FFA2C02308B31C8238C312000601E96
:1019F800FF2C00300800013008002000C60002302B
:101A0800C30043082100AC000F302000C300430886
:101A18002100AD0020004608C30043082100AE00A5
:101A280003302000C3004308F800AC308A31F222AA
:101A38008D312000C4004408C500803046060319D3
:101A4800292D4608C3004308ED0003304506031D51
:101A580008000330C30043082100AC000E3020000A
:101A6800C30043082100AD0003302000C300430831
:101A7800F800AC308A31F2228D312000C4004408CD
:101A8800C500690803190800E030A2009330A300DC
:101A980021002E082000C300C4014308A400440804
:101AA800A5008531A325080005302000CA000F30A5
:101AB800C900F130890B5E2DC90B5E2DCA0B5E2D56
:101AC8000030F000F1008B3152238D31200048089E
:101AD800E8004708E700C030C90049082100AC0009
:101AE800F801F80AAC308A31F2228D318530890B41
:101AF8007B2D000002302000C90049082100AC00FD
:101B080028302000C90049082100AD000530200018
:101B1800C90049082100AE00F1302000C900490879
:101B28002100AF0041302000C90049082100B00061
:101B380005302000C9004908F800AC308A31F2228B
:101B48008D3102302000C90049082100AC00603006
:101B58002000C90049082100AD0024302000C90038
:101B680049082100AE0003302000C9004908F800E8
:101B7800AC308A31F2228D3102302000C900490888
:101B88002100AC0070302000C90049082100AD00D8
:101B980020302000C90049082100AE000330200091
:101BA800C9004908F800AC308A31F2228D31200092
:101BB800E901EA0100308D31012508002000D2003A
:101BC80080308D3101258D318B3176238D31083070
:101BD80020004902003003194802031CF72DFF308A
:101BE800C8000730C9004908CB004808CA00CB36EE
:101BF800CA0CCB36CA0CCB36CA0C4A08CC004C08E7
:101C0800D30048080739CA000430CA35FF3E031D0F
:101C1800092E4A35CB004B08D4005208031D232E49
:101C28004735633E860087014808C03F4908C13FE1
:101C3800690803194B2E9730A2009230322E2000EB
:101C48004735A03E860087014808C03F4908C13F84
:101C5800690803194B2E6A30A2009230A300470886
:101C6800CA00CB014A08A4004B08A5005308CC00C1
:101C7800CD014C08A6004D08A7005408CE00CF019E
:101C88004E08A8004F08A9008531A3258D310230E0
:101C98002000CA004A082100AC002000520803199D
:101CA8005A2E4708703E840094305E2E4708003E46
:101CB800840090300318013E85000008CA00CB015B
:101CC8004A08D0004B08D1005008CA004A08210031
:101CD800AD0020005308CA004A082100AE002000C9
:101CE8005408CA004A082100AF0004302000CA0086
:101CF8004A08F800AC308A31F2228D3120006D0894
:101D08008D31012508002000DC005C08843E840039
:101D180094300318013E850000080907903EC3006F
:101D28004308C9000E30C3004308F80049308A311F
:101D3800F2228E312000C4004408C8004E08C300B7
:101D48004308DB004B08C3000530C336890BA92EB6
:101D58004308C400C5014A08C600C701C635C70DF7
:101D6800C635C70DC635C70D44084607D90045080E
:101D7800473DDA00FF305905D90007305A05DA0027
:101D88005B08063E493E8600870181016908031900
:101D9800242F1E30A2009330A3005C08C300C401A6
:101DA8004308A4004408A5004A08C500C601450820
:101DB800A6004608A7008531A3258E3140302000B3
:101DC800A2009330A3005C08C300C4014308A40028
:101DD8004408A5004B08C500C6014508A6004608EA
:101DE800A7008531A3258E3162302000A2009330F0
:101DF800A3005C08C300C4014308A4004408A5006C
:101E08004E08C500C6014508A6004608A70085314A
:101E1800A3258E31C2302000A2009330A3005C08B5
:101E2800C300C4014308A4004408A5004F08C50026
:101E3800C6014508A6004608A7008531A3258E31AE
:101E48004F302000C3004308D8005A08A1005908A1
:101E5800A0005808C3004308A2005B08C400440857
:101E6800A30068088A0067080A008F31080021006B
:101E78004B08031D080020006E080319E32FE83003
:101E8800F0000330F1002108F3002008F2008C3143
:101E980029248F3171082000A6007008A500E830B9
:101EA800F8000330F9002108FB002008FA008B3104
:101EB8009C238F3179082000AE007808AD0064308B
:101EC800F0000030F1002E08F3002D08F2008C31EC
:101ED80029248F3171082000A8007008A7006430F9
:101EE800F8000030F9002E08FB002D08FA008B31AD
:101EF8009C238F3179082000B0007808AF000A30A1
:101F0800F0000030F1003008F3002F08F2008C31A7
:101F180029248F3171082000AA007008A9000A300E
:101F2800F8000030F9003008FB002F08FA008B3168
:101F38009C238F3179082000AC007808AB00250875
:101F4800303EA40024082100BC0020002708303EB1
:101F5800A40024082100BD0020002908303EA40068
:101F680024082100BE0020002B08303EA4002408CD
:101F78002100BF002C302000A40024082100C0004C
:101F88000530BC3E860087012000220884008501B8
:101F98002308A40024080319D52F12001E00A40B3F
:101FA800D12F0A302000A4002308053EBC3E86003D
:101FB8008701240881002100CB01CB0A0800BC302E
:101FC8008600870120002208840085012308A400D8
:101FD80024080319F32F12001E00A40BEF2F0A3058
:101FE8002000A4002308BC3E860087012408810045
:101FF8002100CB01CB0A0800203424345B3453344D
:102008006534743420346F347534743470347534F2
:10201800743420346D346F34643465345D34203462
:102028007B34643465346234753467343A3420342C
:102038004034763464342C34203476346534723445
:1020480062346F34733465343A342034403476342F
:1020580076342C3420346E346F3472346D346134F9
:102068006C343A342034403476346E347D340A3457
:1020780000345B34533465346E34643420346D3446
:1020880065347334733461346734653420346234AE
:102098006534673469346E346E3469346E34673449
:1020A8002034773469347434683420342734403425
:1020B80027342034633468346134723461346334CF
:1020C8007434653472345D34203440343C344034E4
:1020D8006D346534733473346134673465343E3435
:1020E8000A3400345B3445346E34613462346C3401
:1020F800653420346F347034653472346134743428
:1021080069346F346E3420346D346F34643465341C
:102118005D3420347B346C346F346F347034623403
:10212800613463346B343A34203440346F346C3463
:102138002C3420346E346F3472346D3461346C3422
:102148003A34203440346F346E347D340A340034E9
:102158005B345334653474342034733474346134E8
:102168006E346434613472346434203469346434D1
:1021780065346E3474346934663469346534723461
:102188005D342034403469343C34733474346134FD
:102198006E346434613472346434203469346434A1
:1021A80065346E3474346934663469346534723431
:1021B8003E340A34003452345834463425346434B6
:1021C8002034523458344634253464345334493432
:1021D8004434483420345234583446342534643432
:1021E8005334493444344C343A3420342534343468
:1021F800643420342534303432345834683420344C
:10220800253430343234583468340A340034523483
:1022180058344D34253464342034523458344D34D1
:1022280025346434533449344434483420345234E3
:1022380058344D34253464345334493444344C349C
:102248003A3420342534343464342034253430345A
:1022580032345834683420342534303432345834E5
:1022680068340A3400345B3452346534633465347A
:1022780069347634653420346D346534733473349A
:102288006134673465345D3420343C346D346534EE
:10229800733473346134673465343E3420347734AE
:1022A80069346C346C3420346234653420346F34CF
:1022B800753474347034753474340A3400345B34CF
:1022C8005334653474342034663469346C3474346B
:1022D800653472345D342034403466343C346E34B2
:1022E8003E343C34663469346C3474346534723446
:1022F80028345334493444343134303420347E342F
:102308002034533449344434303429343E340A3484
:1023180000345B3453346534743420346D346134A0
:1023280073346B345D34203440346D343C346E3453
:102338003E343C346D34613473346B342834533454
:10234800493444343134303420347E3420345334E6
:1023580049344434303429343E340A3400345B344C
:10236800413462346F3472347434203461346C34E0
:102378006C342034703465346E34643469346E34AB
:10238800673420347434723461346E3473346D3489
:1023980069347334733469346F346E3473345D3430
:1023A8002034403461340A3400342F342F342F342D
:1023B8002034553441345234543432344334413463
:1023C8004E342034483445344C3450342034283486
:1023D800763465347234733469346F346E3420342F
:1023E80025347334293420342F342F342F340A34CD
:1023F80000345B34443475346D34703420346D34B7
:10240800613473346B347334203461346E3464341F
:102418002034663469346C347434653472347334FB
:102428005D342034403446340A34003420342034B7
:1024380020342034203477346934743468342034B8
:102448005334493444343A34203440346F346C348F
:10245800733420346F347234203440346F346E3423
:1024680073340A3400345B34533465346E34643462
:1024780020346D34653473347334613467346534AF
:102488005D3420343C346D346534733473346134D2
:10249800673465343E340A3400345B34533465346D
:1024A80074342034623461347534643420347234C2
:1024B8006134743465345D342034403462343C34DF
:1024C8006234703472343E340A3400346634693409
:1024D8006C347434653472342834253464342934C3
:1024E8003A342034253430343234783420342534A6
:1024F8003034323478340A3400345B34533468343A
:102508006F34773420347434683469347334203445
:10251800683465346C3470345D343A342034403473
:1025280068340A3400346D34613473346B342834BD
:102538002534643429343A34203425343034323460
:102548007834203425343034323478340A34003442
:102558005B34443475346D347034203472346534EB
:1025680067346934733474346534723473345D3465
:102578002034403444340A34003430342E34313476
:102588003334203420344D34613472346334683445
:102598002034323433342C3420343234303431342F
:1025A8003834003443346F347034793469346E34D9
:1025B8006734203462347534663466346534723472
:1025C8003A342034253463340A3400344D346534C5
:1025D8007334733461346734653420347334653448
:1025E8006E3474343A342034253473340A34003465
:1025F8003034313432343334343435343634373497
:10260800383439344134423443344434453446341C
:1026180000343034313432343334343435343634AD
:10262800373438343934613462346334643465346B
:1026380066340034523458344234253464345334C4
:102648004934443448343A3420342534303432342C
:1026580078340A34003454345834423425346434D9
:1026680053344934443448343A34203425343034EB
:10267800323478340A3400345234583442342534ED
:1026880064345334493444344C343A342034253493
:102698003034323478340A340034543458344234C0
:1026A800253464345334493444344C343A34203473
:1026B80025343034323478340A34003452345834BF
:1026C80042342534643444344C3443343A3420346A
:1026D80025343034323478340A340034523458349F
:1026E800423430344334543452344C343A34203441
:1026F80025343034323478340A340034543458347D
:10270800423430344334543452344C343A34203420
:1027180025343034323478340A340034523458345E
:10272800423431344334543452344C343A342034FF
:1027380025343034323478340A340034543458343C
:10274800423431344334543452344C343A342034DF
:1027580025343034323478340A340034543458341C
:10276800423432344334543452344C343A342034BE
:1027780025343034323478340A34003452345834FE
:10278800423425346434443430343A3420342534E3
:102798003034323478340A340034433441344E34DB
:1027A8004334543452344C343A342034253430349D
:1027B800323478340A340034433441344E34533498
:1027C8005434413454343A34203425343034323497
:1027D80078340A3400345434583442343034203491
:1027E800693473342034693464346C3465340A349D
:1027F8000034543458344234313420346934733416
:102808002034693464346C3465340A340034543404
:1028180058344234323420346934733420346934BF
:1028280064346C3465340A340034523458343034E7
:102838004934463420346934733420346F346E3468
:102848000A3400345234583431344934463420344C
:102858006934733420346F346E340A3400344334AA
:102868004E34463431343A3420342534303432341A
:1028780078340A34003443344E34463432343A34EB
:10288800203425343034323478340A340034433434
:102898004E34463433343A342034253430343234E8
:1028A80078340A340034013400340A34003464348F
:1028B8000034E8340334103427340134003410343D
:1028C8000034003401340034103428346E34753444
:1028D8006C346C3429340034003404340834103433
:1028E800143418342D342D342D340A340034313452
:1028F8004134513400340234043425346334003410
:042908000034023461
:020000040001F9
:04000E00E4FFFFFF0D
:00000001FF
