:10000000803102288731EE2F16302100970008003A
:100010002000A4000130A0002408023E890A112813
:10002000A035890B10282008A1002108A200053066
:10003000A00020082100B3002C302000A0002008E0
:100040002100B40020002208A00020082100B500F3
:10005000B60104302000A0002008F800B3308C3135
:1000600080242000A1002108A30008002000C9006E
:1000700080308E316826803120004008C100033076
:10008000C136890B40284108C2004208CA00400816
:100090000739C1000430C135FF3E031D4B284135EF
:1000A000C2004208CB00620803197A284908031DE0
:1000B0005D283D30A2009230612810302000A2005F
:1000C0009230A3003F08C100C2014108A4004208C9
:1000D000A5004A08C300C4014308A6004408A700BD
:1000E0004B08C500C6014508A8004608A90085318F
:1000F000B325803102302000C10041082100B30047
:1001000020004908031989283F080B3E84009430D9
:100110008D283F082D3E840094300318013E850051
:100120000008C100C2014108C7004208C8004708D2
:10013000C10041082100B40020004A08C100410864
:100140002100B50020004B08C10041082100B60085
:1001500004302000C1004108F800B3308C31802405
:100160008031200068088E31682608002000DB00FE
:100170005B082B3E840094300318013E8500000884
:100180000907903EC2004208C8000E30C200420873
:10019000F80048308C31802480312000C3004308AF
:1001A000C7004D08C2004208DA004A08C200053004
:1001B000C236890BD8284208C300C4014908C500CB
:1001C000C601C535C60DC535C60DC535C60D4308B6
:1001D0004507D8004408463DD900FF305805D800EF
:1001E00007305905D9005A08063E483E8600870167
:1001F0008101620803195329B230A2009230A30092
:100200005B08C200C3014208A4004308A5004908D6
:10021000C400C5014408A6004508A7008531B325E0
:100220008031D4302000A2009230A3005B08C200CD
:10023000C3014208A4004308A5004A08C400C50140
:100240004408A6004508A7008531B3258031F63063
:100250002000A2009230A3005B08C200C301420844
:10026000A4004308A5004D08C400C5014408A60029
:100270004508A7008531B325803156302000A20003
:100280009330A3005B08C200C3014208A4004308E6
:10029000A5004E08C400C5014408A6004508A700F3
:1002A0008531B32580314E302000C2004208D7008E
:1002B0005808C2004208BB005708C3004308BC00EE
:1002C0005A08C4004408BD006A088A0069080A0088
:1002D000813108001D302000A2009430A300853138
:1002E000B3258131B7302000A2009230A30064080A
:1002F000BB00BC013B08A4003C08A5008531B32528
:100300008131D9302000A2009230A3006508BB00E3
:10031000BC013B08A4003C08A5008531B325813110
:1003200020302000A2009430A3008531B325813114
:10033000C7302000A2009330A3002A308C31AC24B7
:1003400081312000BB00BC013B08A4003C08A50093
:100350008531B3258131D3302000A2009330A30032
:1003600029308C31AC2481312000BB00BC013B081A
:10037000A4003C08A5008531B3258131DF30200081
:10038000A2009330A30028308C31AC2481312000AE
:10039000BB00BC013B08A4003C08A5008531B32587
:1003A000813120302000A2009430A3008531B32594
:1003B000813116302000A2009330A30030308C3100
:1003C000AC2481312000BB00BC013B08A4003C08E8
:1003D000A5008531B325813136302000A20093304D
:1003E000A30040308C31AC2481312000BB00BC0123
:1003F0003B08A4003C08A5008531B3258131463077
:100400002000A2009330A30050308C31AC24813105
:100410002000BB00BC013B08A4003C08A5008531BE
:10042000B325813120302000A2009430A300853113
:10043000B325813106302000A2009330A300603044
:100440008C31AC2481312000BB00BC013B08A400EE
:100450003C08A5008531B325813126302000A2005B
:100460009330A30070308C31AC2481312000BB006C
:10047000BC013B08A4003C08A5008531B3258131AF
:1004800020302000A2009430A3008531B3258131B3
:1004900065302000A2009330A3000F308C31AC24D3
:1004A00081312000BB00BC013B08A4003C08A50032
:1004B0008531B325813174302000A2009330A30030
:1004C0000E308C31AC2481312000BB00BC013B08D4
:1004D000A4003C08A5008531B32581311D302000E2
:1004E000A2009430A3008531B32508002000C3008A
:1004F000C501A030BC003C082100B300B4010230AB
:100500002000BC003C08F800B3308C3180248231DC
:100510002000BD003D08C100210034082000BC00BF
:100520003C08C200421BA42A620803199E2A9F307D
:10053000A2009330A3008531B32582310230200020
:10054000BC003C08C500C22A421AB42A620803193A
:10055000B02A9130A2009330A3008531B3258231B7
:100560002000C501C50AC22A4219C22A620803191D
:10057000C02A8330A2009330A3008531B325823195
:100580002000C5014508253E840094300318013E33
:1005900085000008403EBC003C082100B30020005C
:1005A0006408BC003C082100B40020006508BC00C1
:1005B0003C082100B500B601B70120003B08BC0093
:1005C0003C082100B8002000C4013B084402031885
:1005D000152B44084307BC003C088600870101082E
:1005E000BD004408063EB33E860087013D088100F9
:1005F000620803190F2B6730A2009230A300440851
:100600004307BC003C08860087010108BD00BE010D
:100610003D08A4003E08A5008531B3258231013094
:100620002000BC003C08C407E52A3B08063EBC008D
:100630003C08C0004008BC003C08F800B3308C31D6
:10064000802482312000BD003D08C1000330BC0081
:100650003C082100B30020004508223E840094306D
:100660000318013E85000008BC003C082100B400CE
:10067000B50103302000BC003C08F800B3308C31D9
:10068000802482312000620803195D2BC330A20050
:100690009230A3004508BC00BD013C08A4003D0801
:1006A000A500210035082000BE00BF013E08A600BD
:1006B0003F08A7008531B325823103302000BC00FC
:1006C0003C082100B30020004508223E84009430FD
:1006D0000318013E85000008013EBC003C082100D3
:1006E000B400B50103302000BC003C08F800B33072
:1006F0008C3180248231200062080319962BE5306A
:10070000A2009230A3004508BC00BD013C08A40033
:100710003D08A500210035082000BE00BF013E08AD
:10072000A6003F08A7008531B3258231200041088B
:100730004006031D08000130BC00450AA02BBC3553
:10074000890B9F2B3C08803EBD003D082100B30073
:10075000F801F80AB3308C31802482312000BC00CB
:100760003C08C1004103031D08006208031908008A
:100770008F30A2009230A3004308A4000030A500EF
:100780008531B325080022008E152100A5018C318A
:10079000712483312000E601E701BF30BF000E3035
:1007A000C0008F31812783312100B2018E311226A2
:1007B00083312000E00060082100A2002208031914
:1007C000E42B22008E11E62B22008E152000911EB4
:1007D000D62B8C31432483312000E00060082100B7
:1007E000B00025080319052C28302000A200943001
:1007F000A300210030082000E000E1016008A4000F
:100800006108A5008531B32583312100300820001F
:10081000E00021003208A73E860087012000600822
:1008200081000A3021003006031D902D3208A73EBA
:1008300086008701810140302706031D862D280888
:100840002000E00060082100B100642DA9308F3144
:100850001A27833176082000E00060082100A000FC
:1008600020082000E000E1016008F0006108F100CC
:100870008C31E0248331D42B643021002906031D00
:10088000452CF001F00A01304C2C76302906031D6E
:10089000532CF001F00A00308C31582483312100B0
:1008A000A501A50AD42B6E302906031DD42BF00117
:1008B00000308C31582483312100A501D42B6C30B9
:1008C0002906031D652C40306B2C6E302100290653
:1008D000031D6E2C00308E316826833121002A08DA
:1008E000031D752C2000E601802C733021002A06A0
:1008F000031D822C2B08031D822C2000E601E60A32
:10090000E701D42B683021002A06031DD42B2B08C5
:10091000031DD42B2000E601E701E70AD42B8D311B
:1009200030258331A9308F311A2783317608200092
:10093000E00060082100A10021088D315D25833190
:10094000D42B21002908D03E2000E00060082100BF
:10095000A600AA308F311A27833177082100A4001E
:100960007608A3006D303106031DC62C2608200032
:10097000E0006008BF00210023082000E1006108BA
:10098000C0000030803136208331D42B6630210006
:100990003106031DD42B26082000E0006008BF00AC
:1009A000210023082000E1006108C00001308031EF
:1009B00036208331D42B8D3130258331D42B8131B6
:1009C0006A218331D42B21003208FF3E2000E00051
:1009D0006008BB00A830823176228331D42BB93035
:1009E0002000A2009130A3007B30A4009230A5002B
:1009F0008531B3258331E4302000A2009030A3007C
:100A00008531B325833100302000A2009030A3004F
:100A10008531B3258331AE302000A2009030A30091
:100A20008531B32583313B302000A2009030A300F4
:100A30008531B32583316D302000A2009130A300B1
:100A40008531B325833143302000A2009130A300CB
:100A50008531B3258331F7302000A2009130A30007
:100A60008531B325833193302000A2009130A3005B
:100A70008531B325833152302000A2009230A3008B
:100A80008531B3258331DD302000A2009130A300F1
:100A90008531B325833175302000A2009030A3004A
:100AA0008531B325833117302000A2009130A30097
:100AB0008531B325833127302000A2009230A30076
:100AC0008531B3258331D42B21003108403A0319F5
:100AD000E32C213A0319DB2C033A03198F2C063A35
:100AE0000319DF2C023A0319A12C0E3A0319EF2C3B
:100AF000013A0319262C043A0319A12C023A0319CE
:100B00005F2C193A03193C2C8F2DD42B320820006E
:100B1000E0006008BB00A730823176228331D42BFD
:100B200001302000E00060082100B2072F3084006F
:100B30009430850000082000E100210032082000E8
:100B400061020318D62B21003208A73E86008701D8
:100B5000810132082000E0006008BB00A73082312C
:100B600076228331D42B24302000AA002A08B40036
:100B700020002308AB002208AA00A20A0319A30A36
:100B80002A0884002B0885000008AC002C08BA0055
:100B90003A080319080025303A060319D42D3A08FB
:100BA0008C3119248531B82D2000B801B901B70165
:100BB000DE2D37150130A2070030A33D2208840046
:100BC000230885000008303A0319D92DE72D2208A3
:100BD00084002308850000088C3163248531031CC0
:100BE000922E2000B801B9010A30F0000030F10067
:100BF00020003908F3003808F2008C31C524853113
:100C000071082000B9007008B80022088400230889
:100C100085000008D03EAA00FF3003180030AB006A
:100C20002A08B8072B08B93D0130A2070030A33DC0
:100C3000220884002308850000088C316324853154
:100C4000031C922EF42DB717B32E340886008701AB
:100C5000403FB000413FB1000230AA002A08B4076B
:100C600030083104031D382EFD30B0009330B10040
:100C7000B201B3013008320784003108333D8500EA
:100C800012000319482E0130B2070030B33D3A2E4E
:100C900039083302031D4E2E380832020318552E30
:100CA0003208B8023308B93B572EB801B901FF30FA
:100CB0002000B807FF30B93D380A0319390A031973
:100CC000732E20308C3119248531572E3008840042
:100CD0003108850000088C3119248531013020004D
:100CE000B0070030B13D0130B2020030B33B320AF0
:100CF000031D662E330A0319B82D662E34088600AC
:100D000087010108AA002A08BA000230AA002A08AE
:100D1000B4073A30B0000030B1000130B20000300A
:100D2000B300482E20002308AB002208AA00A20A24
:100D30000319A30A2A0884002B0885000008BA00BA
:100D4000003A0319ED2F633A03197E2E073A03196F
:100D5000B32E0D3A0319B32E1A3A0319252E0B3A66
:100D60000319232E892E2000B71BCD2E34088600B0
:100D70008701403FB500413FB6000230AA002A0873
:100D8000B407B61F1D2F0330AA002A08B704B509FF
:100D9000B609B50A0319B60A1D2F34088600870163
:100DA000403FB500413FB6000230AA002A08B40710
:100DB0001D2FBA01BA0A05303A060319262F3A0840
:100DC000AA00AB01AA35AB0DEB302A0784009330A3
:100DD0002B3D8500003FAC00013FAD002D083602E1
:100DE000031DF42E2C083502031C262F0130AA0007
:100DF0002A08BA07DB2EBA01BA0A04303A060319E8
:100E0000262F3A08AA00AB01AA35AB0DF5302A0708
:100E1000840093302B3D8500003FAC00013FAD00C6
:100E20002D083602031D162F2C083502031C262F11
:100E30000130AA002A08BA07FD2E37088039003A87
:100E40000319D92E803A0319FB2E262F38083904AE
:100E50000319322F370803390319322FFF30B8072F
:100E6000FF30B93D3A08AA00AB01AA1BAB032B081F
:100E7000803AAC003908803A2C02031D412F380813
:100E80002A0203184E2F20003A08AA00AB01AA1B21
:100E9000AB032A08B8022B08B93B512F2000B80138
:100EA000B901371D6A2F3708033903195B2F2D301D
:100EB0008C31192485312000380839040319832F17
:100EC00030308C3119248531FF302000B807FF30D5
:100ED000B93D5C2F3808390403197B2F20308C3141
:100EE00019248531FF302000B807FF30B93D38089C
:100EF0003904031D6E2F370803390319832F2D3052
:100F00008C311924853120003A08AA002A08AF0044
:100F1000DB2F0A30F8000030F9002F08AA00AB01DF
:100F2000AA35AB0DEB302A07840093302B3D8500AA
:100F3000003FF000013FF1003608F3003508F200F1
:100F40008D31902585317108FB007008FA008D31D4
:100F5000042585317808303E2000AC002C08D62FBF
:100F60002F08AA00AB01AA35AB0DF5302A07840083
:100F700093302B3D8500003FF000013FF100360823
:100F8000F3003508F2008D319025853170080F3956
:100F90002000AC002C08AE002E08A13E8400923048
:100FA0000318013E85000008AA002A08BA003A0882
:100FB0008C3119248531FF302000AA002A08AF07A0
:100FC0002F0A0319B82D37088039003A0319892FE1
:100FD000803A0319B02FD72FD72F08006230840032
:100FE0000030850007308C311E248731B3308400F7
:100FF0000030850010308C311E2420008331C32B3B
:10183200F10071088C31322408006400800101310A
:10184200890B1F2C0034603021009900980122007E
:101852009601080040302400940020309500920147
:101862000800F0002000111E332C700823009A009B
:101872000800F0002400951370089100141C3F2CFE
:10188200110808002000911E432C23009D1C4B2CA4
:101892001D121D1619080800083023009F00903001
:1018A2009D0024309E0033309B009C010800F20012
:1018B2007208F10071082000E2007008F10071085E
:1018C200E3000800F100F0013A30710203186F2CB6
:1018D20030307102031C6F2CF001F00A700C08000A
:1018E2008C3195248C318C3124248C31803104202C
:1018F2008C318C312B248C318C314D240800FD002D
:1019020022000C127808F9007908F1007D08FA002B
:101912007A08F2007D088D31C425FB007B08FC00AB
:1019220022000C167C080800103022008C008E0168
:101932002F3021008C0032308E0023008E010730C0
:101942008C0024008C0130308E002100951322007F
:101952009E019D0108002000A1000330A000200884
:101962002100B30020002108A00020082100B400BB
:10197200B50103302000A0002008F800B3308C31FC
:101982008024210035080800F401F501701CCD2CDB
:101992007208F4077308F53D0130F235F30D890B37
:1019A200CE2C0130F136F00C890BD32C7008710467
:1019B200031DC72C7508F1007408F00008007108B7
:1019C200F3007008F200F336F20CF336F20CF33641
:1019D200F20C7208F4007408F5007008F20004308A
:1019E200F235FF3E031DF12C7235E039F300730826
:1019F200F6007508F20072082000E4007608F20092
:101A02007208E50008007808790403192B2DFD01FE
:101A1200FD0AF91B162D0130F835F90D890B0D2D34
:101A22000130FC007C08FD070A2D79087B02031DAA
:101A32001C2D78087A02031C222D7808FA027908F4
:101A4200FB3B0130F936F80C890B232D0130FD02E6
:101A5200031D162D7B08F9007A08F8000800803073
:101A62008E3168268D3105302000BF003F082100ED
:101A7200B3000F302000BF003F082100B400103037
:101A82002000BF003F082100B50010302000BF0039
:101A92003F082100B60004302000BF003F08F800D4
:101AA200B3308C3180248D312000C0004008C10049
:101AB20068088E31682608002000C10080308E310F
:101AC20068268D313F302000BF003F08C20005303C
:101AD200BF003F082100B3002A302000BF003F08AA
:101AE2002100B40020004208BF003F082100B500D9
:101AF20020004108BF003F082100B600043020004A
:101B0200BF003F08F800B3308C3180248D312000B3
:101B1200C0004008C30068088E3168260800F5013D
:101B2200F601700871040319BF2DF701F70AF11BC2
:101B3200A42D0130F035F10D890B9B2D0130F400FD
:101B42007408F707982D0130F535F60D890BA52D90
:101B520071087302031DAF2D70087202031CB62DAB
:101B62007008F2027108F33B75140130F136F00C83
:101B7200890BB72D0130F702031DA42D7608F10061
:101B82007508F0000800F600F70171080319102E1D
:101B92007608031DF22DF72D7208031DDB2D770841
:101BA2007607F30073088600870101088C313A2416
:101BB2008D31EE2D77087607F300730886008701D2
:101BC20001088C313A248D31F40077087207F50050
:101BD200750886008701740881000130F3007308DC
:101BE200F707710877020318102ECD2D7208031D16
:101BF2000C2E102E00308C313A248D31F3007708F0
:101C02007207F400740886008701730881000130AE
:101C1200F3007308F70771087702031CFB2D77089E
:101C22000800A0302000DC005C082100B300B401F1
:101C320002302000DC005C08F800B3308C318024D4
:101C42008E312000DD005D08DE0021003408200016
:101C5200DC005C08DF005F08031D312E0130080044
:101C6200DF1C422E620803193D2EBA30A2009330C7
:101C7200A3008531B3258E3101308031B6208E31FB
:101C8200612E5F1C532E620803194E2EAD30A20046
:101C92009330A3008531B3258E3100308031B620D8
:101CA2008E31612EDF1D572E00305E2EDF1E5B2E21
:101CB20001305E2EDF1F612E0230803108208E310E
:101CC20020005F1E662E0030080001300800200050
:101CD200BE000230BB003B082100B3000F302000E1
:101CE200BB003B082100B40020003E08BB003B08BB
:101CF2002100B50003302000BB003B08F800B330E0
:101D02008C3180248E312000BC003C08BD00803024
:101D12003E060319902E3E08BB003B08E800033044
:101D22003D06031D08000330BB003B082100B30041
:101D32000E302000BB003B082100B400033020001D
:101D4200BB003B08F800B3308C3180248E31200078
:101D5200BC003C08BD006208031908007430A200F0
:101D62009330A300210035082000BB00BC013B08D2
:101D7200A4003C08A5008531B325080020006608B0
:101D82000319D52E0430A2009430A3003B08BE00F4
:101D9200BF013E08A4003F08A5003C08A600003091
:101DA200A7008531B32508002000670803190E2F0C
:101DB2001130A2009430A3003B08BE00BF013E08D0
:101DC200A4003F08A5008531B3258E312000C10152
:101DD2003D0841020318072F1730A2009430A300D8
:101DE20041083C07BE003E08860087010108BF008B
:101DF200C0013F08A4004008A5008531B3258E31FB
:101E020001302000BE003E08C107E92E2030A200AA
:101E12009430A3008531B32508009D302000A20034
:101E22009230A3003C08A4000030A5008531B32500
:101E32000800FD007D088600870120300106031D91
:101E4200272F0130F8007808FD071B2F7D08860038
:101E52008701093001060319222FFB01FC01FA0157
:101E62007D08860087012D300106031D3D2F0130BC
:101E7200F8007808FA07442F7D08860087012B3086
:101E82000106031D482F0130F8007808FD077D0880
:101E92008600870101088C3163248F31031C6D2F6A
:101EA2007C08F1007B08F0000A30F2000030F300F9
:101EB2008C31C5248F317D088600870101087007A7
:101EC200F80071080318710AF9007808D03EFB0087
:101ED200FF30793DFC00442F7A0803197C2F7B09DF
:101EE200F8007C09F900F80A0319F90A7808F600E3
:101EF2007908F70008007C08F7007B08F600080064
:101F02000030F000F1008C31E0248F3120004008D5
:101F1200EA003F08E90080308E3168268F31C030F8
:101F22002000C10041082100B300F801F80AB330D3
:101F32008C3180248F3102302000C1004108210001
:101F4200B30028302000C10041082100B400053050
:101F52002000C10041082100B500F1302000C1007D
:101F620041082100B70041302000C1004108210092
:101F7200B80005302000C1004108F800B3308C31B0
:101F820080248F3102302000C10041082100B300BB
:101F920060302000C10041082100B400243020003C
:101FA200C10041082100B50003302000C1004108F2
:101FB200F800B3308C3180248F3102302000C10010
:101FC20041082100B30070302000C1004108210007
:101FD200B40020302000C10041082100B5000330C8
:101FE2002000C1004108F800B3308C3180248F31C9
:101FF2002000E201E30100308E31682608005B34E4
:1020020053346534743420346F347534743470341A
:102012007534743420346D346F34643465345D3413
:1020220020347B34643465346234753467343A3432
:1020320020344034763464342C342034763465349D
:10204200723462346F34733465343A342034403439
:10205200763476342C3420346E346F3472346D34EA
:1020620061346C343A342034403476346E347D3406
:102072000A3400342034203420342034203477349D
:1020820069347434683420345334493444343A342F
:10209200203440346F346C34733420346F347234EF
:1020A200203440346F346E3473342C342034693429
:1020B2006E342034683465347834203466346F34B6
:1020C20072346D34613474343A34203440346F34B1
:1020D2006C34683420346F347234203440346F34BA
:1020E2006E3468340A3400345B34533465346E34ED
:1020F200643420346D34653473347334613467343A
:102102006534203462346534673469346E346E3435
:1021120069346E3467342034773469347434683403
:102122002034273440342734203463346834613413
:102132007234613463347434653472345D342034FF
:1021420040343C3440346D34653473347334613418
:10215200673465343E340A3400345B3445346E34BB
:10216200613462346C34653420346F3470346534D5
:1021720072346134743469346F346E3420346D34A3
:102182006F34643465345D3420347B346C346F34A2
:102192006F3470346234613463346B343A342034D3
:1021A20040346F346C342C3420346E346F347234D7
:1021B2006D3461346C343A34203440346F346E34CC
:1021C2007D340A3400345B3453346534743420343F
:1021D2007334743461346E3464346134723464340C
:1021E20020346934643465346E347434693466344A
:1021F2006934653472345D342034403469343C349B
:102202007334743461346E346434613472346434DB
:1022120020346934643465346E3474346934663419
:102222006934653472343E340A3400345B345234D7
:1022320065346334653469347634653420346D34FE
:102242006534733473346134673465345D342034F7
:102252003C346D34653473347334613467346534BB
:102262003E342034773469346C346C342034623434
:10227200653420346F347534743470347534743486
:102282000A3400345B345334653474342034663495
:1022920069346C347434653472345D3420344034BF
:1022A20066343C346E343E343C34663469346C34C7
:1022B20074346534723428345334493444343134F8
:1022C200303420347E34203453344934443430346E
:1022D20029343E340A3400345B3453346534743464
:1022E20020346D34613473346B345D3420344034C3
:1022F2006D343C346E343E343C346D34613473346A
:102302006B34283453344934443431343034203437
:102312007E342034533449344434303429343E3406
:102322000A3400345B34413462346F3472347434AE
:10233200203461346C346C342034703465346E343F
:10234200643469346E3467342034743472346134E2
:102352006E3473346D3469347334733469346F3466
:102362006E3473345D342034403461340A340034C2
:102372002F342F342F3420345534413452345434D2
:102382003234433441344E342034483445344C34AE
:1023920050342034283476346534723473346934DA
:1023A2006F346E34203425347334293420342F347E
:1023B2002F342F340A3400345B34533465346E3492
:1023C200643420346D346534733473346134673467
:1023D20065345D3420343C346D3465347334733485
:1023E2006134673465343E340A3400345B34533428
:1023F2006534743420346234613475346434203486
:1024020072346134743465345D342034403462345F
:102412003C346234703472343E340A3400346634EC
:1024220069346C3474346534723428342534643439
:1024320029343A3420342534303432347834203458
:1024420025343034323478340A3400345B34533433
:1024520068346F34773420347434683469347334B4
:102462002034683465346C3470345D343A3420344A
:10247200403468340A3400346D34613473346B345C
:1024820028342534643429343A3420342534303421
:1024920032347834203425343034323478340A34C7
:1024A20000345B34443475346D3470342034723407
:1024B2006534673469347334743465347234733414
:1024C2005D342034403464340A34003443346F348D
:1024D2007034793469346E3467342034623475343C
:1024E20066346634653472343A34203425346334C5
:1024F2000A34003430342E343134203420344D3414
:1025020061347234633468342034313437342C34D7
:102512002034323430343134383400344D3465347C
:1025220073347334613467346534203473346534FE
:102532006E3474343A342034253473340A3400341B
:10254200303431343234333434343534363437344D
:102552003834393461346234633464346534663413
:1025620000345234583442342534643453344934B8
:10257200443448343A3420342534303432347834D4
:102582000A340034543458344234253464345334D5
:102592004934443448343A342034253430343234E3
:1025A20078340A3400345234583442342534643492
:1025B2005334493444344C343A342034253430349E
:1025C200323478340A3400345434583442342534A2
:1025D20064345334493444344C343A34203425344A
:1025E2003034323478340A34003452345834423479
:1025F2002534643444344C3443343A34203425345E
:102602003034323478340A34003452345834423458
:1026120030344334543452344C343A342034253434
:102622003034323478340A34003454345834423436
:1026320030344334543452344C343A342034253414
:102642003034323478340A34003452345834423418
:1026520031344334543452344C343A3420342534F3
:102662003034323478340A340034543458344234F6
:1026720031344334543452344C343A3420342534D3
:102682003034323478340A340034543458344234D6
:1026920032344334543452344C343A3420342534B2
:1026A2003034323478340A340034523458344234B8
:1026B20025346434443430343A34203425343034CC
:1026C200323478340A340034433441344E3443349F
:1026D200543452344C343A34203425343034323485
:1026E20078340A340034433441344E34533454344D
:1026F200413454343A34203425343034323478344A
:102702000A34003454345834423430342034693476
:1027120073342034693464346C3465340A340034DC
:1027220054345834423431342034693473342034CC
:10273200693464346C3465340A34003454345834A3
:10274200423432342034693473342034693464348A
:102752006C3465340A3400345234583430344934D9
:10276200463420346934733420346F346E340A347E
:1027720000345234583431344934463420346934C4
:10278200733420346F346E340A34003443344E349C
:10279200463431343A3420342534303432347834C7
:1027A2000A34003443344E34463432343A3420341A
:1027B20025343034323478340A34003443344E34DD
:1027C200463433343A342034253430343234783495
:1027D2000A340034013400340A34003464340034DE
:1027E200E834033410342734013400341034003414
:1027F200003401340034103428346E3475346C34AF
:102802006C3429340034253464342C342534733444
:102812000A340034003404340834103414341834C4
:1028220025343034323478343A3400342034253488
:1028320030343234783400342D342D342D340A348B
:1028420000343134413451340034023404342534F8
:0E28520063340034003402342034243407345C
:020000040001F9
:04000E00E4FFFFFE0E
:00000001FF
