:08000000803102288731F02F46
:10000C0080308C31ED2480318A31FB22803120000C
:10001C00C7004708C8006F088C31ED240800F501B3
:10002C00F6017008710403194428F701F70AF11B53
:10003C0029280130F035F10D890B20280130F4000E
:10004C007408F7071D280130F535F60D890B2A28A1
:10005C0071087302031D342870087202031C3B28BC
:10006C007008F2027108F33B75140130F136F00C94
:10007C00890B3C280130F702031D29287608F10072
:10008C007508F0000800DC302000A2009430A300BA
:10009C008531A52580312000D10102305102031891
:1000AC00B0285135AC3E86008701403FCF00413F20
:1000BC00D0005008C4004F08C300C436C30CC4366B
:1000CC00C30CC436C30C4308C5004508CD004F080B
:1000DC000739C3000430C335FF3E031D7128433577
:1000EC00C4004408CE007030A2009130A300510827
:1000FC00C300C4014308A4004408A5005108C5006E
:10010C00C6014508A6004608A7005108C700C8014B
:10011C004708A8004808A9005008AB004F08AA00DF
:10012C004D08C900CA014908AC004A08AD004E0888
:10013C00CB00CC014B08AE004C08AF008531A52597
:10014C00803101302000C3004308D1070230510236
:10015C00031C5728D1010630510203180E295135C2
:10016C00A03E86008701403FCF00413FD0005008A1
:10017C00C4004F08C300C436C30CC436C30CC43609
:10018C00C30C4308C5004508CD004F080739C30010
:10019C000430C335FF3E031DCF284335C40044084B
:1001AC00CE004430A2009130A3005108C300C4011A
:1001BC004308A4004408A5005108C500C601450821
:1001CC00A6004608A7005108C700C8014708A800A8
:1001DC004808A9005008AB004F08AA004D08C900F8
:1001EC00CA014908AC004A08AD004E08CB00CC014E
:1001FC004B08AE004C08AF008531A525803101308D
:10020C002000C3004308D10706305102031CB52857
:10021C00DC30A2009430A3008531A5250800DC3029
:10022C002000A2009430A3008531A52581316B30CC
:10023C002000A2009330A300210032082000C3004C
:10024C00C4014308A4004408A5008531A5258131CB
:10025C008D302000A2009330A30021003308200031
:10026C00C300C4014308A4004408A5008531A5259A
:10027C008131DF302000A2009430A3008531A52508
:10028C0081317B302000A2009430A3002A308A31C7
:10029C00862281312000C300C4014308A400440815
:1002AC00A5008531A525813187302000A20094302E
:1002BC00A30029308A31862281312000C300C40179
:1002CC004308A4004408A5008531A525813193304D
:1002DC002000A2009430A30028308A31862281317C
:1002EC002000C300C4014308A4004408A5008531C4
:1002FC00A5258131DF302000A2009430A300853188
:10030C00A5258131CA302000A2009330A3003030E3
:10031C008A31862281312000C300C4014308A40025
:10032C004408A5008531A5258131EA302000A200C2
:10033C009330A30040308A31862281312000C300E3
:10034C00C4014308A4004408A5008531A5258131CA
:10035C00FA302000A2009330A30050308A3186225C
:10036C0081312000C300C4014308A4004408A50047
:10037C008531A5258131DF302000A2009430A30007
:10038C008531A5258131BA302000A2009330A3001D
:10039C0060308A31862281312000C300C4014308B9
:1003AC00A4004408A5008531A5258131DA30200050
:1003BC00A2009330A30070308A3186228131200054
:1003CC00C300C4014308A4004408A5008531A52539
:1003DC008131DF302000A2009430A3008531A525A7
:1003EC00813119302000A2009430A3000F308A31E3
:1003FC00862281312000C300C4014308A4004408B4
:10040C00A5008531A525813128302000A20094302B
:10041C00A3000E308A31862281312000C300C40132
:10042C004308A4004408A5008531A5258131DC30A2
:10043C002000A2009430A3008531A52508002000DF
:10044C00CB00CD01A030C40044082100B400B5019C
:10045C0002302000C4004408F800B4308A315A221B
:10046C0082312000C5004508C90021003508200054
:10047C00C4004408CA004A1B532A6B0803194D2AAE
:10048C005330A2009430A3008531A525823102306F
:10049C002000C4004408CD00712A4A1A632A6B0854
:1004AC0003195F2A4530A2009430A3008531A5259D
:1004BC0082312000CD01CD0A712A4A19712A6B08AC
:1004CC0003196F2A3730A2009430A3008531A5257B
:1004DC0082312000CD014D08E43E84009430031895
:1004EC00013E85000008403EC40044082100B400D1
:1004FC0032082000C40044082100B5003308200055
:10050C00C40044082100B600B701B801200043081C
:10051C00C40044082100B9002000CC0143084C025F
:10052C000318C42A4C084B07C400440886008701F2
:10053C000108C5004C08063EB43E860087014508FC
:10054C0081006B080319BE2A1E30A2009330A30051
:10055C004C084B07C4004408860087010108C500FD
:10056C00C6014508A4004608A5008531A5258231A1
:10057C0001302000C4004408CC07942A4308063EEE
:10058C00C4004408C8004808C4004408F800B4304B
:10059C008A315A2282312000C5004508C900033037
:1005AC00C40044082100B40020004D08E13E840042
:1005BC0094300318013E85000008C4004408210053
:1005CC00B500B60103302000C4004408F800B43074
:1005DC008A315A22823120006B0803190C2B773098
:1005EC00A2009330A3004D08C400C5014408A40028
:1005FC004508A500210036082000C600C7014608A2
:10060C00A6004708A7008531A525823103302000BC
:10061C00C40044082100B40020004D08E13E8400D1
:10062C0094300318013E85000008013EC4004408C4
:10063C002100B500B60103302000C4004408F800C6
:10064C00B4308A315A22823120006B080319452BB1
:10065C009930A2009330A3004D08C400C501440892
:10066C00A4004508A500210036082000C600C701DB
:10067C004608A6004708A7008531A5258231200031
:10068C0049084806031D08000130C4004D0A4F2BD1
:10069C00C435890B4E2B4408803EC500450821000B
:1006AC00B400F801F80AB4308A315A2282312000A1
:1006BC00C4004408C9004903031D08006B08031952
:1006CC0008003230A2009330A3004B08A400003085
:1006DC00A5008531A525080022008E152100D90121
:1006EC0000308A31312283312000E9006908210071
:1006FC00DE008A314B2283312000ED01EE01AB305C
:10070C00C7000D30C8008E311B2683312100DD015E
:10071C008C31972483312000E90069082100C60040
:10072C00460803199C2B22008E119E2B22008E153D
:10073C002000911E8E2B8A31112283312000E9007A
:10074C0069082100DB0059080319BD2BE730200094
:10075C00A2009430A30021005B082000E900EA010C
:10076C006908A4006A08A5008531A52583312100FC
:10077C005B082000E90021005D08C73E8600870168
:10078C002000690881000A3021005B06031D892DB9
:10079C005D08C73E8600870181015E03031DDF2BC8
:1007AC0074304706031DDF2BC8308B314723833150
:1007BC008C2B403021004706031D7F2D480820005C
:1007CC00E90069082100DC00572D73304906031D30
:1007DC00F22BDE01DE0AF82B653021004906031DE1
:1007EC00012CDE015E082000E9006908F0000030F1
:1007FC008A31BA228331C9308D3144258331760850
:10080C002000E90069082100C40044082000E90028
:10081C00EA016908F0006A08F1008A31D7228331B5
:10082C008C2B643021004906031D202CF001F00AAA
:10083C000130272C76304906031D2E2CF001F00ACE
:10084C0000308A31262283312100D901D90A8C2B20
:10085C006E304906031D8C2BF00100308A312622A4
:10086C0083312100D9018C2B6C304906031D402C9F
:10087C004030462C6E3021004906031D492C0030B7
:10088C008C31ED24833121004A08031D502C2000AB
:10089C00ED015B2C733021004A06031D5D2C4B08C7
:1008AC00031D5D2C2000ED01ED0AEE018C2B683050
:1008BC0021004A06031D8C2B4B08031D8C2B20009A
:1008CC00ED01EE01EE0A8C2B803106208331C9300C
:1008DC008D314425833176082000E9006908210018
:1008EC00C50045088B31C92383318C2B2100490865
:1008FC00D03E2000E90069082100DA00CA308D31B1
:10090C004425833177082100D8007608D7006D3054
:10091C005C06031DA32C5A082000E9006908C700D7
:10092C00210058082000C900210057082000C800E9
:10093C0000308E31A62683318C2B663021005C066C
:10094C00031D8C2B5A082000E9006908C700210000
:10095C0058082000C900210057082000C8000130A9
:10096C008E31A62683318C2B8031062083318C2B43
:10097C008031492083318C2B8131152183318C2B93
:10098C0021005D08FF3E2000E9006908C300C83063
:10099C008231252283318C2B3E302000A2009230F4
:1009AC00A3000930A4009330A5008531A52583311F
:1009BC0017302000A2009130A3008531A52583318A
:1009CC00E4302000A2009030A3008531A5258331AE
:1009DC0000302000A2009030A3008531A525833182
:1009EC00AE302000A2009030A3008531A5258331C4
:1009FC003B302000A2009030A3008531A525833127
:100A0C00F2302000A2009130A3008531A52583315E
:100A1C00C8302000A2009130A3008531A525833178
:100A2C0099302000A2009230A3008531A525833196
:100A3C0018302000A2009230A3008531A525833107
:100A4C0062302000A2009230A3008531A5258331AD
:100A5C00F4302000A2009230A3008531A52583310B
:100A6C007F302000A2009230A3008531A525833170
:100A7C0075302000A2009030A3008531A52583316C
:100A8C009C302000A2009130A3008531A525833134
:100A9C00C9302000A2009230A3008531A5258331F6
:100AAC008C2B21005C08403A0319C62C063A03191A
:100ABC00BE2C0B3A0319EB2B2C3A0319BA2C033A24
:100ACC0003196A2C063A0319C22C023A03197C2C1E
:100ADC000E3A0319D22C013A0319012C043A0319CA
:100AEC007C2C023A03193A2C193A0319172C882D2D
:100AFC008C2B5D082000E9006908C300C7308231E7
:100B0C00252283318C2B01302000E900690821005B
:100B1C00DD0708305D02031C8E2B5E08031D8E2B37
:100B2C005D08C73E8600870181015D082000E90051
:100B3C006908C300C7308231252283318C2B2430C5
:100B4C002000B0003008BC0020002308B1002208AF
:100B5C00B000A20A0319A30A3008840031088500EA
:100B6C000008B2003208C200420803190800253000
:100B7C0042060319C62D42088931E7218531AA2D79
:100B8C002000C001C101BF01D02D3F150130A207CB
:100B9C000030A33D22088400230885000008303A69
:100BAC000319CB2DD92D22088400230885000008B9
:100BBC008A313D228531031C852E2000C001C101E4
:100BCC000A30F0000030F10020004108F30040082A
:100BDC00F2008A319F22853171082000C100700813
:100BEC00C00022088400230885000008D03EB00015
:100BFC00FF3003180030B1003008C0073108C13D88
:100C0C000130A2070030A33D220884002308850090
:100C1C0000088A313D228531031C852EE62DBF1636
:100C2C00BF17A92E3C0886008701403FB800413F02
:100C3C00B9000230B0003008BC0738083904031D75
:100C4C002B2EBC30B8009430B900BA01BB01380867
:100C5C003A07840039083B3D8500120003193B2EEE
:100C6C000130BA070030BB3D2D2E41083B02031D5D
:100C7C00412E40083A020318482E3A08C0023B089D
:100C8C00C13B4A2EC001C101FF302000C007FF301C
:100C9C00C13D400A0319410A0319662E20308931DF
:100CAC00E72185314A2E3808840039088500000870
:100CBC008931E721853101302000B8070030B93D7A
:100CCC000130BA020030BB3B3A0A031D592E3B0AD5
:100CDC000319AA2D592E3C08860087010108B00083
:100CEC003008C2000230B0003008BC074230B800F7
:100CFC000030B9000130BA000030BB003B2E2000A0
:100D0C002308B1002208B000A20A0319A30A300874
:100D1C008400310885000008C200003A0319EF2F47
:100D2C00583A0319152E3B3A0319712E073A031939
:100D3C00A92E0D3A0319A92E1A3A0319182E0B3A9B
:100D4C000319162E7C2E2000BF1BC32E3C088600D8
:100D5C008701403FBD00413FBE000230B00030086B
:100D6C00BC07BE1F132F0330B0003008BF04BD09F1
:100D7C00BE09BD0A0319BE0A132F3C088600870161
:100D8C00403FBD00413FBE000230B0003008BC0700
:100D9C00132FC201C20A0530420603191C2F420848
:100DAC00B000B101B035B10DAA30300784009430D9
:100DBC00313D8500003FB200013FB30033083E02D5
:100DCC00031DEA2E32083D02031C1C2F0130B0001B
:100DDC003008C207D12EC201C20A043042060319E0
:100DEC001C2F4208B000B101B035B10DB430300742
:100DFC0084009430313D8500003FB200013FB300C8
:100E0C0033083E02031D0C2F32083D02031C1C2F1D
:100E1C000130B0003008C207F32E3F088039003A89
:100E2C000319CF2E803A0319F12E1C2F40084104D0
:100E3C000319282F3F0803390319282FFF30C00747
:100E4C00FF30C13D4208B000B101B01BB103310805
:100E5C00803AB2004108803A3202031D372F400815
:100E6C0030020318442F20004208B000B101B01B1F
:100E7C00B1033008C0023108C13B472F2000C0012C
:100E8C00C1013F1D602F3F0803390319512F2D302D
:100E9C008931E72185312000400841040319792F5D
:100EAC0030308931E7218531FF302000C007FF3019
:100EBC00C13D522F400841040319712F2030893154
:100ECC00E7218531FF302000C007FF30C13D4008CD
:100EDC004104031D642F3F0803390319792F2D306A
:100EEC008931E721853120004208B0003008B70075
:100EFC00DD2F0A30F8000030F9003708B000B101DE
:100F0C00B035B10DAA30300784009430313D8500E6
:100F1C00003FF000013FF1003E08F3003D08F200F5
:100F2C008031152085317108FB007008FA008B3177
:100F3C006F2385317808303E2000D62F3708B0005B
:100F4C00B101B035B10DB430300784009430313D6F
:100F5C008500003FF000013FF1003E08F3003D0822
:100F6C00F20080311520853170080F392000B20055
:100F7C003208B600BF1AC62F5530B4009330C92FB3
:100F8C004430B4009330B5003508B1003408B000DB
:100F9C0036083007840031080318310A8500000830
:100FAC00B2003208C20042088931E7218531FF3096
:100FBC002000B0003008B707370A0319AA2D3F08E4
:100FCC008039003A03197F2F803A0319A42FD92FA7
:100FDC00D92F08002000EB01EC01ED01EE01EF012F
:100FEC00A03084000030850024308931EC212000B1
:040FFC008331722BA0
:1013C6001630210097000800F10071088A310022CA
:1013D6000800640080010131890BED29003460307A
:1013E600210099009801220096010800403024004F
:1013F60094002030950092010800F0002000111E94
:10140600012A700823009A000800F00024009513B2
:1014160070089100141C0D2A110808002000911E66
:10142600112A23009D1C192A1D121D1619080800D1
:10143600083023009F0090309D0024309E003330FA
:101446009B009C010800F2007208F1007108200060
:10145600EB007008F1007108EC000800F00070085D
:1014660023009100151395131514000000002300A6
:1014760013080800F100F0013A3071020318492AF6
:1014860030307102031C492AF001F00A700C080082
:101496008A316F228A318931F2218A318931E321F9
:1014A6008A318931F9218A318A311B220800FD00EF
:1014B60022000C127808F9007908F1007D08FA007C
:1014C6007A08F2007D088C314924FB007B08FC0079
:1014D60022000C167C080800103022008C008E01B9
:1014E6002F3021008C0032308E0023008E01073011
:1014F6008C0024008C0130308E00210095132200D0
:101506009E019D0108002000A1000330A0002008D4
:101516002100B40020002108A00020082100B50009
:10152600B60103302000A0002008F800B4308A314C
:101536005A22210036080800F401F501701CA72A7A
:101546007208F4077308F53D0130F235F30D890B87
:10155600A82A0130F136F00C890BAD2A7008710407
:10156600031DA12A7508F1007408F0000800F100B7
:10157600F20171082300910070089300951315136A
:10158600151500308B1B0130F2008B135530960079
:10159600AA30960095149518CE2A1511720C031CC4
:1015A6008B1303188B1708007108F3007008F200FC
:1015B600F336F20CF336F20CF336F20C7208F40042
:1015C6007408F5007008F2000430F235FF3E031D82
:1015D600E82A7235E039F3007308F6007508F20060
:1015E60072082100B2007608F2007208B300080003
:1015F60005302000A00020082100B4000F30200094
:10160600A00020082100B50010302000A00020080E
:101616002100B60010302000A00020082100B700ED
:1016260004302000A0002008F800B4308A315A2285
:101636002000A1002108A20022080800F200F10102
:1016460030307202031C2D2B3A30720203182D2BF8
:101656003030402B41307202031C372B4730720268
:101666000318372B3730402B61307202031C432B93
:10167600673072020318432B5730F0007008F100F0
:101686007103FF3A720708002000D20052088B311E
:10169600FC238B3174082000D0007308CF0050085B
:1016A600F1004F08F0008A31D7228B312000520812
:1016B600033E8600870101088B3121238B312000F0
:1016C600CE004E08D1005108CE004E08C300520885
:1016D600043E823125220800780879040319962BE6
:1016E600FD01FD0AF91B812B0130F835F90D890B37
:1016F600782B0130FC007C08FD07752B79087B02EE
:10170600031D872B78087A02031C8D2B7808FA02B2
:101716007908FB3B0130F936F80C890B8E2B01302A
:10172600FD02031D812B7B08F9007A08F8000800EA
:101736002000A4000130A0002408023E890AA42B40
:10174600A035890BA32B2008A1002108A200053093
:10175600A00020082100B4002C302000A0002008A2
:101766002100B50020002208A00020082100B600B4
:10177600B70104302000A0002008F800B4308A31F8
:101786005A222000A1002108A30008002000C90059
:1017960080308C31ED248B313F302000C700470864
:1017A600CA000530C70047082100B4002A302000CF
:1017B600C70047082100B50020004A08C7004708AF
:1017C6002100B60020004908C70047082100B700DD
:1017D60004302000C7004708F800B4308A315A2286
:1017E6008B312000C8004808CB006F088C31ED24EF
:1017F60008002000A80028088600870101088B3110
:1018060021238B31F500F60175082000A00076082B
:10181600A100280A8600870101088B3121238B311C
:10182600F500F60175082000A2007608A300280836
:10183600023E8600870101088B312123F500F6015F
:1018460075082000A4007608A5002308F6002208E3
:10185600F500F50EF60EF030F60575080F39F604AC
:10186600F030F5052008F800F70175087707F9004C
:101876007608783DFA0024087907A60025087A3DFF
:10188600A7002708F4002608F3000800F600F70171
:1018960071080319952C7608031D772C7C2C720889
:1018A600031D602C77087607F3007308860087010E
:1018B60001088A3108228C31732C77087607F300E9
:1018C60073088600870101088A3108228C31F400EA
:1018D60077087207F500750886008701740881008D
:1018E6000130F3007308F707710877020318952C87
:1018F600522C7208031D912C952C00308A31082237
:101906008C31F30077087207F400740886008701AB
:10191600730881000130F3007308F7077108770236
:10192600031C802C77080800A0302000E50065081D
:101936002100B400B50102302000E5006508F8007A
:10194600B4308A315A228C312000E6006608E7005E
:10195600210035082000E5006508E8006808031D39
:10196600B62C01300800E81CC72C6B080319C22CE2
:101976006E30A2009430A3008531A5258C3101304C
:101986008F314B278C31E62C681CD82C6B08031939
:10199600D32C6130A2009430A3008531A5258C316B
:1019A60000308F314B278C31E62CE81DDC2C0030C3
:1019B600E32CE81EE02C0130E32CE81FE62C023075
:1019C6008B319B238C312000681EEB2C00300800E5
:1019D600013008002000C6000230C3004308210081
:1019E600B4000F302000C30043082100B5002000DA
:1019F6004608C30043082100B60003302000C30098
:101A06004308F800B4308A315A228C312000C400D1
:101A16004408C500803046060319152D4608C30044
:101A26004308EF0003304506031D08000330C300DA
:101A360043082100B4000E302000C30043082100F3
:101A4600B50003302000C3004308F800B4308A31E3
:101A56005A228C312000C4004408C5006B080319C3
:101A660008002830A2009430A30021003608200088
:101A7600C300C4014308A4004408A5008531A52578
:101A86000800FD007D088600870120300106031D41
:101A9600512D0130F8007808FD07452D7D08860098
:101AA60087010930010603194C2DFB01FC01FA01DF
:101AB6007D08860087012D300106031D672D013044
:101AC600F8007808FA076E2D7D08860087012B300E
:101AD6000106031D722D0130F8007808FD077D0808
:101AE6008600870101088A313D228D31031C972D1E
:101AF6007C08F1007B08F0000A30F2000030F300A9
:101B06008A319F228D317D08860087010108700782
:101B1600F80071080318710AF9007808D03EFB0036
:101B2600FF30793DFC006E2D7A080319A62D7B093E
:101B3600F8007C09F900F80A0319F90A7808F60092
:101B46007908F70008007C08F7007B08F600080013
:101B560021005E03031DC62D9F302000A200943095
:101B6600A3004408A5004308A4004608C700C8010E
:101B76004708A6004808A7004508A8000030A900A5
:101B86008531A525080020006D080319D92DC3301D
:101B9600A2009430A3004408A5004308A400450809
:101BA600A6000030A7008531A525080020006E0894
:101BB60003190F2ED030A2009430A3004408A500CC
:101BC6004308A4008531A5258D312000CA014608A9
:101BD6004A020318082ED630A2009430A3004A0801
:101BE6004507C7004708860087010108C800C901E4
:101BF6004808A4004908A5008531A5258D31013086
:101C06002000C7004708CA07EA2DDF30A20094303B
:101C1600A3008531A525080040302000A20093309E
:101C2600A3004508A4000030A5008531A5250800BD
:101C360041302000C900EE30890B1F2EC90B1F2E24
:101C460000000030F000F1008A31D7228E312000EA
:101C560048082100B100200047082100B000C0302C
:101C66002000C90049082100B400F801F80AB43080
:101C76008A315A228E310830890B3F2E00000230FD
:101C86002000C90049082100B40028302000C900FE
:101C960049082100B50005302000C9004908210087
:101CA600B600F1302000C90049082100B7004130D4
:101CB6002000C90049082100B80005302000C900ED
:101CC6004908F800B4308A315A228E310230200099
:101CD600C90049082100B40060302000C900490845
:101CE6002100B50024302000C90049082100B600B3
:101CF60003302000C9004908F800B4308A315A225E
:101D06008E3102302000C90049082100B40070302D
:101D16002000C90049082100B50020302000C90074
:101D260049082100B60003302000C9004908F80020
:101D3600B4308A315A228E312000EB01EC0100309A
:101D46008C31ED2408002000D20080308C31ED2447
:101D56008E318A31FB228E31083020004902003054
:101D660003194802031CBB2EFF30C8000730C90008
:101D76004908CB004808CA00CB36CA0CCB36CA0C79
:101D8600CB36CA0C4A08CC004C08D30048080739A1
:101D9600CA000430CA35FF3E031DCD2E4A35CB009E
:101DA6004B08D4005208031DE72E4735AC3E86008B
:101DB60087014808C03F4908C13F6B0803190F2F28
:101DC600DF30A2009230F62E20004735A03E860076
:101DD60087014808C03F4908C13F6B0803190F2F08
:101DE600B230A2009230A3004708CA00CB014A08CD
:101DF600A4004B08A5005308CC00CD014C08A60052
:101E06004D08A7005408CE00CF014E08A8004F0881
:101E1600A9008531A5258E3102302000CA004A0866
:101E26002100B4002000520803191E2F4708CA3E9D
:101E360084009430222F4708EC3E84009430031827
:101E4600013E85000008CA00CB014A08D0004B08B5
:101E5600D1005008CA004A082100B50020005308E6
:101E6600CA004A082100B60020005408CA004A08E1
:101E76002100B70004302000CA004A08F800B43038
:101E86008A315A228E3120006F088C31ED240800E9
:101E96002000E4006408EA3E840094300318013E02
:101EA600850000080907903ECB004B08D1000E3094
:101EB600CB004B08F80051308A315A228F3120006E
:101EC600CC004C08D0005608CB004B08E300530862
:101ED600CB000530CB36890B6D2F4B08CC00CD01DE
:101EE6005208CE00CF01CE35CF0DCE35CF0DCE3533
:101EF600CF0D4C084E07E1004D084F3DE200FF3084
:101F06006105E10007306205E2006308063E513EC6
:101F16008600870181016B080319E82F6630A2004D
:101F26009330A3006408CB00CC014B08A4004C08F6
:101F3600A5005208CD00CE014D08A6004E08A70008
:101F46008531A5258F3188302000A2009330A3006B
:101F56006408CB00CC014B08A4004C08A50053082C
:101F6600CD00CE014D08A6004E08A7008531A52557
:101F76008F31AA302000A2009330A3006408CB0062
:101F8600CC014B08A4004C08A5005608CD00CE0194
:101F96004D08A6004E08A7008531A5258F310A30C9
:101FA6002000A2009430A3006408CB00CC014B08AB
:101FB600A4004C08A5005708CD00CE014D08A60088
:101FC6004E08A7008531A5258F3157302000CB005C
:101FD6004B08E0006208C4006108C3006008CB003B
:101FE6004B08C5006308CC004C08C6002100310828
:101FF6008A0030080A008F3108005B345334653498
:10200600743420346F3475347434703475347434E5
:1020160020346D346F34643465345D3420347B345D
:10202600643465346234753467343A342034403469
:10203600763464342C342034763465347234623425
:102046006F34733465343A3420344034763476341D
:102056002C3420346E346F3472346D3461346C3405
:102066003A342034403476346E347D340A340034C5
:1020760020342034203420342034773469347434C6
:10208600683420345334493444343A3420344034A8
:102096006F346C34733420346F34723420344034EB
:1020A6006F346E3473342C34203469346E342034F7
:1020B600683465347834203466346F3472346D3461
:1020C600613474343A34203440346F346C346834B8
:1020D60020346F347234203440346F346E346834B4
:1020E6000A3400345B34533465346E34643420343B
:1020F6006D34653473347334613467346534203435
:1021060062346534673469346E346E3469346E34DF
:10211600673420347734693474346834203427348F
:102126004034273420346334683461347234613483
:1021360063347434653472345D34203440343C3452
:1021460040346D34653473347334613467346534C4
:102156003E340A3400345B3445346E3461346234C0
:102166006C34653420346F347034653472346134C1
:10217600743469346F346E3420346D346F3464349F
:1021860065345D3420347B346C346F346F34703492
:102196006234613463346B343A34203440346F34FF
:1021A6006C342C3420346E346F3472346D346134B4
:1021B6006C343A34203440346F346E347D340A340F
:1021C60000345B34533465347434203473347434DB
:1021D60061346E3464346134723464342034693466
:1021E600643465346E347434693466346934653401
:1021F60072345D342034403469343C34733474347E
:1022060061346E3464346134723464342034693435
:10221600643465346E3474346934663469346534D0
:1022260072343E340A3400345B34533465347434C7
:10223600203453344C34433441344E342F344534F3
:10224600563441344C3420346D346F346434653440
:102256005D34203440344D3473343A3420345334AE
:102266004C34433441344E342C34203440344D34D1
:1022760065343A3420344534563441344C340A34C7
:1022860000345234583446342534643420345234BD
:102296005834463425346434533449344434483449
:1022A6002034523458344634253464345334493453
:1022B60044344C343A3420342534343464342034B1
:1022C60025343034323458346834203425343034AC
:1022D6003234583468340A340034523458344D3465
:1022E600253464342034523458344D34253464341F
:1022F60053344934443448342034523458344D34F9
:10230600253464345334493444344C343A34203418
:10231600253434346434203425343034323458345B
:1023260068342034253430343234583468340A342E
:1023360000345B345234653463346534693476343E
:10234600653420346D3465347334733461346734E2
:1023560065345D3420343C346D3465347334733401
:102366006134673465343E342034773469346C34F0
:102376006C3420346234653420346F3475347434EC
:102386007034753474340A3400345B345334653431
:1023960074342034663469346C347434653472347D
:1023A6005D342034403466343C346E343E343C3440
:1023B600663469346C347434653472342834533476
:1023C600493444343134303420347E342034533468
:1023D60049344434303429343E340A3400345B34CE
:1023E60053346534743420346D34613473346B344F
:1023F6005D34203440346D343C346E343E343C34E9
:102406006D34613473346B34283453344934443472
:102416003134303420347E34203453344934443417
:10242600303429343E340A3400345B344134623467
:102436006F3472347434203461346C346C34203428
:10244600703465346E34643469346E3467342034E1
:102456007434723461346E3473346D346934733465
:10246600733469346F346E3473345D3420344034DD
:1024760061340A3400342F342F342F342034553449
:102486004134523454343234433441344E3420349B
:10249600483445344C34503420342834763465344A
:1024A6007234733469346F346E34203425347334A3
:1024B600293420342F342F342F340A3400345B343B
:1024C600443475346D34703420346D34613473346F
:1024D6006B347334203461346E346434203466349F
:1024E60069346C3474346534723473345D34203436
:1024F600403446340A3400345B34533465346E3425
:10250600643420346D346534733473346134673421
:1025160065345D3420343C346D346534733473343F
:102526006134673465343E340A3400345B345334E2
:102536006534743420346234613475346434203440
:1025460072346134743465345D342034403462341A
:102556003C346234703472343E340A3400346634A7
:1025660069346C34743465347234283425346434F4
:1025760029343A3420342534303432347834203413
:1025860025343034323478340A3400345B345334EE
:1025960068346F347734203474346834693473346F
:1025A6002034683465346C3470345D343A34203405
:1025B600403468340A3400346D34613473346B3417
:1025C60028342534643429343A34203425343034DC
:1025D60032347834203425343034323478340A3482
:1025E60000345B34443475346D34703420347234C2
:1025F60065346734693473347434653472347334CF
:102606005D342034403464340A34003430342E349B
:1026160031343234203420344D34613472346334EE
:1026260068342034323432342C342034323430346A
:1026360031343834003443346F3470347934693487
:102646006E346734203462347534663466346534E7
:1026560072343A342034253463340A3400344D3429
:1026660065347334733461346734653420347334B9
:1026760065346E3474343A342034253473340A3471
:10268600003430343134323433343434353436343F
:10269600373438343934413442344334443445349D
:1026A600463400343034313432343334343435340F
:1026B600363437343834393461346234633464340C
:1026C6006534663400345234583442342534643424
:1026D60053344934443448343A342034253430347D
:1026E600323478340A34003454345834423425347D
:1026F600643453344934443448343A342034253429
:102706003034323478340A34003452345834423453
:10271600253464345334493444344C343A34203404
:1027260025343034323478340A340034543458344E
:102736004234253464345334493444344C343A34C2
:10274600203425343034323478340A340034523468
:10275600583442342534643444344C3443343A34A3
:10276600203425343034323478340A340034523448
:102776005834423430344334543452344C343A347A
:10278600203425343034323478340A340034543426
:102796005834423430344334543452344C343A345A
:1027A600203425343034323478340A340034523408
:1027B6005834423431344334543452344C343A3439
:1027C600203425343034323478340A3400345434E6
:1027D6005834423431344334543452344C343A3419
:1027E600203425343034323478340A3400345434C6
:1027F6005834423432344334543452344C343A34F8
:10280600203425343034323478340A3400345234A7
:102816005834423425346434443430343A34203421
:1028260025343034323478340A3400344334413475
:102836004E344334543452344C343A3420342534F0
:102846003034323478340A340034433441344E342C
:1028560053345434413454343A34203425343034E7
:10286600323478340A3400345434583442343034F0
:102876002034693473342034693464346C346534F8
:102886000A340034543458344234313420346934F0
:1028960073342034693464346C3465340A34003457
:1028A6005434583442343234203469347334203446
:1028B600693464346C3465340A3400345234583420
:1028C60030344934463420346934733420346F3418
:1028D6006E340A3400345234583431344934463470
:1028E60020346934733420346F346E340A3400343F
:1028F60043344E34463431343A342034253430347B
:10290600323478340A34003443344E344634323464
:102916003A34203425343034323478340A340034AE
:1029260043344E34463433343A3420342534303448
:10293600323478340A340034723425343034333443
:10294600583425346434253473340A34003401345D
:1029560000340A34003464340034E8340334103468
:102966002734013400341034003400340134003488
:10297600103428346E3475346C346C342934003495
:10298600253464342C34253473340A34003400344A
:1029960004340834103414341834253430343334C1
:1029A60078343A34003420342534303432347834B0
:1029B60000342D342D342D340A340034313441346E
:1029C6005134003402340434253463340034003482
:0629D60002342034243419
:020000040001F9
:04000E00E4FFFFFE0E
:00000001FF
