:08000000803102288731E22F54
:100330001630210097000800F10071088131BB21BF
:100340000800640080010131890BA2290034FE00FD
:1003500012001E00FE0BA829003460302100990015
:1003600098012200960108004030240094002030BB
:10037000950092010800F0002000111EBC297008B1
:1003800023009A000800F0002400951370089100E3
:10039000141CC829110808002000911ECC29230034
:1003A0009D1CD4291D121D161908080008302300B1
:1003B0009F0090309D0024309E0033309B009C01B4
:1003C000080003343234003403343134003402344E
:1003D0000F344034A0340034F100F0013A3071029F
:1003E0000318F82930307102031CF829F001F00AD3
:1003F000700C08008231092281318131AD218131B7
:100400008131982181318131B42181318131D621ED
:100410000800103022008C008E012F3021008C004B
:1004200032308E0023008E0107308C0024008C01B6
:1004300030308E002100951322009E019D0108009E
:100440002000A10022000C127808FA007A08F100BE
:100450007908FB007B08F200200021088331752316
:10046000FC007C082000A00022000C1620002008C0
:100470000800F401F501701C412A7208F4077308A2
:10048000F53D0130F235F30D890B422A0130F1368A
:10049000F00C890B472A70087104031D3B2A75086C
:1004A000F1007408F00008002000A5000130A2004F
:1004B0002508023E890A5D2AA235890B5C2A22089A
:1004C000A3002308A6000530A2002208A8002C30B3
:1004D000A2002208A9002608A2002208AA00AB0157
:1004E0000430A2002208F8002830A3002308F900F5
:1004F0002830823120222000A4002408A700080010
:10050000F501F601700871040319AF2AF701F70A23
:10051000F11B942A0130F035F10D890B8B2A013043
:10052000F4007408F707882A0130F535F60D890BB9
:10053000952A71087302031D9F2A70087202031C1A
:10054000A62A7008F2027108F33B75140130F136E7
:10055000F00C890BA72A0130F702031D942A7608B4
:10056000F1007508F000080020003208B4003108DE
:10057000B300B436B30CB436B30CB436B30C330892
:10058000B5003508B7003108B3000430B335FF3E7D
:10059000031DC62A3335E039B4003408B8003708E3
:1005A000B3003308CB003808B3003308CC00443024
:1005B000F8008830F9003708B300B4013308FA00B6
:1005C0003408FB003808B500B6013508FC003608D1
:1005D000FD0086313E26080020005E08B5005F0859
:1005E000B6006008B7000330B1003108F8003530BC
:1005F000B2003208F90035308231202282312000E9
:10060000B3003308B40003303406031D0800033080
:10061000B1003108B5000E30B1003108B60003302A
:10062000B1003108F8003530B2003208F900353039
:100630008231202282312000B3003308B400CB3055
:10064000F8008830F9003708B100B2013108FA002B
:100650003208FB0086313E26080020006208C200F6
:100660006108C1000230BD003D08F8004130BE0005
:100670003E08F90041308231202283312000BF0042
:100680003F08C0004208BD003D08C30043080319ED
:100690000800431C562BE830F8008830F9008631FA
:1006A0003E268331003084312A240800C31C632B8A
:1006B000F530F8008830F90086313E26833101306C
:1006C00084312A240800C31D692B00308231542252
:1006D0000800C31E6F2B0130823154220800C31F53
:1006E00008000230823154220800F600F701710838
:1006F0000319C12B7608031DA32BA82B7208031D19
:100700008C2B77087607F3007308860087010108B1
:100710008131C32183319F2B77087607F30073085B
:100720008600870101088131C3218331F4007708F5
:100730007207F50075088600870174088100013092
:10074000F3007308F707710877020318C12B7E2B9B
:100750007208031DBD2BC12B00308131C3218331B1
:10076000F30077087207F4007408860087017308A5
:1007700081000130F3007308F70771087702031C4A
:10078000AC2B77080800FD007D088600870120302B
:100790000106031DD02B0130F8007808FD07C42B9B
:1007A0007D0886008701093001060319CB2BFB0168
:1007B000FC01FA017D08860087012D300106031D2A
:1007C000E62B0130F8007808FA07ED2B7D0886004B
:1007D00087012B300106031DF12B0130F80078084A
:1007E000FD077D088600870101088131EC218331F6
:1007F000031C162C7C08F1007B08F0000A30F20084
:100800000030F3008231392283317D088600870170
:1008100001087007F80071080318710AF9007808D8
:10082000D03EFB00FF30793DFC00ED2B7A08031928
:10083000252C7B09F8007C09F900F80A0319F90A4C
:100840007808F6007908F70008007C08F7007B08B4
:10085000F60008002000BC003C08173E84008930E8
:100860000318013E850000080907903EB1003108D9
:100870002100A0000E302000B1003108F800A030A7
:10088000B2003208F900A0308231202284312000E9
:10089000B3003308B400210025082000B10031085E
:1008A000B6003608063EA03E8600870181017C30F6
:1008B000F8008830F900210021082000B100B201C1
:1008C0003108FA003208FB0086313E2684319C3024
:1008D000F8008830F900210022082000B100B201A0
:1008E0003108FA003208FB0086313E268431BC30E4
:1008F000F8008830F900210025082000B100B2017D
:100900003108FA003208FB0086313E268431DA30A5
:10091000F8008830F900210026082000B100B2015B
:100920003108FA003208FB0086313E26843101305E
:100930002000B1003C0A9D2CB135890B9C2C31085C
:10094000B2003208B7000530B1003108B8002C30D1
:10095000B1003108B9003708B1003108BA00BB0155
:100960000430B1003108F8003830B2003208F90024
:1009700038308231202284312000B3003308B500A2
:100980001A30F8008830F900A630B1003108FA00BA
:1009900086313E2608008131FA2184310030200062
:1009A000B100B2008231B42284318231EC22843130
:1009B00083312D2384312000911ED82C8131CC210C
:1009C00084312000C4004408CE001430F80089307F
:1009D000F9004E08C400C5014408FA004508FB00B0
:1009E00086313E26843120004E08C4004D084F3E1B
:1009F00086008701440881000A304E06031D362D0B
:100A00004D084F3E86008701810140304F06031D8F
:100A10001A2D50308331C323843177082000C80059
:100A20007608C7004808B2004708B1008231B422F6
:100A300084316C2D4F302000C4004408B1004D08B3
:100A4000C5004508B200003085316F258431200093
:100A5000C6004608C90049080319322D5930F8006C
:100A600088305F2D0230F8008830682D0130C400D6
:100A70004408CD0700308400883085000008C50098
:100A80004D0845020318D82C4D084F3E86008701BB
:100A900081014F30C4004408B1004D08C50045082D
:100AA000B200003085316F2584312000C600460831
:100AB000CA004A080319652D5830F8008830F9003B
:100AC0004F30C4004408FA00692D0130F800883026
:100AD000F90086313E2684312000CD01D82C20003B
:100AE000B6003608113E840089300318013E8500A7
:100AF0000008403EB30033082100AF0020004B083F
:100B0000B30033082100B00020004C08B3003308C4
:100B10002100B100B201B30120003208B300330854
:100B20002100B4002000BD0132083D020318C02D91
:100B30003D083107B3003308860087010108B4007F
:100B40003D08063EAF3E8600870134088100303004
:100B5000F8008830F9003D08063EAF3E8600870168
:100B60000108B300B4013308FA003408FB008631F1
:100B70003E26853101302000B3003308BD07942D97
:100B80003208063EB3003308B7003708B300330815
:100B9000F800AF30B4003408F900AF3082312022C1
:100BA00085312000B5003508BB005B08B8005C0843
:100BB000B9005D08BA000330B3003308F8003830DC
:100BC000B4003408F90038308231202285318C306D
:100BD000F8008830F90020003A08B300B401330867
:100BE000FA003408FB0086313E2685312000580883
:100BF000B8005908B9005A08BA000330B3003308E6
:100C0000F8003830B4003408F9003830823120223E
:100C10008531AC30F8008830F90020003A08B30084
:100C2000B4013308FA003408FB0086313E268531D2
:100C300020003B083706031D3C2E0130B300360A66
:100C4000222EB335890B212E3308803EB4003408A0
:100C5000BC00F801F80A3C30B3003308F9003C301E
:100C60008231202285312000B4003408BB003B03D0
:100C7000031D3C2E01300800003008007A302000AF
:100C8000A0002008AB0079082000A1007808A0008F
:100C9000F80A0319F90A20088400210885000008D1
:100CA000A2002208B00030080319080025303006E1
:100CB00003195F2E300881319C218631432E20009C
:100CC000AE01AF01A5016A2E200025150130F807FD
:100CD0000030F93D78088400790885000008303A32
:100CE0000319642E732E78088400790885000008A3
:100CF0008131EC218631031C1D2F2000AE01AF0194
:100D00000A30F0000030F10020002F08F3002E0818
:100D1000F20082313922863171082000AF0070085C
:100D2000AE0078088400790885000008D03EA00055
:100D3000FF3003180030A1002008AE072108AF3DA6
:100D40000130F8070030F93D780884007908850003
:100D500000088131EC218631031C1D2F802E2000DC
:100D60002B08860087010108A9000030AA00013085
:100D7000A0002008AB0729082A04031DC32E0A304F
:100D8000A9008930AA00AC01AD0129082C07840014
:100D90002A082D3D850012000319D32E0130AC071F
:100DA0000030AD3DC52E2F082D02031DD92E2E0873
:100DB0002C020318E02E2C08AE022D08AF3BE22EC9
:100DC000AE01AF01FF302000AE07FF30AF3D2E0A6D
:100DD00003192F0A0319FE2E203081319C21863100
:100DE000E22E290884002A088500000881319C2110
:100DF000863101302000A9070030AA3D0130AC0245
:100E00000030AD3B2C0A031DF12E2D0A0319432E91
:100E1000F12E2B08860087010108A0002008B000F1
:100E20000230A0002008AB073030A9000030AA0033
:100E30000130AC000030AD00D32E79082000A100B5
:100E40007808A000F80A0319F90A2008840021088C
:100E500085000008B000003A0319E12F633A031936
:100E6000092F103A0319AF2E0B3A0319382F142FFC
:100E700020002B0886008701403FA600413FA700C5
:100E80000230A0002008AB07B001B00A04303006E1
:100E90000319692F3008A000A101A035A10D02306F
:100EA000200784008930213D8500003FA200013FDA
:100EB000A30023082702031D5F2F22082602031C1C
:100EC000692F0130A0002008B00704303006031D50
:100ED0004A2F3008A000A101A01BA1032108803ADD
:100EE000A2002F08803A2202031D782F2E0820022C
:100EF0000318852F20003008A000A101A01BA1032A
:100F00002008AE022108AF3B882F2000AE01AF01C0
:100F1000251D982F2E082F040319A92F3030813159
:100F20009C218631FF302000AE07FF30AF3D8A2F75
:100F30002E082F040319A92F203081319C218631DE
:100F4000FF302000AE07FF30AF3D2E082F04031DF9
:100F50009C2F3008A0002008A800FF302000A0002F
:100F60002008A807280A0319432E2808A000A10179
:100F7000A035A10D0230200784008930213D850075
:100F8000003FF000013FF1002708F3002608F200BF
:100F900082318022863170080F392000A200220899
:100FA000A40024086B3E840088300318013E8500AD
:100FB0000008A0002008B000300881319C21863153
:100FC000AD2F0800E1308400813085005830860064
:100FD000003087000B308131A72187314B308400EE
:100FE000003085000D308131A1218731A03084008F
:100FF000003085001D308131A12120008431CB2CAF
:1010000008340A3455346E34613462346C346534D7
:10101000203474346F342034733465346E34643463
:1010200020346D346534733473346134673465341B
:101030000A3400344D3465347334733461346734A6
:1010400065342034723465346334653469347634FD
:10105000653464343A342034253473340A3400342B
:1010600043346F347034793469346E3467342034E7
:101070006234753466346634653472343A342034FC
:10108000253463340A34003453344934443420342E
:101090007334653474343A34203425343034323483
:1010A0007834203425343034323478340A340034FF
:1010B0000A344D34653473347334613467346534C1
:1010C0002034733465346E3474343A342034253427
:1010D00073340A34003430343134323433343434F9
:1010E0003534363437343834393461346234633427
:1010F0006434653466340034523458344234303405
:1011000053344934443448343A3420342534303468
:10111000323478340A34003454345834423430345D
:1011200053344934443448343A3420342534303448
:10113000323478340A34003452345834423430343F
:101140005334493444344C343A3420342534303424
:10115000323478340A34003454345834423430341D
:101160005334493444344C343A3420342534303404
:10117000323478340A3400345234583442343034FF
:1011800044344C3443343A3420342534303432340B
:1011900078340A340034433441344E3453345434B4
:1011A000413454343A3420342534303432347834B1
:1011B0000A340034523458344234303444343034F5
:1011C0003A34203425343034323478340A3400341C
:1011D000523458343034493446342034693473340A
:1011E00020346F346E340A3400345234583431347D
:1011F0004934463420346934733420346F346E34C7
:101200000A34003401340034103400340034013422
:101210000034103428346E3475346C346C34293412
:101220000034003402340434253463340034003490
:02123000023486
:020000040001F9
:04000E00E4FFFFFE0E
:00000001FF
