:08000000803102288731EB2F4B
:10000C00F2007208F10071082000E9007008F1009C
:10001C007108EA0008002000D50080308D31FE25E3
:10002C00803120004808C9000330C936890B1B28D1
:10003C004908CA004A08D60048080739C9000430E4
:10004C00C935FF3E031D26284935CA004A08D7008A
:10005C006908031955285508031D38281130A500C7
:10006C0092303C28CD302000A5009130A6004708E6
:10007C00C900CA014908A7004A08A8005608CB00C5
:10008C00CC014B08A9004C08AA005708CD00CE01A2
:10009C004D08AB004E08AC008531B02580310230E4
:1000AC002000C9004908D1005508031962284708E7
:1000BC009B3E8400933066284708B83E84009330FA
:1000CC000318013E85000008C900CA014908CF0089
:1000DC004A08D0004F08C9004908D2005608C90088
:1000EC004908D3005708C9004908D4000430C90096
:1000FC004908F80051308C31CB24803120006F0836
:10010C008D31FE2508002000E0006008B63E84001A
:10011C0093300318013E850000080907903EC70084
:10012C004708CD000E30C7004708F8004D308C3121
:10013C00CB2480312000C8004808CC005208C700EE
:10014C004708DF004F08C7000530C736890BAB28BE
:10015C004708C800C9014E08CA00CB01CA35CB0DEF
:10016C00CA35CB0DCA35CB0D48084A07DD00490806
:10017C004B3DDE00FF305D05DD0007305E05DE0027
:10018C005F08063E4D3E8600870181016908031910
:10019C0026297230A5009230A6006008C700C8015D
:1001AC004708A7004808A8004E08C900CA0149081A
:1001BC00A9004A08AA008531B0258031943020006E
:1001CC00A5009230A6006008C700C8014708A70028
:1001DC004808A8004F08C900CA014908A9004A08E4
:1001EC00AA008531B0258031B6302000A5009230B0
:1001FC00A6006008C700C8014708A7004808A80067
:10020C005208C900CA014908A9004A08AA00853148
:10021C00B0258031E6302000A5009230A6006008A1
:10022C00C700C8014708A7004808A8005308C90020
:10023C00CA014908A9004A08AA008531B0258031B5
:10024C0053302000C7004708DC005D08C700470892
:10025C00C0005C08C8004808C1005F08C900490814
:10026C00C20021003D088A003C080A0081310800C8
:10027C002000D600DE0121003B082000D400210024
:10028C003A082000D3000230C1004108F800533076
:10029C008C31CB2481312000C2004208D700540895
:1002AC00C1004108D900591B6B296908031965293C
:1002BC002F30A5009330A6008531B0258131023056
:1002CC002000C1004108DE008929591A7B296908E0
:1002DC00031977292130A5009330A6008531B0256C
:1002EC0081312000DE01DE0A892959198929690822
:1002FC00031987291330A5009330A6008531B0254A
:10030C0081312000DE015E08B03E8400933003187A
:10031C00013E85000008403EC1004108C5006B0845
:10032C00C1004108C6006C08C1004108C700C801E3
:10033C00C9014008C1004108CA00DD0140085D0246
:10034C000318D3295D085607C100410886008701B0
:10035C000108C2005D08063E453E86008701420842
:10036C00810069080319CD293B30A5009230A60005
:10037C005D08063E453E860087010108C100C201AA
:10038C004108A7004208A8008531B0258131013011
:10039C002000C1004108DD07A4294008063EC10029
:1003AC004108D5005508C1004108F80045308C3192
:1003BC00CB2481312000C2004208D7000330C10099
:1003CC004108DA005E08AD3E840093300318013E0C
:1003DC0085000008C1004108DB00DC010330C100CE
:1003EC004108F8005A308C31CB2481312000690847
:1003FC000319152A8330A5009230A6005E08C100AF
:10040C00C2014108A7004208A8005C08C300C4014F
:10041C004308A9004408AA008531B0258131033076
:10042C002000C1004108DA005E08AD3E8400933024
:10043C000318013E85000008013EC1004108DB00A5
:10044C00DC010330C1004108F8005A308C31CB2458
:10045C008131200069080319482AA530A500923083
:10046C00A6005E08C100C2014108A7004208A8000E
:10047C005C08C300C4014308A9004408AA008531E4
:10048C00B0258131200057085506031D752A01300F
:10049C00C1005E0A522AC135890B512A4108803E9F
:1004AC00C2004208D800F801F80A58308C31CB242D
:1004BC0081312000C1004108D7005703031D752A64
:1004CC0069080319732A4F30A5009230A60056080C
:1004DC00C1004108A7008531B0250130080000306B
:1004EC000800F6302000A5009130A6008531B0251B
:1004FC00823177302000A5009230A6006B08C00036
:10050C00C1014008A7004108A8008531B0258231FF
:10051C0099302000A5009230A6006C08C000C101E3
:10052C004008A7004108A8008531B0258231F93078
:10053C002000A5009130A6008531B02582315730BE
:10054C002000A5009330A6002A308C31E0248231A3
:10055C002000C000C1014008A7004108A800853157
:10056C00B025823163302000A5009330A6002930DD
:10057C008C31E02482312000C000C1014008A7006A
:10058C004108A8008531B02582316F302000A500CC
:10059C009330A60028308C31E02482312000C0003A
:1005AC00C1014008A7004108A8008531B02582315F
:1005BC00F9302000A5009130A6008531B02582319C
:1005CC00C6302000A5009230A60060308C31E024AB
:1005DC0082312000C000C1014008A7004108A800DA
:1005EC008531B0258231D6302000A5009230A6008E
:1005FC0070308C31E02482312000C000C1014008F1
:10060C00A7004108A8008531B0258231F9302000BF
:10061C00A5009130A6008531B02582312000CA0199
:10062C0002304A020318652B4A08B83E8400933006
:10063C000318013E850000088C31E0248231200033
:10064C00C0004008C8004A08B83E84009330031824
:10065C00013E85000008013E8C31E02482312000EF
:10066C00C0004008C9007A30A5009130A6004A08A5
:10067C00C000C1014008A7004108A8004A08C200F8
:10068C00C3014208A9004308AA004808C400C501D8
:10069C004408AB004508AC004908C600C701460831
:1006AC00AD004708AE008531B02582310130200005
:1006BC00C0004008CA0702304A02031C1A2BCA01A8
:1006CC0006304A020318B52B4A089B3E840093302F
:1006DC000318013E850000088C31E0248231200093
:1006EC00C0004008C8004A089B3E840093300318A1
:1006FC00013E85000008013E8C31E024823120004F
:10070C00C0004008C9005A30A5009130A6004A0824
:10071C00C000C1014008A7004108A8004A08C20057
:10072C00C3014208A9004308AA004808C400C50137
:10073C004408AB004508AC004908C600C701460890
:10074C00AD004708AE008531B02582310130200064
:10075C00C0004008CA0706304A02031C6A2BF93055
:10076C00A5009130A6008531B0258231F5302000EE
:10077C00A5009230A6000F308C31E024823120008D
:10078C00C000C1014008A7004108A8008531B02570
:10079C00823104302000A5009330A6000E308C313D
:1007AC00E02482312000C000C1014008A7004108AC
:1007BC00A8008531B0258231F6302000A50091309B
:1007CC00A6008531B02508002100A5018C31BC2480
:1007DC0083312000ED01EE013E30C7000F30C80020
:1007EC008E31E4268331102DA9308F319927833136
:1007FC0076082000E70067082100A00020082000F0
:10080C00E700E8016708F0006808F1008D31272542
:10081C008331102D643021002906031D192CF001A1
:10082C00F00A0130202C76302906031D272CF0010C
:10083C00F00A00308031062083312100A501A50A81
:10084C00102D6E302906031D102DF0010030803163
:10085C00062083312100A501102D6C302906031DC3
:10086C00392C40303F2C6E3021002906031D422CC0
:10087C0000308D31FE25833121002A08031D492CBF
:10088C002000ED01542C733021002A06031D562C38
:10089C002B08031D562C2000ED01ED0AEE01102D46
:1008AC00683021002A06031D102D2B08031D102D66
:1008BC002000ED01EE01EE0A102DA9308F319927A1
:1008CC00833176082000E70067082100A100210889
:1008DC008D3173258331102D21002908D03E200045
:1008EC00E70067082100A600AA308F3199278331D1
:1008FC0077082100A4007608A3006D303106031D93
:10090C00972C26082000E7006708C7002100230861
:10091C002000E8006808C8000030803111208331C5
:10092C00102D663021003106031D102D26082000E5
:10093C00E7006708C700210023082000E8006808CA
:10094C00C8000130803111208331102D8231772283
:10095C008331102DE4302000A5009130A6008531A4
:10096C00B0258331AB302000A5009030A600853136
:10097C00B025833100302000A5009030A6008531D1
:10098C00B025833175302000A5009030A60085314C
:10099C00B02583313B302000A5009030A600853176
:1009AC00B025833134302000A5009130A60085316C
:1009BC00B02583310A302000A5009130A600853186
:1009CC00B0258331B4302000A5009130A6008531CC
:1009DC00B025833126302000A5009230A600853149
:1009EC00B02583319A302000A5009130A6008531C6
:1009FC00B0258331DE302000A5009030A600853173
:100A0C00B0258331FB302000A5009130A600853144
:100A1C00B02583312100B2018E314926833120006B
:100A2C00911E122D8C31992483312000E700670828
:100A3C002100B00025080319342DB3302000A50087
:100A4C009330A600210030082000E700E801670879
:100A5C00A7006808A8008531B02583312100300833
:100A6C002000E70021003208A73E86008701200005
:100A7C00670881000A3021003006031D8D2D3208D5
:100A8C00A73E86008701810140302706031D702D8B
:100A9C0028082000E70067082100B1002100310878
:100AAC00623A0319632C063A0319AC2C023A031967
:100ABC00722C0E3A0319B02C013A0319FA2B043A92
:100ACC000319722C023A0319332C193A0319102CFE
:100ADC008C2D102D32082000E7006708C000A730CD
:100AEC0081313E2183312000E80068082100A200FA
:100AFC0022080319102D031022008E1D0314031C51
:100B0C008A2D22008E15102D22008E11102D0130F1
:100B1C002000E70067082100B207BA308400933048
:100B2C00850000082000E80021003208200068023F
:100B3C000318122D21003208A73E8600870181017F
:100B4C0032082000E7006708C000A73081313E2141
:100B5C008331102D27302000AF002F08B900200062
:100B6C002608B0002508AF00A50A0319A60A2F080D
:100B7C008400300885000008B1003108BF003F0830
:100B8C000319080025303F060319D12D3F088C317D
:100B9C0066248531B52D2000BD01BE01BC01DB2DC5
:100BAC003C150130A5070030A63D25088400260819
:100BBC0085000008303A0319D62DE42D2508840051
:100BCC002608850000088C31AE248531031C8F2E3D
:100BDC002000BD01BE010A30F0000030F100200001
:100BEC003E08F3003D08F2008D310C25853171086B
:100BFC002000BE007008BD00250884002608850072
:100C0C000008D03EAF00FF3003180030B0002F08B2
:100C1C00BD073008BE3D0130A5070030A63D2508B4
:100C2C0084002608850000088C31AE248531031C15
:100C3C008F2EF12DBC17B02E3908860087010108C4
:100C4C00B5000030B6000130AF002F08B9073508E9
:100C5C003604031D352E8D30B5009330B600B70128
:100C6C00B8013508370784003608383D8500120076
:100C7C000319452E0130B7070030B83D372E3E081A
:100C8C003802031D4B2E3D0837020318522E37082D
:100C9C00BD023808BE3B542EBD01BE01FF30200002
:100CAC00BD07FF30BE3D3D0A03193E0A0319702EE5
:100CBC0020308C3166248531542E3508840036085A
:100CCC00850000088C316624853101302000B50781
:100CDC000030B63D0130B7020030B83B370A031D77
:100CEC00632E380A0319B52D632E39088600870147
:100CFC000108AF002F08BF000230AF002F08B90762
:100D0C003F30B5000030B6000130B7000030B800FD
:100D1C00452E20002608B0002508AF00A50A0319AF
:100D2C00A60A2F088400300885000008BF00003A8E
:100D3C000319EA2F633A03197B2E073A0319B02ED5
:100D4C000D3A0319B02E1A3A0319222E0B3A031935
:100D5C00202E862E2000BC1BCA2E39088600870147
:100D6C00403FBA00413FBB000230AF002F08B9072B
:100D7C00BB1F1A2F0330AF002F08BC04BA09BB09E4
:100D8C00BA0A0319BB0A1A2F390886008701403F9B
:100D9C00BA00413FBB000230AF002F08B9071A2F31
:100DAC00BF01BF0A05303F060319232F3F08AF00D0
:100DBC00B001AF35B00D7B302F0784009330303D40
:100DCC008500003FB100013FB20032083B02031D19
:100DDC00F12E31083A02031C232F0130AF002F08EB
:100DEC00BF07D82EBF01BF0A04303F060319232FBB
:100DFC003F08AF00B001AF35B00D85302F07840030
:100E0C009330303D8500003FB100013FB200320805
:100E1C003B02031D132F31083A02031C232F013010
:100E2C00AF002F08BF07FA2E3C088039003A03198F
:100E3C00D62E803A0319F82E232F3D083E040319B1
:100E4C002F2F3C08033903192F2FFF30BD07FF301C
:100E5C00BE3D3F08AF00B001AF1BB0033008803A75
:100E6C00B1003E08803A3102031D3E2F3D082F028F
:100E7C0003184B2F20003F08AF00B001AF1BB0038D
:100E8C002F08BD023008BE3B4E2F2000BD01BE0115
:100E9C003C1D672F3C0803390319582F2D308C311A
:100EAC006624853120003D083E040319802F303024
:100EBC008C3166248531FF302000BD07FF30BE3DEC
:100ECC00592F3D083E040319782F20308C316624AD
:100EDC008531FF302000BD07FF30BE3D3D083E048C
:100EEC00031D6B2F3C0803390319802F2D308C31D7
:100EFC006624853120003F08AF002F08B400D82F9E
:100F0C000A30F8000030F9003408AF00B001AF35FA
:100F1C00B00D7B302F0784009330303D8500003FAF
:100F2C00F000013FF1003B08F3003A08F2008D316C
:100F3C00CA2585317108FB007008FA008D319E2599
:100F4C0085317808303E2000B1003108D32F3408A9
:100F5C00AF00B001AF35B00D85302F078400933052
:100F6C00303D8500003FF000013FF1003B08F300ED
:100F7C003A08F2008D31CA25853170080F392000EE
:100F8C00B1003108B3003308613E8400923003187D
:100F9C00013E85000008AF002F08BF003F088C31D0
:100FAC0066248531FF302000AF002F08B407340AC7
:100FBC000319B52D3C088039003A0319862F803A65
:100FCC000319AD2FD42FD42F0800903084008C300F
:100FDC008500B33086000030870009308C316B24DB
:100FEC00E901EA01EB01EC01ED01EE01EF0120005A
:040FFC008331EA2B28
:1018C4001630210097000800F10071088C317F2444
:1018D4000800FE0012001E00FE0B6C2C0034603069
:1018E400210099009801220096010800403024004C
:1018F40094002030950092010800F0002000111E91
:10190400802C700823009A000800F000240095132E
:1019140070089100141C8C2C11080800023428341F
:101924000534F1344134A0340034A03400342000B0
:10193400911E992C23009D1CA12C1D121D16190803
:101944000800083023009F0090309D0024309E0042
:1019540033309B009C010800F100F0013A30710221
:101964000318BA2C30307102031CBA2CF001F00AAF
:10197400700C08008C31F5248C318C3171248C313D
:101984008C3162248C318C3178248C318C31A324B9
:101994000800FD0022000C127808F9007908F10013
:1019A4007D08FA007A08F2007D088E319626FB0045
:1019B4007B08FC0022000C167C0808002000A10013
:1019C4000330A0002008A2002108A0002008A300E2
:1019D400A4010330A0002008F80022308C31CB246D
:1019E400200024080800103022008C008E012F30C3
:1019F40021008C0032308E0023008E0107308C00D1
:101A040024008C0130308E002100951322009E01A9
:101A14009D010800F401F501701C142D7208F407EF
:101A24007308F53D0130F235F30D890B152D0130A6
:101A3400F136F00C890B1A2D70087104031D0E2D5C
:101A44007508F1007408F00008007108F3007008CC
:101A5400F200F336F20CF336F20CF336F20C7208A1
:101A6400F4007408F5007008F2000430F235FF3E0B
:101A7400031D382D7235E039F3007308F60075083C
:101A8400F20072082000EB007608F2007208EC0005
:101A940008002000A2000130A0002208023E890AAA
:101AA400542DA035890B532D2008A1002108A30033
:101AB4000530A0002008A5002C30A0002008A600B6
:101AC4002308A0002008A700A8010430A0002008D3
:101AD400F80025308C31CB242000A1002108A4007B
:101AE40008002000C90080308D31FE258D313F3043
:101AF4002000C7004708CA000530C7004708CC00CB
:101B04002A30C7004708CD004A08C7004708CE005E
:101B14004908C7004708CF000430C7004708F80049
:101B24004C308C31CB248D312000C8004808CB00C8
:101B34006F088D31FE250800780879040319C52D36
:101B4400FD01FD0AF91BB02D0130F835F90D890BA3
:101B5400A72D0130FC007C08FD07A42D79087B0229
:101B6400031DB62D78087A02031CBC2D7808FA02EE
:101B74007908FB3B0130F936F80C890BBD2D013097
:101B8400FD02031DB02D7B08F9007A08F800080057
:101B9400F501F601700871040319F92DF701F70A2C
:101BA400F11BDE2D0130F035F10D890BD52D0130FF
:101BB400F4007408F707D22D0130F535F60D890BC2
:101BC400DF2D71087302031DE92D70087202031CD6
:101BD400F02D7008F2027108F33B75140130F136F0
:101BE400F00C890BF12D0130F702031DDE2D760870
:101BF400F1007508F00008002000C6000230C000A3
:101C04004008C3000F30C0004008C4004608C000AC
:101C14004008C5000330C0004008F80043308C3150
:101C2400CB248D312000C1004108C200803046061B
:101C34000319202E4608C0004008EF000330420676
:101C4400031D08000330C0004008C3000E30C0006C
:101C54004008C4000330C0004008F80043308C3111
:101C6400CB248D312000C1004108C200690803194A
:101C740008000430A5009330A6004508C000C10147
:101C84004008A7004108A8008531B02508002100BC
:101C940039082000E500210038082000E400023063
:101CA400E1006108F80064308C31CB248E312000CF
:101CB400E2006208E3006508E1006108E6006608E6
:101CC40003190800E61C742E69080319702E4A30A3
:101CD400A5009330A6008531B0258E3101308031C6
:101CE40089200800661C842E69080319802E3D3063
:101CF400A5009330A6008531B0258E3100308031A7
:101D040089200800E61D8A2E00308D314B250800FD
:101D1400E61E902E01308D314B250800E61F080089
:101D240002308D314B250800F600F70171080319C4
:101D3400E22E7608031DC42EC92E7208031DAD2E93
:101D440077087607F30073088600870101088C3151
:101D540087248E31C02E77087607F3007308860037
:101D6400870101088C3187248E31F40077087207CB
:101D7400F500750886008701740881000130F300BE
:101D84007308F707710877020318E22E9F2E720872
:101D9400031DDE2EE22E00308C3187248E31F300B9
:101DA40077087207F40074088600870173088100BD
:101DB4000130F3007308F70771087702031CCD2E76
:101DC400770808000030F000F1008D3127258E31AE
:101DD400200048082100BD00200047082100BC0065
:101DE40080308D31FE258E31B3308600003087007F
:101DF4004A3084000030850005302000C9001600F8
:101E04001A00C90B012F0530C9004908F8004A30EF
:101E14008C31CB248E3102302000C9004908CA001D
:101E24006030C9004908CB002430C9004908CC00FF
:101E34000330C9004908F8004A308C31CB248E3174
:101E440002302000C9004908CA007030C90049089E
:101E5400CB002030C9004908CC000330C900490830
:101E6400F8004A308C31CB248E312000E901EA019C
:101E740000308D31FE25080020006D080319542F11
:101E84009430A5009330A6004008C300C401430861
:101E9400A7004408A8004108C5004508A9008531E9
:101EA400B025080020006E0803198D2FA130A5006D
:101EB4009330A6004008C300C4014308A7004408A7
:101EC400A8008531B0258F312000C60142084602A2
:101ED4000318862FA730A5009330A60046084107B3
:101EE400C3004308860087010108C400C5014408F3
:101EF400A7004508A8008531B0258F3101302000A6
:101F0400C3004308C607682FF930A5009130A60026
:101F14008531B02508005D302000A5009230A60070
:101F24004108C3004308A7008531B0250800FD001F
:101F34007D088600870120300106031DA62F01308D
:101F4400F8007808FD079A2F7D088600870109307C
:101F540001060319A12FFB01FC01FA017D0886008B
:101F640087012D300106031DBC2F0130F8007808CD
:101F7400FA07C32F7D08860087012B300106031D55
:101F8400C72F0130F8007808FD077D088600870117
:101F940001088C31AE248F31031CEC2F7C08F10036
:101FA4007B08F0000A30F2000030F3008D310C257C
:101FB4008F317D088600870101087007F8007108D9
:101FC4000318710AF9007808D03EFB00FF30793D10
:101FD400FC00C32F7A080319FB2F7B09F8007C0946
:101FE400F900F80A0319F90A7808F6007908F700E5
:101FF40008007C08F7007B08F60008005B345334C3
:102004006534743420346F347534743470347534F6
:10201400743420346D346F34643465345D34203466
:102024007B34643465346234753467343A34203430
:102034004034763464342C34203476346534723449
:1020440062346F34733465343A3420344034763433
:1020540076342C3420346E346F3472346D346134FD
:102064006C343A342034403476346E347D340A345B
:10207400003420342034203420342034773469343C
:102084007434683420345334493444343A34203476
:1020940040346F346C34733420346F3472342034ED
:1020A40040346F346E3473342C34203469346E34D9
:1020B4002034683465347834203466346F347234B0
:1020C4006D34613474343A34203440346F346C34B5
:1020D400683420346F347234203440346F346E34B6
:1020E40068340A3400345B3445346E346134623409
:1020F4006C34653420346F34703465347234613434
:10210400743469346F346E3420346D346F34643411
:1021140065345D3420347B346C346F346F34703404
:102124006234613463346B343A34203440346F3471
:102134006C342C3420346E346F3472346D34613426
:102144006C343A34203440346F346E347D340A3481
:1021540000345B345334653474342034733474344D
:1021640061346E34643461347234643420346934D8
:10217400643465346E347434693466346934653473
:1021840072345D342034403469343C3473347434F0
:1021940061346E34643461347234643420346934A8
:1021A400643465346E347434693466346934653443
:1021B40072343E340A3400345B345234653463344C
:1021C400653469347634653420346D34653473345D
:1021D40073346134673465345D3420343C346D3495
:1021E4006534733473346134673465343E34203475
:1021F400773469346C346C3420346234653420347C
:102204006F34753474347034753474340A3400346F
:102214005B345334653474342034663469346C3438
:102224007434653472345D342034403466343C3460
:102234006E343E343C34663469346C3474346534FE
:1022440072342834533449344434313430342034EF
:102254007E342034533449344434303429343E34C5
:102264000A3400345B3453346534743420346D34AC
:10227400613473346B345D34203440346D343C3415
:102284006E343E343C346D34613473346B342834EE
:102294005334493444343134303420347E3420349B
:1022A400533449344434303429343E340A34003409
:1022B4005234583446342534643453344934443421
:1022C4004834203452345834463425346434533436
:1022D400493444344C343A342034253430343234A0
:1022E4007834203425343034323478340A340034A9
:1022F400523458344D3425346434533449344434DA
:1023040048342034523458344D34253464345334EE
:10231400493444344C343A3420342534303432345F
:102324007834203425343034323478340A34003468
:102334005B34533465346E34643420346D34653422
:10234400733473346134673465345D3420343C341D
:102354006D346534733473346134673465343E34B6
:102364000A3400345B3453346534743420346234B6
:1023740061347534643420347234613474346534B3
:102384005D342034403462343C346234703472340A
:102394003E340A340034663469346C34743465343D
:1023A400723428342534643429343A3420342534BE
:1023B4003034323478342034253430343234783480
:1023C4000A3400342D342D342D3420345534413422
:1023D400523454343234433441344E342034483447
:1023E40045344C34503420342D342D342D340A34B7
:1023F40000345B34533468346F34773420347434A9
:102404006834693473342034683465346C3470341B
:102414005D343A342034403468340A3400346D3442
:10242400613473346B3428342534643429343A34B5
:102434002034253430343234783420342534303464
:10244400323478340A3400345B34443475346D34B3
:1024540070342034723465346734693473347434BA
:102464006534723473345D342034403464340A3453
:10247400003443346F347034793469346E346734DF
:1024840020346234753466346634653472343A34D4
:102494002034253463340A3400344D3465347334C1
:1024A40073346134673465342034733465346E3482
:1024B40074343A342034253473340A3400343034D8
:1024C40031343234333434343534363437343834C4
:1024D40039346134623463346434653466340034CA
:1024E40052345834423425346434533449344434F3
:1024F40048343A34203425343034323478340A348D
:102504000034543458344234253464345334493414
:10251400443448343A342034253430343234783432
:102524000A34003452345834423425346434533435
:10253400493444344C343A3420342534303432343D
:1025440078340A34003454345834423425346434EE
:102554005334493444344C343A34203425343034FC
:10256400323478340A340034523458344234253402
:10257400643444344C3443343A34203425343034D1
:10258400323478340A3400345234583442343034D7
:102594004334543452344C343A34203425343034B3
:1025A400323478340A3400345234583442343134B6
:1025B4004334543452344C343A3420342534303493
:1025C400323478340A3400345234583442342534A2
:1025D4006434443430343A3420342534303432349E
:1025E40078340A340034433441344E34433454345C
:1025F40052344C343A342034253430343234783440
:102604000A340034433441344E3453345434413462
:1026140054343A34203425343034323478340A345F
:1026240000345434583442343034203469347334EC
:102634002034693464346C3465340A3400345434DA
:102644005834423431342034693473342034693496
:1026540064346C3465340A340034543458344234A9
:1026640032342034693473342034693464346C343F
:1026740065340A34003452345834303449344634DE
:1026840020346934733420346F346E340A340034A3
:102694005234583431344934463420346934733430
:1026A40020346F346E340A34003443344E344634A8
:1026B40031343A34203425343034323478340A34E2
:1026C400003443344E34463432343A3420342534DE
:1026D4003034323478340A34003443344E3446349B
:1026E40033343A34203425343034323478340A34B0
:1026F4000034013400340A34003464340034E834DF
:1027040003341034273401340034103400340034DA
:1027140001340034103428346E3475346C346C3421
:1027240029340034253464342C34253473340A3485
:102734000034003404340834103414341834253488
:102744003034323478343A3400342034253430345C
:102754003234783400343134413451340034023466
:1027640004342534633400340034023420342434F3
:02277400073428
:020000040001F9
:04000E00E4FFFFFE0E
:00000001FF
