:10000000803102288731F02F083023009F00903084
:100010009D0024309E0040309B0003309C0008006F
:10002000FD007D088600870120300106031D1D2884
:100030000130F8007808FD0711287D088600870147
:100040000930010603191828FB01FC01FA017D089B
:10005000860087012D300106031D33280130F8008A
:100060007808FA073A287D08860087012B300106B8
:10007000031D3E280130F8007808FD077D08860042
:10008000870101088B3131238031031C63287C08F0
:10009000F1007B08F0000A30F2000030F3008B31F1
:1000A000A22380317D088600870101087007F800CF
:1000B00071080318710AF9007808D03EFB00FF3080
:1000C000793DFC003A287A08031972287B09F80068
:1000D0007C09F900F80A0319F90A7808F60079088A
:1000E000F70008007C08F7007B08F6000800A6303F
:1000F0002000A2009430A3008531A5258031200086
:10010000D101023051020318DE285135AC3E860081
:100110008701403FCF00413FD0005008C4004F0846
:10012000C300C436C30CC436C30CC436C30C430866
:10013000C5004508CD004F080739C3000430C3355A
:10014000FF3E031D9F284335C4004408CE004530C0
:10015000A2009130A3005108C300C4014308A400C9
:100160004408A5005108C500C6014508A600460878
:10017000A7005108C700C8014708A8004808A900FF
:100180005008AB004F08AA004D08C900CA01490831
:10019000AC004A08AD004E08CB00CC014B08AE00C5
:1001A0004C08AF008531A525803101302000C30007
:1001B0004308D10702305102031C8528D1010630C3
:1001C000510203183C295135A03E86008701403F6B
:1001D000CF00413FD0005008C4004F08C300C436D0
:1001E000C30CC436C30CC436C30C4308C500450851
:1001F000CD004F080739C3000430C335FF3E031D4F
:10020000FD284335C4004408CE001930A2009130C7
:10021000A3005108C300C4014308A4004408A5007A
:100220005108C500C6014508A6004608A7005108A8
:10023000C700C8014708A8004808A9005008AB003B
:100240004F08AA004D08C900CA014908AC004A0875
:10025000AD004E08CB00CC014B08AE004C08AF00FF
:100260008531A525803101302000C3004308D10726
:1002700006305102031CE328A630A2009430A300EC
:100280008531A5250800A6302000A2009430A300E7
:100290008531A525813140302000A2009330A30094
:1002A000210032082000C300C4014308A400440810
:1002B000A5008531A525813162302000A200933050
:1002C000A300210033082000C300C4014308A40098
:1002D0004408A5008531A5258131A9302000A20060
:1002E0009430A3008531A525813150302000A20033
:1002F0009430A3002A308B31892381312000C30040
:10030000C4014308A4004408A5008531A525813116
:100310005C302000A2009430A30029308B31892367
:1003200081312000C300C4014308A4004408A50093
:100330008531A525813168302000A2009430A300CA
:1003400028308B31892381312000C300C401430848
:10035000A4004408A5008531A5258131A9302000DD
:10036000A2009430A3008531A52581319F30200063
:10037000A2009330A30030308B31892381312000DB
:10038000C300C4014308A4004408A5008531A52585
:100390008131BF302000A2009330A30040308B3168
:1003A000892381312000C300C4014308A40044080C
:1003B000A5008531A5258131CF302000A2009330E2
:1003C000A30050308B31892381312000C300C40148
:1003D0004308A4004408A5008531A5258131A93032
:1003E0002000A2009430A3008531A52581318F30F3
:1003F0002000A2009330A30060308B31892381312B
:100400002000C300C4014308A4004408A5008531AE
:10041000A5258131AF302000A2009330A3007030B9
:100420008B31892381312000C300C4014308A4001B
:100430004408A5008531A5258131A9302000A200FE
:100440009430A3008531A5258131EE302000A20033
:100450009330A3000F308B31892381312000C300FA
:10046000C4014308A4004408A5008531A5258131B5
:10047000FD302000A2009330A3000E308B31892381
:1004800081312000C300C4014308A4004408A50032
:100490008531A5258131A6302000A2009430A3002B
:1004A0008531A52508002000CB00CD01A030C40077
:1004B00044082100B400B50102302000C400440803
:1004C000F800B4308B315D2382312000C50045082F
:1004D000C900210035082000C4004408CA004A1B96
:1004E000812A6B0803197B2A2830A2009430A300CC
:1004F0008531A525823102302000C4004408CD009A
:100500009F2A4A1A912A6B0803198D2A1A30A200D1
:100510009430A3008531A52582312000CD01CD0A7C
:100520009F2A4A199F2A6B0803199D2A0C30A200A2
:100530009430A3008531A52582312000CD014D08DE
:10054000AE3E840094300318013E85000008403E12
:10055000C40044082100B40032082000C40044084C
:100560002100B50033082000C40044082100B60073
:10057000B701B80120004308C40044082100B900B5
:100580002000CC0143084C020318F22A4C084B0708
:10059000C4004408860087010108C5004C08063ED7
:1005A000B43E86008701450881006B080319EC2AD8
:1005B000F330A2009230A3004C084B07C40044085B
:1005C000860087010108C500C6014508A400460849
:1005D000A5008531A525823101302000C4004408E2
:1005E000CC07C22A4308063EC4004408C800480895
:1005F000C4004408F800B4308B315D238231200000
:10060000C5004508C9000330C40044082100B400F7
:1006100020004D08AB3E840094300318013E850055
:100620000008C40044082100B500B60103302000D2
:10063000C4004408F800B4308B315D2382312000BF
:100640006B0803193A2B4C30A2009330A3004D08DD
:10065000C400C5014408A4004508A50021003608CF
:100660002000C600C7014608A6004708A70085313C
:10067000A525823103302000C40044082100B400C5
:1006800020004D08AB3E840094300318013E8500E5
:100690000008013EC40044082100B500B601033043
:1006A0002000C4004408F800B4308B315D2382314F
:1006B00020006B080319732B6E30A2009330A30047
:1006C0004D08C400C5014408A4004508A500210048
:1006D00036082000C600C7014608A6004708A70044
:1006E0008531A5258231200049084806031D0800F0
:1006F0000130C4004D0A7D2BC435890B7C2B440886
:10070000803EC50045082100B400F801F80AB43065
:100710008B315D2382312000C4004408C9004903A5
:10072000031D08006B08031908000730A20093306E
:10073000A3004B08A4000030A5008531A5250800C2
:1007400022008E152100D90105302000EA000F306B
:10075000E900F130890BAA2BE90BAA2BEA0BAA2B93
:100760008B313F2383312000ED01EE011630C700AD
:100770000D30C8008E31182683312100DD018D3106
:100780006B2583312000E90069082100D600560856
:100790000319CD2B22008E11CF2B22008E152000A5
:1007A000911EBF2B8B31122383312000E900690891
:1007B0002100DB0059080319EE2BB1302000A20004
:1007C0009430A30021005B082000E900EA016908D9
:1007D000A4006A08A5008531A525833121005B08A6
:1007E0002000E90021005D08C43E8600870120004A
:1007F000690881000A3021005B06031D8C2D5D080D
:10080000C43E86008701810140304406031D822DCD
:1008100045082000E90069082100DC005D2DC63094
:1008200080311020833176082000E900690821001A
:10083000D40054082000E900EA016908F0006A08C1
:10084000F1008B31BD238331BD2B6430210046067E
:10085000031D2E2CF001F00A0130352C76304606AF
:10086000031D3C2CF001F00A00308B31262383312C
:100870002100D901D90ABD2B6E304606031DBD2BC0
:10088000F00100308B31262383312100D901BD2BAB
:100890006C304606031D4E2C4030542C6E30210027
:1008A0004606031D572C00308D31C12583312100B0
:1008B0004708031D5E2C2000ED01692C73302100D8
:1008C0004706031D6B2C4808031D6B2C2000ED010F
:1008D000ED0AEE01BD2B683021004706031DBD2B3C
:1008E0004808031DBD2B2000ED01EE01EE0ABD2BD3
:1008F0008B314E238331C63080311020833176080E
:100900002000E90069082100D50055088C316124D8
:100910008331BD2B21004608D03E2000E900690844
:100920002100DA00C73080311020833177082100A0
:10093000D8007608D7006D305C06031DB12C5A082C
:100940002000E9006908C700210058082000C900FC
:10095000210057082000C80000308E31A6268331C0
:10096000BD2B663021005C06031DBD2B5A082000FC
:10097000E9006908C700210058082000C9002100CB
:1009800057082000C80001308E31A6268331BD2BC8
:100990008B314E238331BD2B803177208331BD2BAA
:1009A000813143218331BD2B21005D08FF3E2000B2
:1009B000E9006908C300C530823153228331BD2B61
:1009C00013302000A2009230A300DE30A400923049
:1009D000A5008531A5258331E6302000A2009030A6
:1009E000A3008531A525833102302000A20090307C
:1009F000A3008531A5258331B0302000A2009030BE
:100A0000A3008531A52583313D302000A200903020
:100A1000A3008531A5258331C7302000A200913085
:100A2000A3008531A52583319D302000A20091309F
:100A3000A3008531A52583316E302000A2009230BD
:100A4000A3008531A5258331ED302000A20091302F
:100A5000A3008531A525833137302000A2009230D4
:100A6000A3008531A5258331C9302000A200923032
:100A7000A3008531A525833154302000A200923097
:100A8000A3008531A525833177302000A200903066
:100A9000A3008531A525833171302000A20091305B
:100AA000A3008531A52583319E302000A20092301D
:100AB000A3008531A5258331BD2B21005C08403A78
:100AC0000319D42C043A0319D02C023A0319CC2C64
:100AD000273A0319C82C033A0319782C043A03194E
:100AE0008A2C0E3A0319E02C013A03190F2C043A10
:100AF00003198A2C023A0319482C193A0319252C98
:100B00008B2DBD2B5D082000E9006908C300C430AF
:100B1000823153228331BD2B01302000E900690866
:100B20002100DD0708305D02031CBF2B5D08C43EB9
:100B30008600870181015D082000E9006908C30083
:100B4000C430823153228331BD2B24302000B000C9
:100B50003008BC0020002308B1002208B000A20A1F
:100B60000319A30A30088400310885000008B20088
:100B70003208C20042080319080025304206031952
:100B8000C62D42088A31EF228531AA2D2000C001EE
:100B9000C101BF01D02D3F150130A2070030A33D98
:100BA00022088400230885000008303A0319CB2D61
:100BB000D92D220884002308850000088B313123B9
:100BC0008531031C852E2000C001C1010A30F000D0
:100BD0000030F10020004108F3004008F2008B31A2
:100BE000A223853171082000C1007008C0002208CE
:100BF0008400230885000008D03EB000FF300318B1
:100C00000030B1003008C0073108C13D0130A207F3
:100C10000030A33D220884002308850000088B31A2
:100C200031238531031C852EE62DBF16BF17A92E53
:100C30003C0886008701403FB800413FB9000230C0
:100C4000B0003008BC0738083904031D2B2E86304D
:100C5000B8009430B900BA01BB0138083A078400E3
:100C600039083B3D8500120003193B2E0130BA07BD
:100C70000030BB3D2D2E41083B02031D412E400894
:100C80003A020318482E3A08C0023B08C13B4A2EDC
:100C9000C001C101FF302000C007FF30C13D400A44
:100CA0000319410A0319662E20308A31EF2285315B
:100CB0004A2E380884003908850000088A31EF225E
:100CC000853101302000B8070030B93D0130BA024B
:100CD0000030BB3B3A0A031D592E3B0A0319AA2DCB
:100CE000592E3C08860087010108B0003008C20078
:100CF0000230B0003008BC074230B8000030B90004
:100D00000130BA000030BB003B2E20002308B100A8
:100D10002208B000A20A0319A30A3008840031088F
:100D200085000008C200003A0319EF2F583A031952
:100D3000152E3B3A0319712E073A0319A92E0D3AC5
:100D40000319A92E1A3A0319182E0B3A0319162E55
:100D50007C2E2000BF1BC32E3C0886008701403F2D
:100D6000BD00413FBE000230B0003008BC07BE1FCE
:100D7000132F0330B0003008BF04BD09BE09BD0AFF
:100D80000319BE0A132F3C0886008701403FBD00AF
:100D9000413FBE000230B0003008BC07132FC20133
:100DA000C20A0530420603191C2F4208B000B101E7
:100DB000B035B10D7430300784009430313D85007A
:100DC000003FB200013FB30033083E02031DEA2E8C
:100DD00032083D02031C1C2F0130B0003008C2074E
:100DE000D12EC201C20A0430420603191C2F420848
:100DF000B000B101B035B10D7E30300784009430C1
:100E0000313D8500003FB200013FB30033083E0290
:100E1000031D0C2F32083D02031C1C2F0130B000B3
:100E20003008C207F32E3F088039003A0319CF2E4D
:100E3000803A0319F12E1C2F400841040319282F72
:100E40003F0803390319282FFF30C007FF30C13D89
:100E50004208B000B101B01BB1033108803AB200C2
:100E60004108803A3202031D372F40083002031830
:100E7000442F20004208B000B101B01BB10330087C
:100E8000C0023108C13B472F2000C001C1013F1DF6
:100E9000602F3F0803390319512F2D308A31EF227B
:100EA00085312000400841040319792F30308A3100
:100EB000EF228531FF302000C007FF30C13D522FA7
:100EC000400841040319712F20308A31EF22853107
:100ED000FF302000C007FF30C13D40084104031D22
:100EE000642F3F0803390319792F2D308A31EF22FF
:100EF000853120004208B0003008B700DD2F0A30ED
:100F0000F8000030F9003708B000B101B035B10D7C
:100F10007430300784009430313D8500003FF0008C
:100F2000013FF1003E08F3003D08F2008C319424AB
:100F300085317108FB007008FA008C310724853177
:100F40007808303E2000D62F3708B000B101B03508
:100F5000B10D7E30300784009430313D8500003F74
:100F6000F000013FF1003E08F3003D08F2008C3133
:100F70009424853170080F392000B2003208B60081
:100F8000BF1AC62F2A30B4009330C92F1930B400CD
:100F90009330B5003508B1003408B000360830078A
:100FA000840031080318310A85000008B2003208B5
:100FB000C20042088A31EF228531FF302000B000A4
:100FC0003008B707370A0319AA2D3F088039003ABD
:100FD00003197F2F803A0319A42FD92FD92F080086
:100FE0002000EB01EC01ED01EE01EF01A0308400E7
:100FF0000030850024308A31F42220008331A02B78
:1015D6001630210097000800F10071088B310123B5
:1015E6000800640080010131890BF52A003440307F
:1015F600240094002030950092010800F00020009D
:10160600111E022B700823009A000800F000240027
:10161600951370089100141C0E2B11080800200069
:10162600911E122B23009D1C1A2B1D121D16190824
:1016360008007030210099009801220096012100CF
:101646001A1B0800222BF2007208F1007108200014
:10165600EB007008F1007108EC000800F100F001E1
:101666003A30710203183D2B30307102031C3D2BBA
:10167600F001F00A700C08008B3172238B318B312C
:101686001C238B318A31EB228B318A31FA228B3142
:1016960080310420080080308D31C1258B318B319B
:1016A600E1238B312000C7004708C8006F088D3141
:1016B600C1250800FD0022000C117808F900790800
:1016C600F1007D08FA007A08F2007D088C31C82402
:1016D600FB007B08FC0022000C157C080800143077
:1016E60022008C008E013B3021008C0032308E00AF
:1016F60023008E018C0124008C0130308E002100E5
:10170600951722009E0184309D0008002000A1004C
:101716000330A00020082100B40020002108A0000A
:1017260020082100B500B60103302000A0002008E3
:10173600F800B4308B315D23210036080800F4012F
:10174600F501701CAA2B7208F4077308F53D0130E9
:10175600F235F30D890BAB2B0130F136F00C890B0A
:10176600B02B70087104031DA42B7508F1007408D2
:10177600F00008007108F3007008F200F336F20C6E
:10178600F336F20CF336F20C7208F4007408F50026
:101796007008F2000430F235FF3E031DCE2B723581
:1017A600E039F3007308F6007508F20072082100AC
:1017B600B2007608F2007208B30008000530200077
:1017C600A00020082100B4000F302000A00020084F
:1017D6002100B50010302000A00020082100B6002E
:1017E60010302000A00020082100B700043020009F
:1017F600A0002008F800B4308B315D232000A10042
:101806002108A200220808007808790403192E2C62
:10181600FD01FD0AF91B192C0130F835F90D890B6C
:10182600102C0130FC007C08FD070D2C79087B028A
:10183600031D1F2C78087A02031C252C7808FA024F
:101846007908FB3B0130F936F80C890B262C013060
:10185600FD02031D192C7B08F9007A08F800080020
:101866002000A4000130A0002408023E890A3C2C76
:10187600A035890B3B2C2008A1002108A2000530C9
:10188600A00020082100B4002C302000A000200871
:101896002100B50020002208A00020082100B60083
:1018A600B70104302000A0002008F800B4308B31C6
:1018B6005D232000A1002108A30008002000C90024
:1018C60080308D31C1258C313F302000C70047085C
:1018D600CA000530C70047082100B4002A3020009E
:1018E600C70047082100B50020004A08C70047087E
:1018F6002100B60020004908C70047082100B700AC
:1019060004302000C7004708F800B4308B315D234F
:101916008C312000C8004808CB006F088D31C125E6
:101926000800F501F601700871040319C32CF701CC
:10193600F70AF11BA82C0130F035F10D890B9F2C0D
:101946000130F4007408F7079C2C0130F535F60DCC
:10195600890BA92C71087302031DB32C700872023F
:10196600031CBA2C7008F2027108F33B751401309F
:10197600F136F00C890BBB2C0130F702031DA82CA5
:101986007608F1007508F0000800F600F701710806
:101996000319142D7608031DF62CFB2C7208031D63
:1019A600DF2C77087607F3007308860087010108A5
:1019B6008B3109238C31F22C77087607F3007308F4
:1019C6008600870101088B3109238C31F4007708E2
:1019D6007207F500750886008701740881000130DA
:1019E600F3007308F707710877020318142DD12C3A
:1019F6007208031D102D142D00308B3109238C31F4
:101A0600F30077087207F4007408860087017308EC
:101A160081000130F3007308F70771087702031C91
:101A2600FF2C7708080020006D080319292D8D303A
:101A3600A2009430A3004408A5004308A40045086A
:101A4600A6000030A7008531A525080020006E08F5
:101A560003195F2D9A30A2009430A3004408A50014
:101A66004308A4008531A5258D312000CA0146080A
:101A76004A020318582DA030A2009430A3004A0849
:101A86004507C7004708860087010108C800C90145
:101A96004808A4004908A5008531A5258D310130E7
:101AA6002000C7004708CA073A2DA930A200943083
:101AB600A3008531A525080015302000A20093302B
:101AC600A3004508A4000030A5008531A52508001F
:101AD600A0302000E50065082100B400B501023001
:101AE6002000E5006508F800B4308B315D238D31A8
:101AF6002000E6006608E700210035082000E50022
:101B06006508E8006808031D8A2D01300800E81CF6
:101B16009B2D6B080319962D4330A2009430A30029
:101B26008531A5258D3101308F314B278D31BA2D69
:101B3600681CAC2D6B080319A72D3630A200943013
:101B4600A3008531A5258D3100308F314B278D318E
:101B5600BA2DE81DB02D0030B72DE81EB42D01308A
:101B6600B72DE81FBA2D02308C3133248D31200079
:101B7600681EBF2D00300800013008002000C60096
:101B86000230C30043082100B4000F302000C30018
:101B960043082100B50020004608C3004308210081
:101BA600B60003302000C3004308F800B4308B3180
:101BB6005D238D312000C4004408C50080304606F0
:101BC6000319E92D4608C3004308EF000330450614
:101BD600031D08000330C30043082100B4000E3083
:101BE6002000C30043082100B50003302000C300D5
:101BF6004308F800B4308B315D238D312000C400DA
:101C06004408C5006B0803190800FD30A200933094
:101C1600A300210036082000C300C4014308A40025
:101C26004408A5008531A525080005302000CA0016
:101C36000F30C900F130890B1E2EC90B1E2ECA0BA0
:101C46001E2E0030F000F1008B31BD238E312000B6
:101C560048082100B100200047082100B000C0302C
:101C66002000C90049082100B400F801F80AB43080
:101C76008B315D238E318530890B3F2E000002307B
:101C86002000C90049082100B40028302000C900FE
:101C960049082100B50005302000C9004908210087
:101CA600B600F1302000C90049082100B7004130D4
:101CB6002000C90049082100B80005302000C900ED
:101CC6004908F800B4308B315D238E310230200094
:101CD600C90049082100B40060302000C900490845
:101CE6002100B50024302000C90049082100B600B3
:101CF60003302000C9004908F800B4308B315D2359
:101D06008E3102302000C90049082100B40070302D
:101D16002000C90049082100B50020302000C90074
:101D260049082100B60003302000C9004908F80020
:101D3600B4308B315D238E312000EB01EC01003095
:101D46008D31C12508002000D20080308D31C1259B
:101D56008E318B31E1238E3108302000490200306C
:101D660003194802031CBB2EFF30C8000730C90008
:101D76004908CB004808CA00CB36CA0CCB36CA0C79
:101D8600CB36CA0C4A08CC004C08D30048080739A1
:101D9600CA000430CA35FF3E031DCD2E4A35CB009E
:101DA6004B08D4005208031DE72E4735AC3E86008B
:101DB60087014808C03F4908C13F6B0803190F2F28
:101DC600B430A2009230F62E20004735A03E8600A1
:101DD60087014808C03F4908C13F6B0803190F2F08
:101DE6008730A2009230A3004708CA00CB014A08F8
:101DF600A4004B08A5005308CC00CD014C08A60052
:101E06004D08A7005408CE00CF014E08A8004F0881
:101E1600A9008531A5258E3102302000CA004A0866
:101E26002100B4002000520803191E2F4708943ED3
:101E360084009430222F4708003E84009030031817
:101E4600013E85000008CA00CB014A08D0004B08B5
:101E5600D1005008CA004A082100B50020005308E6
:101E6600CA004A082100B60020005408CA004A08E1
:101E76002100B70004302000CA004A08F800B43038
:101E86008B315D238E3120006F088D31C12508000E
:101E96002000E4006408B43E840094300318013E38
:101EA600850000080907903ECB004B08D1000E3094
:101EB600CB004B08F80051308B315D238F31200069
:101EC600CC004C08D0005608CB004B08E300530862
:101ED600CB000530CB36890B6D2F4B08CC00CD01DE
:101EE6005208CE00CF01CE35CF0DCE35CF0DCE3533
:101EF600CF0D4C084E07E1004D084F3DE200FF3084
:101F06006105E10007306205E2006308063E513EC6
:101F16008600870181016B080319E82F3B30A20078
:101F26009330A3006408CB00CC014B08A4004C08F6
:101F3600A5005208CD00CE014D08A6004E08A70008
:101F46008531A5258F315D302000A2009330A30096
:101F56006408CB00CC014B08A4004C08A50053082C
:101F6600CD00CE014D08A6004E08A7008531A52557
:101F76008F317F302000A2009330A3006408CB008D
:101F8600CC014B08A4004C08A5005608CD00CE0194
:101F96004D08A6004E08A7008531A5258F31DF30F4
:101FA6002000A2009330A3006408CB00CC014B08AC
:101FB600A4004C08A5005708CD00CE014D08A60088
:101FC6004E08A7008531A5258F3157302000CB005C
:101FD6004B08E0006208C4006108C3006008CB003B
:101FE6004B08C5006308CC004C08C6002100310828
:101FF6008A0030080A008F310800203424345B340C
:1020060053346534743420346F3475347434703416
:102016007534743420346D346F34643465345D340F
:1020260020347B34643465346234753467343A342E
:1020360020344034763464342C3420347634653499
:10204600723462346F34733465343A342034403435
:10205600763476342C3420346E346F3472346D34E6
:1020660061346C343A342034403476346E347D3402
:102076000A34003420342034203420342034773499
:1020860069347434683420345334493444343A342B
:10209600203440346F346C34733420346F347234EB
:1020A600203440346F346E3473342C342034693425
:1020B6006E342034683465347834203466346F34B2
:1020C60072346D34613474343A34203440346F34AD
:1020D6006C34683420346F347234203440346F34B6
:1020E6006E3468340A3400345B34533465346E34E9
:1020F600643420346D346534733473346134673436
:102106006534203462346534673469346E346E3431
:1021160069346E34673420347734693474346834FF
:10212600203427344034273420346334683461340F
:102136007234613463347434653472345D342034FB
:1021460040343C3440346D34653473347334613414
:10215600673465343E340A3400345B3445346E34B7
:10216600613462346C34653420346F3470346534D1
:1021760072346134743469346F346E3420346D349F
:102186006F34643465345D3420347B346C346F349E
:102196006F3470346234613463346B343A342034CF
:1021A60040346F346C342C3420346E346F347234D3
:1021B6006D3461346C343A34203440346F346E34C8
:1021C6007D340A3400345B3453346534743420343B
:1021D6007334743461346E34643461347234643408
:1021E60020346934643465346E3474346934663446
:1021F6006934653472345D342034403469343C3497
:102206007334743461346E346434613472346434D7
:1022160020346934643465346E3474346934663415
:102226006934653472343E340A34003452345834D6
:1022360046342534643420345234583446342534F4
:102246006434533449344434483420345234583492
:102256004634253464345334493444344C343A34A3
:102266002034253434346434203425343034323444
:102276005834683420342534303432345834683491
:102286000A340034523458344D34253464342034FE
:10229600523458344D342534643453344934443438
:1022A60048342034523458344D342534643453344D
:1022B600493444344C343A34203425343434643488
:1022C60020342534303432345834683420342534BC
:1022D60030343234583468340A3400345B3452347F
:1022E60065346334653469347634653420346D344A
:1022F6006534733473346134673465345D34203443
:102306003C346D3465347334733461346734653406
:102316003E342034773469346C346C34203462347F
:10232600653420346F3475347434703475347434D1
:102336000A3400345B3453346534743420346634E0
:1023460069346C347434653472345D34203440340A
:1023560066343C346E343E343C34663469346C3412
:102366007434653472342834533449344434313443
:10237600303420347E3420345334493444343034B9
:1023860029343E340A3400345B34533465347434AF
:1023960020346D34613473346B345D34203440340E
:1023A6006D343C346E343E343C346D3461347334B5
:1023B6006B34283453344934443431343034203483
:1023C6007E342034533449344434303429343E3452
:1023D6000A3400345B34413462346F3472347434FA
:1023E600203461346C346C342034703465346E348B
:1023F600643469346E34673420347434723461342E
:102406006E3473346D3469347334733469346F34B1
:102416006E3473345D342034403461340A3400340D
:102426002F342F342F34203455344134523454341D
:102436003234433441344E342034483445344C34F9
:102446005034203428347634653472347334693425
:102456006F346E34203425347334293420342F34C9
:102466002F342F340A3400345B34443475346D34DD
:10247600703420346D34613473346B3473342034E7
:1024860061346E3464342034663469346C347434A4
:102496006534723473345D342034403446340A343F
:1024A60000345B34533465346E34643420346D3414
:1024B6006534733473346134673465345D34203481
:1024C6003C346D3465347334733461346734653445
:1024D6003E340A3400345B34533465347434203467
:1024E6006234613475346434203472346134743443
:1024F60065345D342034403462343C3462347034A4
:1025060072343E340A340034663469346C347434BC
:102516006534723428342534643429343A3420340A
:10252600253430343234783420342534303432345F
:1025360078340A3400345B34533468346F34773477
:102546002034743468346934733420346834653420
:102556006C3470345D343A342034403468340A3490
:1025660000346D34613473346B3428342534643468
:1025760029343A3420342534303432347834203413
:1025860025343034323478340A3400345B344434FD
:1025960075346D347034203472346534673469347C
:1025A600733474346534723473345D342034403497
:1025B60044340A34003430342E3431343334203445
:1025C60020344D3461347234633468342034323408
:1025D60033342C342034323430343134383400340B
:1025E60043346F347034793469346E34673420344C
:1025F6006234753466346634653472343A34203461
:10260600253463340A3400344D34653473347334FA
:102616006134673465342034733465346E3474340D
:102626003A342034253473340A34003430343134A7
:102636003234333434343534363437343834393448
:10264600413442344334443445344634003430341F
:102656003134323433343434353436343734383430
:102666003934613462346334643465346634003436
:10267600523458344234253464345334493444345F
:1026860048343A34203425343034323478340A34F9
:102696000034543458344234253464345334493481
:1026A600443448343A34203425343034323478349F
:1026B6000A340034523458344234253464345334A2
:1026C600493444344C343A342034253430343234AA
:1026D60078340A340034543458344234253464345B
:1026E6005334493444344C343A3420342534303469
:1026F600323478340A34003452345834423425346F
:10270600643444344C3443343A342034253430343D
:10271600323478340A340034523458344234303443
:102726004334543452344C343A342034253430341F
:10273600323478340A340034543458344234303421
:102746004334543452344C343A34203425343034FF
:10275600323478340A340034523458344234313402
:102766004334543452344C343A34203425343034DF
:10277600323478340A3400345434583442343134E0
:102786004334543452344C343A34203425343034BF
:10279600323478340A3400345434583442343234BF
:1027A6004334543452344C343A342034253430349F
:1027B600323478340A3400345234583442342534AE
:1027C6006434443430343A342034253430343234AA
:1027D60078340A340034433441344E344334543468
:1027E60052344C343A34203425343034323478344C
:1027F6000A340034433441344E345334543441346F
:1028060054343A34203425343034323478340A346B
:1028160000345434583442343034203469347334F8
:102826002034693464346C3465340A3400345434E6
:1028360058344234313420346934733420346934A2
:1028460064346C3465340A340034543458344234B5
:1028560032342034693473342034693464346C344B
:1028660065340A34003452345834303449344634EA
:1028760020346934733420346F346E340A340034AF
:10288600523458343134493446342034693473343C
:1028960020346F346E340A34003443344E344634B4
:1028A60031343A34203425343034323478340A34EE
:1028B600003443344E34463432343A3420342534EA
:1028C6003034323478340A34003443344E344634A7
:1028D60033343A34203425343034323478340A34BC
:1028E6000034013400340A34003464340034E834EB
:1028F60003341034273401340034103400340034E7
:1029060001340034103428346E3475346C346C342D
:1029160029340034253464342C34253473340A3491
:102926000034003404340834103414341834253494
:102936003034333478343A34003420342534303467
:102946003234783400342D342D342D340A340034A6
:102956003134413451340034023404342534633480
:06296600003400340234CD
:020000040001F9
:04000E00E4FFFFFF0D
:00000001FF
