:08000000803102288731D42F62
:10000C00083023009F0090309D0024309E00333038
:10001C009B009C010800F600F701710803195D288C
:10002C007608031D3F2844287208031D28287708EA
:10003C007607F30073088600870101088E31392694
:10004C0080313B2877087607F30073088600870118
:10005C0001088E3139268031F40077087207F500DB
:10006C00750886008701740881000130F30073085D
:10007C00F7077108770203185D281A287208031D08
:10008C0059285D2800308E3139268031F3007708ED
:10009C007207F40074088600870173088100013030
:1000AC00F3007308F70771087702031C48287708D8
:1000BC000800FD007D088600870120300106031D25
:1000CC006C280130F8007808FD0760287D08860050
:1000DC0087010930010603196728FB01FC01FA01AD
:1000EC007D08860087012D300106031D8228013012
:1000FC00F8007808FA0789287D08860087012B30DC
:10010C000106031D8D280130F8007808FD077D08D5
:10011C008600870101088E314C268031031CB228E1
:10012C007C08F1007B08F0000A30F2000030F3008C
:10013C008E31952680317D08860087010108700775
:10014C00F80071080318710AF9007808D03EFB001A
:10015C00FF30793DFC0089287A080319C1287B09F6
:10016C00F8007C09F900F80A0319F90A7808F60076
:10017C007908F70008007C08F7007B08F6000800F7
:10018C002000D20052084A3E840093300318013EEE
:10019C00850000080907903EB9003908BF000E30F1
:1001AC00B9003908F8003F308E31692680312000C3
:1001BC00BA003A08BE004408B9003908CE0041081C
:1001CC00B9000530B936890BE8283908BA00BB01EB
:1001DC004008BC00BD01BC35BD0DBC35BD0DBC35EA
:1001EC00BD0D3A083C07CF003B083D3DD000FF3029
:1001FC004F05CF0007305005D0004E08063E3F3E5D
:10020C008600870181015F08031963292830A0004B
:10021C009230A1005208B900BA013908A2003A087C
:10022C00A3004008BB00BC013B08A4003C08A5008F
:10023C008231D32280316C302000A0009230A1009A
:10024C005208B900BA013908A2003A08A3004108C3
:10025C00BB00BC013B08A4003C08A5008231D322A2
:10026C008031B0302000A0009230A1005208B900BB
:10027C00BA013908A2003A08A3004408BB00BC012B
:10028C003B08A4003C08A5008231D3228031C03049
:10029C002000A0009230A1005208B900BA01390820
:1002AC00A2003A08A3004508BB00BC013B08A4000F
:1002BC003C08A5008231D322803145302000B900A2
:1002CC003908D100600803197729620803197229CB
:1002DC005430A00091307E29B1302000A000913024
:1002EC008C2920006208031988296630A0009130FF
:1002FC00A1005008A3004F08A2005108B90039080A
:10030C00A4009129C3302000A0009130A100510815
:10031C00B9003908A2008231D322803103102200A7
:10032C008E1D0314031C9D2922008E15080022002B
:10033C008E1108002000CE00D7016808CD00670898
:10034C00CC000230BA003A08F8004C308E316926E5
:10035C0081312000BB003B08D0004D08BA003A08A0
:10036C00D2005219C6295F080319C329DE30A00038
:10037C009230A1008231D32281312000D701E729AC
:10038C00521AD6295F080319D229EC30A0009230FA
:10039C00A1008231D32281312000D701D70AE7296D
:1003AC00521FE7295F080319E229FA30A0009230A6
:1003BC00A1008231D322813102302000BA003A08E8
:1003CC00D7005708443E840093300318013E850043
:1003DC000008403EBA003A08BE006308BA003A086A
:1003EC00BF006408BA003A08C000C101C201390854
:1003FC00BA003A08C300D601390856020318312A4C
:10040C0056084E07BA003A08860087010108BB005F
:10041C005608063E3E3E860087013B0881005F0879
:10042C0003192B2ADC30A0009130A1005608063E9F
:10043C003E3E860087010108BA00BB013A08A200C3
:10044C003B08A3008231D322813101302000BA0055
:10045C003A08D607022A3908063EBA003A08CF00F5
:10046C004F08BA003A08F8003E308E3169268131C7
:10047C002000BB003B08D0000330BA003A08D30080
:10048C005708413E840093300318013E8500000854
:10049C00BA003A08D400D5010330BA003A08F80083
:1004AC0053308E316926813120005F080319732A7D
:1004BC003930A0009230A1005708BA00BB013A08AD
:1004CC00A2003B08A3005508BC00BD013C08A400D9
:1004DC003D08A5008231D322813103302000BA00BF
:1004EC003A08D3005708413E840093300318013E6C
:1004FC0085000008013EBA003A08D400D50103304B
:10050C00BA003A08F80053308E3169268131200048
:10051C005F080319A62A7D30A0009230A10057086D
:10052C00BA00BB013A08A2003B08A3005508BC0066
:10053C00BD013C08A4003D08A5008231D3228131C5
:10054C00200050084F06031DD12A0130BA00570A6B
:10055C00B02ABA35890BAF2A3A08803EBB003B085B
:10056C00D100F801F80A51308E3169268131200012
:10057C00BA003A08D0005003031DD12A0310220000
:10058C008E1D0314031CCD2A22008E15CF2A2200A7
:10059C008E11013008000030080022302000A80025
:1005AC002808B20020002108A9002008A800A00AF1
:1005BC000319A10A28088400290885000008AA004C
:1005CC002A08B80038080319080025303806031922
:1005DC00F42A38088E3113268231D82A2000B6012D
:1005EC00B701B501FE2A35150130A0070030A13D39
:1005FC0020088400210885000008303A0319F92AE4
:10060C00072B200884002108850000088E314C2619
:10061C008231031CB22B2000B601B7010A30F00066
:10062C000030F10020003708F3003608F2008E315C
:10063C009526823171082000B7007008B60020089A
:10064C008400210885000008D03EA800FF30031864
:10065C000030A9002808B6072908B73D0130A007CB
:10066C000030A13D200884002108850000088E314F
:10067C004C268231031CB22B142BB517D32B32080A
:10068C00860087010108AE000030AF000130A800E1
:10069C002808B2072E082F04031D582B3430AE0047
:1006AC009330AF00B001B1012E08300784002F0841
:1006BC00313D850012000319682B0130B007003062
:1006CC00B13D5A2B37083102031D6E2B3608300210
:1006DC000318752B3008B6023108B73B772BB601DF
:1006EC00B701FF302000B607FF30B73D360A0319BB
:1006FC00370A0319932B20308E3113268231772B36
:10070C002E0884002F08850000088E3113268231B4
:10071C0001302000AE070030AF3D0130B002003098
:10072C00B13B300A031D862B310A0319D82A862BBC
:10073C003208860087010108A8002808B80002309A
:10074C00A8002808B2073830AE000030AF000130E6
:10075C00B0000030B100682B20002108A90020084F
:10076C00A800A00A0319A10A2808840029088500FA
:10077C000008B800003A03190D2D633A03199E2B9B
:10078C00073A0319D32B0D3A0319D32B1A3A031931
:10079C00452B0B3A0319432BA92B2000B51BED2B32
:1007AC00320886008701403FB300413FB40002305D
:1007BC00A8002808B207B41F3D2C0330A800280855
:1007CC00B504B309B409B30A0319B40A3D2C3208B1
:1007DC0086008701403FB300413FB4000230A800BF
:1007EC002808B2073D2CB801B80A053038060319A1
:1007FC00462C3808A800A901A835A90D22302807D5
:10080C0084009330293D8500003FAA00013FAB00D6
:10081C002B083402031D142C2A083302031C462C0B
:10082C000130A8002808B807FB2BB801B80A04301F
:10083C0038060319462C3808A800A901A835A90DBB
:10084C002C30280784009330293D8500003FAA00F6
:10085C00013FAB002B083402031D362C2A0833024F
:10086C00031C462C0130A8002808B8071D2C35089D
:10087C008039003A0319F92B803A03191B2C462CAA
:10088C00360837040319522C350803390319522C36
:10089C00FF30B607FF30B73D3808A800A901A81BE8
:1008AC00A9032908803AAA003708803A2A02031DB6
:1008BC00612C3608280203186E2C20003808A8007A
:1008CC00A901A81BA9032808B6022908B73B712C5B
:1008DC002000B601B701351D8A2C350803390319E0
:1008EC007B2C2D308E3113268231200036083704B4
:1008FC000319A32C30308E3113268231FF302000A7
:10090C00B607FF30B73D7C2C3608370403199B2CF7
:10091C0020308E3113268231FF302000B607FF3095
:10092C00B73D36083704031D8E2C350803390319DF
:10093C00A32C2D308E311326823120003808A800CC
:10094C002808AD00FB2C0A30F8000030F9002D0807
:10095C00A800A901A835A90D2230280784009330DE
:10096C00293D8500003FF000013FF1003408F30001
:10097C003308F2008F31042782317108FB007008B4
:10098C00FA008E31D82682317808303E2000AA0039
:10099C002A08F62C2D08A800A901A835A90D2C3081
:1009AC00280784009330293D8500003FF000013F6B
:1009BC00F1003408F3003308F2008F310427823140
:1009CC0070080F392000AA002A08AC002C08173E2A
:1009DC00840092300318013E85000008A800280806
:1009EC00B80038088E3113268231FF302000A80061
:1009FC002808AD072D0A0319D82A35088039003A82
:100A0C000319A92C803A0319D02CF72CF72C0800C9
:100A1C008E315A26853100302000B900BA008F3152
:100A2C003827853180308F3173278531C13086006E
:100A3C0000308700A0308400003085000530200095
:100A4C00D90016001A00D90B272D0530D9005908EA
:100A5C00F800A0308E31692685312000DF01E001DD
:100A6C00E10100308F31732785318D2DBA30803103
:100A7C005F20853176082000D90059082100A90093
:100A8C0029082000D900DA015908B9005A08BA001F
:100A9C008F3138278531162F643021003A06031D1B
:100AAC005B2D2000DF01DF0A622D763021003A0633
:100ABC00031D652D2000DF01E001E00A162F6E30CA
:100ACC0021003A06031D162F2000DF01E001162F2E
:100ADC006C3021003A06031D7A2D40302000D900DD
:100AEC005908E1004030822D6E3021003A06031D7A
:100AFC00852D2000E10100308F31732785312100D5
:100B0C003B080319162F6E303B06031D902D200059
:100B1C00E201162F733021003B06031D162F200017
:100B2C00E201E20A162F80308F31732785312100C4
:100B3C003A08D03E2000D90059082100B500BB303E
:100B4C0080315F20853177082100AD007608AC003C
:100B5C002D082000DA0021002C082000D900DA36FC
:100B6C00D90CDA36D90CDA36D90C5908DB005B080B
:100B7C002100AE002C0807392000D9000430D935EB
:100B8C00FF3E031DC52D5935DA005A082100AF0070
:100B9C0020005F080319FF2D6D3021003406031D62
:100BAC00DC2DC7302000A0009130E02D84302000D7
:100BBC00A0009130A100210035082000D900DA01F5
:100BCC005908A2005A08A30021002E082000DB00BF
:100BDC00DC015B08A4005C08A50021002F082000A4
:100BEC00DD00DE015D08A6005E08A7008231D3227D
:100BFC00853102302000D90059082100B0006D3039
:100C0C00340603190E2E35083B3E84009330122E09
:100C1C0035084C3E840093300318013E85000008D3
:100C2C002000D900DA0159082100A50020005A083B
:100C3C002100A60025082000D90059082100B10088
:100C4C002E082000D90059082100B2002F082000DE
:100C5C00D90059082100B30004302000D9005908EC
:100C6C00F800B0308E316926853120005F080319F9
:100C7C00C82E0330D90059082100B0006D3034065D
:100C8C0003194D2E35083B3E84009330512E350808
:100C9C004C3E840093300318013E85000008200070
:100CAC00D900DA0159082100A70020005A082100B8
:100CBC00A80027082000D90059082100B100B20172
:100CCC00B30104302000D9005908F800B0308E313F
:100CDC00692685316D3021003406031D942E5B305E
:100CEC002000A0009230A100210035082000D9007E
:100CFC00DA015908A2005A08A3002100320820008A
:100D0C00DB00DC015B08A4005C08A5008231D32267
:100D1C0085319F302000A0009230B22E4A30200046
:100D2C00A0009230A100210035082000D900DA0182
:100D3C005908A2005A08A300210032082000DB0049
:100D4C00DC015B08A4005C08A5008231D32285314C
:100D5C008E302000A0009230A10021003508200028
:100D6C00D900DA015908A2005A08A300210033085F
:100D7C002000DB00DC015B08A4005C08A5008231CC
:100D8C00D3228531200061088F3173278531162FCE
:100D9C006D302000A0009130A1008231D32285312A
:100DAC0072302000A0009030A1008231D322853116
:100DBC0001302000A0009030A1008231D322853177
:100DCC003C302000A0009030A1008231D32285312C
:100DDC00FB302000A0009030A1008231D32285315D
:100DEC00D1302000A0009030A1008231D322853177
:100DFC0021302000A0009130A1008231D322853116
:100E0C00A5302000A0009030A1008231D322853182
:100E1C009B302000A0009130A1008231D32285317B
:100E2C002100B6018F31B62785312000911E182F75
:100E3C008E31422685312000D90059082100B70097
:100E4C002000600803193A2F4730A0009330A1000E
:100E5C00210037082000D900DA015908A2005A08ED
:100E6C00A3008231D3228531210037082000D9001C
:100E7C0021003608B83E8600870120005908810001
:100E8C000A3021003706031D952F3608B83E860020
:100E9C008701810140303806031D702F390820006E
:100EAC00D90059082100B40021003408663A03190E
:100EBC00992D0E3A0319CE2E013A03193C2D043A02
:100ECC000319992D023A03196E2D193A0319522D53
:100EDC00942F162F36082000D9005908B900B830C5
:100EEC008131A02185312000DA005A082100AA00A6
:100EFC002A080319892F200060080319162F0530C2
:100F0C00A0009230C62F200060080319162F3C3029
:100F1C00A0009130A1008231D3228531162F0130EF
:100F2C002000D90059082100B60700308400903009
:100F3C00850000082000DA002100360820005A0243
:100F4C000318182F21003608B83E8600870181014E
:100F5C0036082000D9005908B900B8308131A021D9
:100F6C0085312000DA005A082100AB002B08031948
:100F7C00CC2F200060080319162F0430A0009230EB
:100F8C00A100B830D9005908A200132F2000600826
:100F9C000319162F3B30A0009130122F0F30840014
:100FAC008E308500653086000030870004308E312D
:100FBC001D268731183084008E308500C1308600A4
:100FCC000030870005308E311D26DF01E001E10184
:100FDC00E201E301E4012100B601B701B801B90156
:100FEC00BA01BB01BC01BD01BE01BF01C0012000A3
:040FFC0085310E2D00
:101C16001630210097000800A0340034A0340034A8
:101C2600F10071088E31312608000234283405345B
:101C3600F1344134FE0012001E00FE0B1E2E00344D
:101C4600603021009900980122009601080040307A
:101C5600240094002030950092010800F000200036
:101C6600111E322E700823009A000800F00024008E
:101C7600951370089100141C3E2E110808002000D0
:101C8600911E422E23009D1C4A2E1D121D16190858
:101C96000800F100F0013A3071020318582E303076
:101CA6007102031C582EF001F00A700C08008E31E8
:101CB6007E268E318E3123268E318E310B268E3145
:101CC6008E312A268E31803106200800FD00220042
:101CD6000C127808F9007908F1007D08FA007A08F4
:101CE600F2007D0880311120FB007B08FC002200F9
:101CF6000C167C080800103022008C008E012F3054
:101D060021008C0032308E0023008E0107308C00BB
:101D160024008C0130308E002100951322009E0194
:101D26009D010800F401F501701C9D2E7208F40750
:101D36007308F53D0130F235F30D890B9E2E013007
:101D4600F136F00C890BA32E70087104031D972E33
:101D56007508F1007408F00008002000A2000130A8
:101D6600A0002208023E890AB92EA035890BB82E9A
:101D76002008A1002108A3000530A0002008A50026
:101D86002C30A0002008A6002308A0002008A700E9
:101D9600A8010430A0002008F80025308E316926FD
:101DA6002000A1002108A40008007808790403197E
:101DB600FF2EFD01FD0AF91BEA2E0130F835F90D5B
:101DC600890BE12E0130FC007C08FD07DE2E790828
:101DD6007B02031DF02E78087A02031CF62E780883
:101DE600FA027908FB3B0130F936F80C890BF72E1D
:101DF6000130FD02031DEA2E7B08F9007A08F8007F
:101E06000800F501F601700871040319332FF70174
:101E1600F70AF11B182F0130F035F10D890B0F2F42
:101E26000130F4007408F7070C2F0130F535F60D74
:101E3600890B192F71087302031D232F7008720274
:101E4600031C2A2F7008F2027108F33B7514013047
:101E5600F136F00C890B2B2F0130F702031D182FDA
:101E66007608F1007508F000080020003A08BC006A
:101E76003908BB00BC36BB0CBC36BB0CBC36BB0C35
:101E86003B08BD003D08BF003908BB000430BB3528
:101E9600FF3E031D4A2F3B35E039BC003C08C0001D
:101EA6003F08BB003B08E3004008BB003B08E400DA
:101EB6005F0803190800F030A0009130A1003F0828
:101EC600BB00BC013B08A2003C08A3004008BD00C3
:101ED600BE013D08A4003E08A5008231D3220800B9
:101EE6002000BB000230B9003908BD000F30B90030
:101EF6003908BE003B08B9003908BF000330B900F5
:101F06003908F8003D308E3169268F312000BA003D
:101F16003A08BC0003303C06031D08000330B90034
:101F26003908BD000E30B9003908BE000330B900CB
:101F36003908F8003D308E3169268F312000BA000D
:101F46003A08BC005F0803190800CF30A0009230A1
:101F5600A1003F08B900BA013908A2003A08A30057
:101F66008231D322080020006608D7006508D60013
:101F76000230D3005308F80056308E3169268F316F
:101F86002000D4005408D5005708D3005308D800C1
:101F9600580803190800581CDE2F5F080319DA2FAA
:101FA6000830A0009330A1008231D3228F31003057
:101FB6008031C6200800D81CEE2F5F080319EA2FCF
:101FC6001530A0009330A1008231D3228F31013029
:101FD6008031C6200800D81DF42F00308E31B0267F
:101FE6000800D81EFA2F01308E31B0260800D81FFF
:101FF600080002308E31B026080007345B345334B3
:102006006534743420346F347534743470347534F4
:10201600743420346D346F34643465345D34203464
:102026007B34643465346234753467343A3420342E
:102036004034763464342C34203476346534723447
:1020460062346F34733465343A3420344034763431
:1020560076342C3420346E346F3472346D346134FB
:102066006C343A342034403476346E347D340A3459
:1020760000345B3445346E34613462346C34653418
:1020860020346F3470346534723461347434693496
:102096006F346E3420346D346F34643465345D349B
:1020A60020347B346C346F346F3470346234613472
:1020B60063346B343A34203440346F346C342C340B
:1020C60020346E346F3472346D3461346C343A3487
:1020D600203440346F346E347D340A3400345B343B
:1020E60053346534743420347334743461346E3448
:1020F600643461347234643420346934643465344D
:102106006E347434693466346934653472345D34DB
:102116002034403469343C345334743461346E347E
:10212600643461347234643420344934643465343C
:102136006E347434693466346934653472343E34CA
:102146000A3400345B34523465346334653469349C
:102156007634653420346D346534733473346134C5
:10216600673465345D3420343C346D3465347334FF
:1021760073346134673465343E34203477346934DB
:102186006C346C3420346234653420346F347534E6
:1021960074347034753474340A3400345B34533414
:1021A600653474342034663469346C34743465347C
:1021B60072345D342034403466343C346E343E34FC
:1021C6003C34663469346C3474346534723428347F
:1021D6005334493444343134303420347E3420345A
:1021E600533449344434303429343E340A340034C8
:1021F6005B3453346534743420346D346134733451
:102206006B345D34203440346D343C346E343E34AB
:102216003C346D34613473346B342834533449346C
:1022260044343134303420347E3420345334493409
:102236004434303429343E340A3400345B34533465
:1022460065346E34643420346D34653473347334D9
:102256006134673465345D3420343C346D34653420
:10226600733473346134673465343E340A3400346D
:102276000A3455346E34613462346C346534203437
:1022860074346F342034733465346E3464342034DB
:102296006D346534733473346134673465340A34A9
:1022A60000344D34653473347334613467346534C3
:1022B6002034723465346334653469347634653475
:1022C60064343A342034253464342C34253473345D
:1022D6000A3400342D342D342D3420345534413411
:1022E600523454343234433441344E342034483436
:1022F60045344C34503420342D342D342D340A34A6
:102306000034663469346C34743465347234283479
:102316002534643429343A34203425343034323484
:102326007834203425343034323478340A34003466
:102336005B34533468346F347734203474346834FF
:10234600693473342034683465346C3470345D34E5
:102356003A342034403468340A3400344D34653419
:1023660073347334613467346534203472346534BD
:102376006334653469347634653464343A342034ED
:10238600253473340A3400346D34613473346B3459
:1023960028342534643429343A342034253430340E
:1023A60032347834203425343034323478340A34B4
:1023B600003443346F347034793469346E3467349E
:1023C60020346234753466346634653472343A3493
:1023D6002034253463340A340034533449344434C5
:1023E60020347334653474343A342034253430342C
:1023F60032347834203425343034323478340A3464
:1024060000340A344D3465347334733461346734BC
:1024160065342034733465346E3474343A3420347D
:10242600253473340A34003430343134323433349E
:1024360034343534363437343834393461346234EC
:102446006334643465346634003452345834423468
:102456002534643453344934443448343A342034CB
:1024660025343034323478340A3400345434583411
:1024760042342534643453344934443448343A3489
:10248600203425343034323478340A34003452342B
:102496005834463425346434533449344434483447
:1024A6003A34203425343034323478340A34003423
:1024B600523458344D342534643453344934443416
:1024C60048343A34203425343034323478340A34BB
:1024D6000034523458344234253464345334493445
:1024E60044344C343A34203425343034323478345D
:1024F6000A34003454345834423425346434533462
:10250600493444344C343A3420342534303432346B
:1025160078340A340034523458344634253464341A
:102526005334493444344C343A342034253430342A
:10253600323478340A340034523458344D34253425
:1025460064345334493444344C343A3420342534D6
:102556003034323478340A34003452345834423405
:102566002534643444344C3443343A3420342534EA
:102576003034323478340A340034523458344234E5
:1025860025346434443430343A34203425343034F9
:10259600323478340A340034433441344E345334BC
:1025A6005434413454343A342034253430343234BB
:1025B60078340A34003454345834423430342034B5
:1025C600693473342034693464346C3465340A34C1
:1025D600003454345834423431342034693473343A
:1025E6002034693464346C3465340A340034543429
:1025F60058344234323420346934733420346934E4
:1026060064346C3465340A3400345234583430340B
:102616004934463420346934733420346F346E348C
:102626000A34003452345834313449344634203470
:102636006934733420346F346E340A340034013410
:1026460000340A34003464340034E834033410347B
:10265600273401340034103400340034013400349B
:10266600103428346E3475346C346C3429340034A8
:1026760000340434083410341434183431344134FA
:1026860051340034023404342534633400340034C5
:062696000234203424345C
:020000040001F9
:04000E00E4FFFFFE0E
:00000001FF
