:08000000803102288731E22F54
:1006A60002340F3400341630210097000800F100A0
:1006B600710883316B2308002400940120309500D3
:1006C60092010800640080010131890B662B003419
:1006D600F0002000111E6C2B700823009A00080001
:1006E600F0002400951370089100141C782B110853
:1006F60008002000911E7C2B23009D1C842B1D12BC
:100706001D16190808007030210099009801220072
:10071600960121001A1B08008C2B083023009F002D
:1007260090309D0024309E0040309B0003309C009A
:100736000800F100F0013A3071020318A82B30309E
:100746007102031CA82BF001F00A700C080083311B
:10075600B923833183318623833183315623833111
:1007660083315F23833183319023080022008C017B
:100776008E013F3021008C0032308E0023008E0126
:1007860017308C0024008C0130308E002100951328
:1007960022009E019D01080020005008A00051087B
:1007A600A1005208A2000330F8007808F1002030BA
:1007B600F9007908F200203084316D24FA007A08B5
:1007C6002000A3000800F401F501701CEE2B72084E
:1007D600F4077308F53D0130F235F30D890BEF2B65
:1007E6000130F136F00C890BF42B70087104031DEF
:1007F600E82B7508F1007408F0000800F501F60111
:10080600700871040319302CF701F70AF11B152C37
:100816000130F035F10D890B0C2C0130F400740811
:10082600F707092C0130F535F60D890B162C7108E2
:100836007302031D202C70087202031C272C7008FB
:10084600F2027108F33B75140130F136F00C890B96
:10085600282C0130F702031D152C7608F1007508C7
:10086600F000080020003208B4003108B300B436A6
:10087600B30CB436B30CB436B30C3308B500350834
:10088600B7003108B3000430B335FF3E031D472CD3
:100896003335E039B4003408B8003708B3003308FC
:1008A600BD003808B3003308BE001830F8008830A1
:1008B600F9003708B300B4013308FA003408FB0026
:1008C6003808B500B6013508FC003608FD0086314B
:1008D6003E260800F600F70171080319B92C7608C0
:1008E600031D9B2CA02C7208031D842C7708760709
:1008F600F30073088600870101088331732384316E
:10090600972C77087607F30073088600870101089D
:10091600833173238431F40077087207F500750874
:1009260086008701740881000130F3007308F70719
:10093600710877020318B92C762C7208031DB52CA2
:10094600B92C0030833173238431F30077087207A2
:10095600F400740886008701730881000130F300F3
:100966007308F70771087702031CA42C77080800A0
:1009760076088400770885001200203A031DC82CEB
:100986000130F6070030F73DBB2C76088400770867
:1009960085001200093A0319C32CFB01FC01FA0178
:1009A600760884007708850012002D3A031DE02C96
:1009B6000130F8007808FA07E82C760884007708F2
:1009C600850012002B3A031DEC2C0130F60700308F
:1009D600F73D7608840077088500000883319C235C
:1009E6008431031C132D7C08F1007B08F0000A30CB
:1009F600F2000030F3008331E62384317608840068
:100A06007708850000087007F80071080318710A56
:100A1600F9007808D03EFB00FF30793DFC00E82C59
:100A26007A080319222D7B09F8007C09F900F80AD7
:100A36000319F90A7808F6007908F70008007C0817
:100A4600F7007B08F60008002000A3000230FA0039
:100A56007A08C10023084C3E840088300318013E02
:100A660085000008013EFA007A08C2003D08FA0037
:100A76007A08C3003E08FA007A08C400C501C60118
:100A86007908FA007A08C700A6010130FA007A0848
:100A9600A607260303195F2D26087807FA007A08A9
:100AA600860087010108FB002608073E413E8600B6
:100AB60087017B088100482DA5017908073EFA00C9
:100AC6007A08A4002408FA007A08F1004130FB00F5
:100AD6007B08F200413084316D248531FC007C08AE
:100AE6002000A50025082406031D08000230FA0090
:100AF6007A08A00023084C3E840088300318013E83
:100B060085000008FA007A08A1000B30FA007A087E
:100B1600A2000330FA007A08F1002030FB007B08BF
:100B2600F200203084316D24FC007C082000A500F2
:100B360008008331AA23853100302000B100B200BD
:100B46008431352485318331CF2385312000911EB0
:100B5600A92D83317C2385312000B9003908C000D6
:100B66004F30F8008830F9004008B900BA0139085A
:100B7600FA003A08FB0086313E2685310310220032
:100B86008E1D0314031CCA2D22008E15CC2D2200A7
:100B96008E1120004008B9003F08A03E860087015C
:100BA600390881000A304006031D102E3F08A03E7A
:100BB600860087018101403021002006031DFF2D9C
:100BC600A130F6000030F7008431BB248531770868
:100BD6002000BC007608BB003C08F7003B08F60086
:100BE6008431BB24853177082000B2007608B10035
:100BF6008431352485313B2EA0302000B9003908D8
:100C0600F8003F08BA003A08F90000308531272578
:100C160085310230F8008830322E0130B9003908AB
:100C2600BF0700308400883085000008BA003F08FE
:100C36003A020318A92D3F08A03E860087018101CC
:100C4600A030B9003908F8003F08BA003A08F900A0
:100C560000308531272585310130F8008830F900CC
:100C6600A0302000B9003908FA0086313E268531C9
:100C76002000BF01A92D7A302000A0002008AB007B
:100C860079082000A1007808A000F80A0319F90ADB
:100C960020088400210885000008A2002208B00070
:100CA6003008031908002530300603195F2E300876
:100CB60083315A238631432E2000AE01AF01A501B0
:100CC6006A2E200025150130F8070030F93D780816
:100CD6008400790885000008303A0319642E732EC3
:100CE6007808840079088500000883319C238631C2
:100CF600031C1D2F2000AE01AF010A30F0000030AA
:100D0600F10020002F08F3002E08F2008331E623BD
:100D1600863171082000AF007008AE0078088400A4
:100D2600790885000008D03EA000FF300318003087
:100D3600A1002008AE072108AF3D0130F8070030BA
:100D4600F93D7808840079088500000883319C23E2
:100D56008631031C1D2F802E20002B08860087015C
:100D66000108A9000030AA000130A0002008AB0746
:100D760029082A04031DC32E4530A9008830AA007D
:100D8600AC01AD0129082C0784002A082D3D8500F9
:100D960012000319D32E0130AC070030AD3DC52E2D
:100DA6002F082D02031DD92E2E082C020318E02E23
:100DB6002C08AE022D08AF3BE22EAE01AF01FF308C
:100DC6002000AE07FF30AF3D2E0A03192F0A031984
:100DD600FE2E203083315A238631E22E29088400E4
:100DE6002A088500000883315A2386310130200005
:100DF600A9070030AA3D0130AC020030AD3B2C0AF9
:100E0600031DF12E2D0A0319432EF12E2B08860001
:100E160087010108A0002008B0000230A0002008C9
:100E2600AB073030A9000030AA000130AC0000301A
:100E3600AD00D32E79082000A1007808A000F80A9A
:100E46000319F90A20088400210885000008B0006B
:100E5600003A0319E12F633A0319092F103A0319CF
:100E6600AF2E0B3A0319382F142F20002B088600BB
:100E76008701403FA600413FA7000230A00020089E
:100E8600AB07B001B00A043030060319692F3008E9
:100E9600A000A101A035A10D3D30200784008830B7
:100EA600213D8500003FA200013FA3002308270241
:100EB600031D5F2F22082602031C692F0130A000A4
:100EC6002008B00704303006031D4A2F3008A00062
:100ED600A101A01BA1032108803AA2002F08803A95
:100EE6002202031D782F2E0820020318852F2000CA
:100EF6003008A000A101A01BA1032008AE02210812
:100F0600AF3B882F2000AE01AF01251D982F2E087C
:100F16002F040319A92F303083315A238631FF302D
:100F26002000AE07FF30AF3D8A2F2E082F0403198D
:100F3600A92F203083315A238631FF302000AE0797
:100F4600FF30AF3D2E082F04031D9C2F3008A00054
:100F56002008A800FF302000A0002008A807280AC3
:100F66000319432E2808A000A101A035A10D3D308C
:100F7600200784008830213D8500003FF000013FB6
:100F8600F1002708F3002608F20084310124863197
:100F960070080F392000A2002208A40024082C3E65
:100FA600840088300318013E85000008A000200850
:100FB600B000300883315A238631AD2F08008331C3
:100FC60053238731D000833154238731D1008331B5
:100FD60055238731D2003D30840000308500133020
:100FE600833165238731A03084000030850040308E
:100FF60083316523200085319C2D3F340A344334E8
:1010060041344E3420346D34653473347334613472
:10101600673465342034733465346E3474343A344A
:101026002034253473340A34003453344934443478
:1010360020347334653474343A34203425343034EF
:1010460032347834203425343034323478340A3427
:101056000034303431343234333434343534363485
:101066003734383439346134623463346434653443
:101076006634003401340034103400340034013452
:101086000034103428346E3475346C346C3429349E
:0E109600003430344034503425346334003498
:020000040001F9
:04000E00E4FFFFFF0D
:00000001FF
