:08000000803102288731EB2F4B
:10000E007108F3007008F200F336F20CF336F20CBE
:10001E00F336F20C7208F4007408F5007008F20062
:10002E000430F235FF3E031D18287235E039F30017
:10003E007308F6007508F20072082000EB007608CF
:10004E00F2007208EC000800FD007D0886008701B2
:10005E0020300106031D38280130F8007808FD070E
:10006E002C287D08860087010930010603193328E4
:10007E00FB01FC01FA017D08860087012D30010687
:10008E00031D4E280130F8007808FA0755287D0820
:10009E00860087012B300106031D59280130F80018
:1000AE007808FD077D088600870101088C31AE2493
:1000BE008031031C7E287C08F1007B08F0000A309A
:1000CE00F2000030F3008D310C2580317D08860062
:1000DE00870101087007F80071080318710AF9000A
:1000EE007808D03EFB00FF30793DFC0055287A0899
:1000FE0003198D287B09F8007C09F900F80A031909
:10010E00F90A7808F6007908F70008007C08F7006D
:10011E007B08F60008002000D50080308E310A26BC
:10012E00803120004808C9000330C936890B9C284D
:10013E004908CA004A08D30048080739C9000430E4
:10014E00C935FF3E031DA7284935CA004A08D40009
:10015E0069080319D7286D305506031DBA281130CA
:10016E00A5009230BE28CD302000A5009130A6000B
:10017E004708C900CA014908A7004A08A800530841
:10018E00CB00CC014B08A9004C08AA005408CD00A6
:10019E00CE014D08AB004E08AC008531B025803144
:1001AE0002302000C9004908D6006D3055060319EB
:1001BE00E5284708BF3E84009330E9284708DC3E17
:1001CE00840093300318013E85000008C900CA015F
:1001DE004908CF004A08D0004F08C9004908D70087
:1001EE005308C9004908D8005408C9004908D90065
:1001FE000430C9004908F80056308C31CB248031C8
:10020E002000690803197F290330C9004908D60068
:10021E006D305506031918294708BF3E84009330E8
:10022E001C294708DC3E840093300318013E8500EC
:10023E000008C900CA014908D1004A08D200510875
:10024E00C9004908D700D801D9010430C9004908AE
:10025E00F80056308C31CB2480316D30200055069D
:10026E00031D5329A530A5009230A6004708C900EA
:10027E00CA014908A7004A08A8005808CB00CC01BB
:10028E004B08A9004C08AA008531B0258031E93011
:10029E002000A50092306D2994302000A5009230E8
:1002AE00A6004708C900CA014908A7004A08A800C5
:1002BE005808CB00CC014B08A9004C08AA00853188
:1002CE00B0258031D8302000A5009230A600470816
:1002DE00C900CA014908A7004A08A8005908CB005E
:1002EE00CC014B08A9004C08AA008531B0258031FD
:1002FE0020006F088E310A2608002000D600DE018D
:10030E0021003B082000D40021003A082000D30031
:10031E000230C1004108F80053308C31CB248131BA
:10032E002000C2004208D7005408C1004108D9007D
:10033E005919AE2969080319AB293730A500933036
:10034E00A6008531B02581312000DE01CF29591A52
:10035E00BE2969080319BA294530A5009330A600B5
:10036E008531B02581312000DE01DE0ACF29591FEB
:10037E00CF2969080319CA295330A5009330A60066
:10038E008531B025813102302000C1004108DE00E8
:10039E005E08D43E840093300318013E85000008A9
:1003AE00403EC1004108C5006B08C1004108C600AF
:1003BE006C08C1004108C700C801C9014008C1004E
:1003CE004108CA00DD0140085D020318192A5D08C4
:1003DE005607C1004108860087010108C2005D086A
:1003EE00063E453E860087014208810069080319D2
:1003FE00132A3B30A5009230A6005D08063E453E0E
:10040E00860087010108C100C2014108A700420809
:10041E00A8008531B025813101302000C10041088E
:10042E00DD07EA294008063EC1004108D5005508FF
:10043E00C1004108F80045308C31CB2481312000B9
:10044E00C2004208D7000330C1004108DA005E083E
:10045E00D13E840093300318013E85000008C10090
:10046E004108DB00DC010330C1004108F8005A30BE
:10047E008C31CB2481312000690803195B2A83302B
:10048E00A5009230A6005E08C100C2014108A70077
:10049E004208A8005C08C300C4014308A900440830
:1004AE00AA008531B025813103302000C1004108FA
:1004BE00DA005E08D13E840093300318013E8500B9
:1004CE000008013EC1004108DB00DC010330C10021
:1004DE004108F8005A308C31CB2481312000690854
:1004EE0003198E2AC730A5009230A6005E08C100FF
:1004FE00C2014108A7004208A8005C08C300C4015D
:10050E004308A9004408AA008531B0258131200096
:10051E0057085506031DBB2A0130C1005E0A982AF2
:10052E00C135890B972A4108803EC2004208D80087
:10053E00F801F80A58308C31CB2481312000C100EB
:10054E004108D7005703031DBB2A69080319B92AAE
:10055E004F30A5009230A6005608C1004108A700F2
:10056E008531B0250130080000300800F63020003B
:10057E00A5009130A6008531B0258231773020005C
:10058E00A5009230A6006B08C000C1014008A7006C
:10059E004108A8008531B0258231BB302000A5006E
:1005AE009230A6006C08C000C1014008A7004108A7
:1005BE00A8008531B0258231F9302000A500913098
:1005CE00A6008531B02582317B302000A500933006
:1005DE00A6002A308C31E02482312000C000C101F7
:1005EE004008A7004108A8008531B0258231873028
:1005FE002000A5009330A60029308C31E0248231F2
:10060E002000C000C1014008A7004108A8008531A4
:10061E00B025823193302000A5009330A6002830FB
:10062E008C31E02482312000C000C1014008A700B7
:10063E004108A8008531B0258231F9302000A5008F
:10064E009130A6008531B02582312000CA010230DA
:10065E004A0203187D2B4A08DC3E840093300318AF
:10066E00013E850000088C31E02482312000C0005C
:10067E004008C8004A08DC3E840093300318013E4F
:10068E0085000008013E8C31E02482312000C0003C
:10069E004008C9007A30A5009130A6004A08C00073
:1006AE00C1014008A7004108A8004A08C200C301C2
:1006BE004208A9004308AA004808C400C50144081E
:1006CE00AB004508AC004908C600C7014608AD009E
:1006DE004708AE008531B025823101302000C000C0
:1006EE004008CA0702304A02031C322BCA010630E8
:1006FE004A020318CD2B4A08BF3E840093300318DC
:10070E00013E850000088C31E02482312000C000BB
:10071E004008C8004A08BF3E840093300318013ECB
:10072E0085000008013E8C31E02482312000C0009B
:10073E004008C9005A30A5009130A6004A08C000F2
:10074E00C1014008A7004108A8004A08C200C30121
:10075E004208A9004308AA004808C400C50144087D
:10076E00AB004508AC004908C600C7014608AD00FD
:10077E004708AE008531B025823101302000C0001F
:10078E004008CA0706304A02031C822BF930A50026
:10079E009130A6008531B025823119302000A50098
:1007AE009330A6000F308C31E02482312000C0003F
:1007BE00C1014008A7004108A8008531B02582314B
:1007CE0028302000A5009330A6000E308C31E02496
:1007DE0082312000C000C1014008A7004108A800D6
:1007EE008531B0258231F6302000A5009130A6006B
:1007FE008531B02508002100A6018C31BC2484313E
:10080E002000ED01EE01F030C7000E30C8008D3132
:10081E00A6258431102DAA3080312B208431760804
:10082E002000E70067082100A20022082000E70050
:10083E00E8016708F0006808F10080310720843174
:10084E00102D643021002A06031D312CF001F00A10
:10085E000130382C76302A06031D3F2CF001F00AA9
:10086E0000308C31A32484312100A601A60A102D5C
:10087E006E302A06031D102DF00100308C31A3249A
:10088E0084312100A601102D6C302A06031D512C37
:10089E004030572C6E3021002A06031D5A2C003092
:1008AE008E310A26843121002B08031D612C200075
:1008BE00ED016C2C733021002B06031D6E2C2C08C1
:1008CE00031D6E2C2000ED01ED0AEE01102D683097
:1008DE0021002B06031D102D2C08031D102D2000AA
:1008EE00ED01EE01EE0A102DAA3080312B2084315D
:1008FE0076082000E70067082100A40024088D3147
:10090E004F258431102D21002A08D03E2000E7000B
:10091E0067082100A300AB3080312B20843177088B
:10092E002100A1007608A00023082000E700670838
:10093E00C700210020082000E8006808C800210038
:10094E002708803192208431102D8231BD228431CE
:10095E00102DE4302000A5009130A6008531B02581
:10096E008431AB302000A5009030A6008531B02533
:10097E00843100302000A5009030A6008531B025CE
:10098E00843175302000A5009030A6008531B02549
:10099E0084313B302000A5009030A6008531B02573
:1009AE00843134302000A5009130A6008531B02569
:1009BE0084310A302000A5009130A6008531B02583
:1009CE008431B4302000A5009130A6008531B025C9
:1009DE00843126302000A5009230A6008531B02546
:1009EE0084319A302000A5009130A6008531B025C3
:1009FE008431DE302000A5009030A6008531B02570
:100A0E008431FB302000A5009130A6008531B02541
:100A1E0084312100B2018E31552684312000911E81
:100A2E00122D8C318E2484312000E70067082100BE
:100A3E00B10026080319342DD7302000A5009330BD
:100A4E00A600210031082000E700E8016708A70092
:100A5E006808A8008531B0258431210031082000B6
:100A6E00E70021003208A83E8600870120006708B3
:100A7E0081000A3021003106031D8D2D3208A83E5B
:100A8E0086008701810140302806031D702D29083C
:100A9E002000E70067082100A70021002708623A1E
:100AAE0003197B2C063A0319AC2C023A03198A2C33
:100ABE000E3A0319B02C013A0319122C043A0319F9
:100ACE008A2C023A03194B2C193A0319282C8C2D17
:100ADE00102D32082000E7006708C000A8308131D1
:100AEE00842184312000E80068082100A500250833
:100AFE000319102D031022008E1D0314031C8A2DC2
:100B0E0022008E15102D22008E11102D0130200086
:100B1E00E70067082100B207DE30840093308500BD
:100B2E0000082000E80021003208200068020318A7
:100B3E00122D21003208A83E86008701810132085D
:100B4E002000E7006708C000A8308131842184317D
:100B5E00102D27302000AF002F08B90020002608E6
:100B6E00B0002508AF00A50A0319A60A2F088400B5
:100B7E00300885000008B1003108BF003F08031996
:100B8E00080025303F060319D12D3F088C315B2418
:100B9E008531B52D2000BD01BE01BC01DB2D3C15FC
:100BAE000130A5070030A63D2508840026088500E3
:100BBE000008303A0319D62DE42D250884002608A6
:100BCE00850000088C31AE248531031C8F2E200049
:100BDE00BD01BE010A30F0000030F10020003E08D9
:100BEE00F3003D08F2008D310C258531710820008F
:100BFE00BE007008BD002508840026088500000888
:100C0E00D03EAF00FF3003180030B0002F08BD07F4
:100C1E003008BE3D0130A5070030A63D25088400F2
:100C2E002608850000088C31AE248531031C8F2EDA
:100C3E00F12DBC17B02E3908860087010108B500CA
:100C4E000030B6000130AF002F08B9073508360462
:100C5E00031D352EB130B5009330B600B701B80183
:100C6E003508370784003608383D85001200031911
:100C7E00452E0130B7070030B83D372E3E083802FA
:100C8E00031D4B2E3D0837020318522E3708BD02A6
:100C9E003808BE3B542EBD01BE01FF302000BD07FB
:100CAE00FF30BE3D3D0A03193E0A0319702E203057
:100CBE008C315B248531542E35088400360885002E
:100CCE0000088C315B24853101302000B5070030DF
:100CDE00B63D0130B7020030B83B370A031D632E14
:100CEE00380A0319B52D632E3908860087010108CD
:100CFE00AF002F08BF000230AF002F08B9073F30FA
:100D0E00B5000030B6000130B7000030B800452EF7
:100D1E0020002608B0002508AF00A50A0319A60A70
:100D2E002F088400300885000008BF00003A031920
:100D3E00EA2F633A03197B2E073A0319B02E0D3AA8
:100D4E000319B02E1A3A0319222E0B3A0319202E2C
:100D5E00862E2000BC1BCA2E390886008701403F14
:100D6E00BA00413FBB000230AF002F08B907BB1FCE
:100D7E001A2F0330AF002F08BC04BA09BB09BA0AF8
:100D8E000319BB0A1A2F390886008701403FBA00A3
:100D9E00413FBB000230AF002F08B9071A2FBF0129
:100DAE00BF0A05303F060319232F3F08AF00B001DD
:100DBE00AF35B00D9F302F0784009330303D850046
:100DCE00003FB100013FB20032083B02031DF12E7D
:100DDE0031083A02031C232F0130AF002F08BF0742
:100DEE00D82EBF01BF0A04303F060319232F3F0838
:100DFE00AF00B001AF35B00DA9302F07840093308E
:100E0E00303D8500003FB100013FB20032083B0289
:100E1E00031D132F31083A02031C232F0130AF009C
:100E2E002F08BF07FA2E3C088039003A0319D62E38
:100E3E00803A0319F82E232F3D083E0403192F2F55
:100E4E003C08033903192F2FFF30BD07FF30BE3D7D
:100E5E003F08AF00B001AF1BB0033008803AB100BD
:100E6E003E08803A3102031D3E2F3D082F02031823
:100E7E004B2F20003F08AF00B001AF1BB0032F086F
:100E8E00BD023008BE3B4E2F2000BD01BE013C1DF1
:100E9E00672F3C0803390319582F2D308C315B24F2
:100EAE00853120003D083E040319802F30308C31EF
:100EBE005B248531FF302000BD07FF30BE3D592F2A
:100ECE003D083E040319782F20308C315B24853188
:100EDE00FF302000BD07FF30BE3D3D083E04031D20
:100EEE006B2F3C0803390319802F2D308C315B2476
:100EFE00853120003F08AF002F08B400D82F0A30EC
:100F0E00F8000030F9003408AF00B001AF35B00D75
:100F1E009F302F0784009330303D8500003FF00056
:100F2E00013FF1003B08F3003A08F2008D31D6255F
:100F3E0085317108FB007008FA008D317A258531F4
:100F4E007808303E2000B1003108D32F3408AF00AE
:100F5E00B001AF35B00DA9302F0784009330303D6E
:100F6E008500003FF000013FF1003B08F3003A0816
:100F7E00F2008D31D625853170080F392000B10071
:100F8E003108B3003308613E840092300318013EED
:100F9E0085000008AF002F08BF003F088C315B248E
:100FAE008531FF302000AF002F08B407340A031933
:100FBE00B52D3C088039003A0319862F803A031963
:100FCE00AD2FD42FD42F0800853084008C308500AF
:100FDE00B33086000030870009308C316024E9017F
:100FEE00EA01EB01EC01ED01EE01EF01200084318D
:020FFE00022CC3
:1018AE001630210097000800F10071088C31742465
:1018BE000800FE0012001E00FE0B612C003460308A
:1018CE002100990098012200960108004030240062
:1018DE0094002030950092010800F0002000111EA7
:1018EE00752C700823009A000800F0002400951350
:1018FE0070089100141C812C110808000234283441
:10190E000534F1344134A0340034A03400342000C6
:10191E00911E8E2C23009D1C962C1D121D1619082F
:10192E000800083023009F0090309D0024309E0058
:10193E0033309B009C010800F2007208F100710820
:10194E002000E9007008F1007108EA000800F100BB
:10195E00F0013A3071020318BA2C30307102031CB8
:10196E00BA2CF001F00A700C08008C31F5248C3181
:10197E008C3166248C318C3157248C318C316D2412
:10198E008C318C3198240800FD0022000C1278084E
:10199E00F9007908F1007D08FA007A08F2007D0856
:1019AE008E31A226FB007B08FC0022000C167C0860
:1019BE0008002000A1000330A0002008A20021088A
:1019CE00A0002008A300A4010330A0002008F80006
:1019DE0022308C31CB242000240808001030220045
:1019EE008C008E012F3021008C0032308E002300AF
:1019FE008E0107308C0024008C0130308E002100C7
:101A0E00951322009E019D010800F401F501701C42
:101A1E00142D7208F4077308F53D0130F235F30DFD
:101A2E00890B152D0130F136F00C890B1A2D70082B
:101A3E007104031D0E2D7508F1007408F0000800E6
:101A4E002000A2000130A0002208023E890A302D9B
:101A5E00A035890B2F2D2008A1002108A3000530E9
:101A6E00A0002008A5002C30A0002008A600230806
:101A7E00A0002008A700A8010430A0002008F8004C
:101A8E0025308C31CB242000A1002108A4000800B1
:101A9E002000C90080308E310A268D313F30200063
:101AAE00C7004708CA000530C7004708CC002A30D7
:101ABE00C7004708CD004A08C7004708CE004908AE
:101ACE00C7004708CF000430C7004708F8004C3065
:101ADE008C31CB248D312000C8004808CB006F0814
:101AEE008E310A260800780879040319A12DFD010C
:101AFE00FD0AF91B8C2D0130F835F90D890B832D5C
:101B0E000130FC007C08FD07802D79087B02031D47
:101B1E00922D78087A02031C982D7808FA0279081B
:101B2E00FB3B0130F936F80C890B992D0130FD0283
:101B3E00031D8C2D7B08F9007A08F8000800003090
:101B4E00F000F100803107208D312000480821007F
:101B5E00BD00200047082100BC0080308E310A26CF
:101B6E008D31B3308600003087004A30840000305B
:101B7E00850005302000C90016001A00C90BC32DC0
:101B8E000530C9004908F8004A308C31CB248D311C
:101B9E002000E901EA0100308E310A260800F50125
:101BAE00F601700871040319052EF701F70AF11BEF
:101BBE00EA2D0130F035F10D890BE12D0130F400E5
:101BCE007408F707DE2D0130F535F60D890BEB2D78
:101BDE0071087302031DF52D70087202031CFC2D93
:101BEE007008F2027108F33B75140130F136F00CF7
:101BFE00890BFD2D0130F702031DEA2D7608F10049
:101C0E007508F00008002000C6000230C000400831
:101C1E00C3000F30C0004008C4004608C000400892
:101C2E00C5000330C0004008F80043308C31CB248F
:101C3E008E312000C1004108C200803046060319D3
:101C4E002C2E4608C0004008EF0003304206031D4C
:101C5E0008000330C0004008C3000E30C00040082A
:101C6E00C4000330C0004008F80043308C31CB2450
:101C7E008E312000C1004108C20069080319080016
:101C8E002830A5009330A6004508C000C1014008C9
:101C9E00A7004108A8008531B025080021003908A9
:101CAE002000E500210038082000E4000230E100A9
:101CBE006108F80064308C31CB248E312000E200B4
:101CCE006208E3006508E1006108E6006608031992
:101CDE000800661C802E690803197C2E6130A50051
:101CEE009330A6008531B0258E3100308F314B27D1
:101CFE000800E61C902E690803198C2E6E30A50084
:101D0E009330A6008531B0258E3101308F314B27AF
:101D1E000800E61D962E00308D3127250800E61EA0
:101D2E009C2E01308D3127250800E61F0800023059
:101D3E008D3127250800F600F70171080319EE2EE4
:101D4E007608031DD02ED52E7208031DB92E7708E6
:101D5E007607F30073088600870101088C317C2416
:101D6E008E31CC2E77087607F30073088600870134
:101D7E0001088C317C248E31F40077087207F5004F
:101D8E00750886008701740881000130F30073081E
:101D9E00F707710877020318EE2EAB2E7208031D9B
:101DAE00EA2EEE2E00308C317C248E31F300770833
:101DBE007207F400740886008701730881000130F1
:101DCE00F3007308F70771087702031CD92E770802
:101DDE00080020006D080319062FB830A5009330B7
:101DEE00A6004008C300C4014308A7004408A80089
:101DFE004108C5004508A9008531B025080020001E
:101E0E006E0803193F2FC530A5009330A600400879
:101E1E00C300C4014308A7004408A8008531B025BB
:101E2E008E312000C601420846020318382FCB30EF
:101E3E00A5009330A60046084107C300430886005C
:101E4E0087010108C400C5014408A7004508A80081
:101E5E008531B0258E3101302000C3004308C607FE
:101E6E001A2FF930A5009130A6008531B025080053
:101E7E005D302000A5009230A6004108C300430843
:101E8E00A7008531B02508002000E0006008DA3E8A
:101E9E00840093300318013E850000080907903E28
:101EAE00C7004708CD000E30C7004708F8004D3078
:101EBE008C31CB248F312000C8004808CC0052084A
:101ECE00C7004708DF004F08C7000530C736890B2B
:101EDE006D2F4708C800C9014E08CA00CB01CA358C
:101EEE00CB0DCA35CB0DCA35CB0D48084A07DD00E0
:101EFE0049084B3DDE00FF305D05DD0007305E0515
:101F0E00DE005F08063E4D3E8600870181016908AE
:101F1E000319E82F7230A5009230A6006008C700A2
:101F2E00C8014708A7004808A8004E08C900CA0102
:101F3E004908A9004A08AA008531B0258F31B6306C
:101F4E002000A5009230A6006008C700C80147080F
:101F5E00A7004808A8004F08C900CA014908A900EF
:101F6E004A08AA008531B0258F31FA302000A5002D
:101F7E009230A6006008C700C8014708A7004808AD
:101F8E00A8005208C900CA014908A9004A08AA00B7
:101F9E008531B0258F310A302000A5009330A60080
:101FAE006008C700C8014708A7004808A8005308E2
:101FBE00C900CA014908A9004A08AA008531B025FE
:101FCE008F3153302000C7004708DC005D08C70082
:101FDE004708C0005C08C8004808C1005F08C90077
:101FEE004908C20021003D088A003C080A008F31D2
:101FFE0008005B3453346534743420346F347534D4
:10200E00743470347534743420346D346F346434F5
:10201E0065345D3420347B34643465346234753415
:10202E0067343A3420344034763464342C342034DB
:10203E0076346534723462346F34733465343A34C2
:10204E0020344034763476342C3420346E346F346D
:10205E0072346D3461346C343A3420344034763416
:10206E006E347D340A34003420342034203420344D
:10207E00203477346934743468342034533449341A
:10208E0044343A34203440346F346C347334203456
:10209E006F347234203440346F346E3473342C34D5
:1020AE00203469346E342034683465347834203406
:1020BE0066346F3472346D34613474343A3420348F
:1020CE0040346F346C34683420346F3472342034BE
:1020DE0040346F346E3468340A3400345B34453423
:1020EE006E34613462346C34653420346F34703441
:1020FE00653472346134743469346F346E34203420
:10210E006D346F34643465345D3420347B346C3418
:10211E006F346F3470346234613463346B343A34F8
:10212E00203440346F346C342C3420346E346F349D
:10213E0072346D3461346C343A34203440346F343C
:10214E006E347D340A3400345B3453346534743465
:10215E0020347334743461346E34643461347234C4
:10216E00643420346934643465346E3474346934C0
:10217E0066346934653472345D34203440346934E5
:10218E003C347334743461346E3464346134723478
:10219E00643420346934643465346E347434693490
:1021AE0066346934653472343E340A3400345B3438
:1021BE00523465346334653469347634653420348E
:1021CE006D346534733473346134673465345D341F
:1021DE0020343C346D346534733473346134673475
:1021EE0065343E342034773469346C346C342034A6
:1021FE006234653420346F3475347434703475340D
:10220E0074340A3400345B345334653474342034FB
:10221E00663469346C347434653472345D3420340D
:10222E00403466343C346E343E343C346634693467
:10223E006C34743465347234283453344934443431
:10224E003134303420347E342034533449344434E1
:10225E00303429343E340A3400345B34533465341C
:10226E00743420346D34613473346B345D34203403
:10227E0040346D343C346E343E343C346D34613411
:10228E0073346B3428345334493444343134303459
:10229E0020347E3420345334493444343034293499
:1022AE003E340A34003452345834463425346434BF
:1022BE005334493444344834203452345834463438
:1022CE00253464345334493444344C343A34203451
:1022DE0025343034323478342034253430343234AA
:1022EE0078340A340034523458344D34253464343E
:1022FE0053344934443448342034523458344D34F1
:10230E00253464345334493444344C343A34203410
:10231E002534303432347834203425343034323469
:10232E0078340A3400345B34533465346E34643498
:10233E0020346D34653473347334613467346534EA
:10234E005D3420343C346D3465347334733461340D
:10235E00673465343E340A3400345B3453346534A8
:10236E0074342034623461347534643420347234FD
:10237E006134743465345D342034403462343C341A
:10238E006234703472343E340A3400346634693444
:10239E006C347434653472342834253464342934FE
:1023AE003A342034253430343234783420342534E1
:1023BE003034323478340A3400342D342D342D3404
:1023CE00203455344134523454343234433441344D
:1023DE004E342034483445344C34503420342D346B
:1023EE002D342D340A3400345B34533468346F3456
:1023FE007734203474346834693473342034683458
:10240E0065346C3470345D343A342034403468347E
:10241E000A3400346D34613473346B34283425340B
:10242E00643429343A342034253430343234783418
:10243E00203425343034323478340A3400345B346A
:10244E00443475346D3470342034723465346734EA
:10245E006934733474346534723473345D342034B7
:10246E00403464340A34003443346F347034793475
:10247E0069346E34673420346234753466346634AD
:10248E00653472343A342034253463340A340034DB
:10249E004D346534733473346134673465342034A9
:1024AE00733465346E3474343A34203425347334D2
:1024BE000A34003430343134323433343434353435
:1024CE0036343734383439346134623463346434F6
:1024DE00653466340034523458344234253464340E
:1024EE0053344934443448343A3420342534303467
:1024FE00323478340A340034543458344234253467
:10250E00643453344934443448343A342034253412
:10251E003034323478340A34003452345834463439
:10252E002534643453344934443448343A342034F2
:10253E0025343034323478340A340034523458343A
:10254E004D342534643453344934443448343A34A5
:10255E00203425343034323478340A340034523452
:10256E0058344234253464345334493444344C346E
:10257E003A34203425343034323478340A3400344A
:10258E005434583442342534643453344934443446
:10259E004C343A34203425343034323478340A34DE
:1025AE000034523458344634253464345334493468
:1025BE0044344C343A342034253430343234783484
:1025CE000A340034523458344D3425346434533480
:1025DE00493444344C343A34203425343034323493
:1025EE0078340A3400345234583442342534643446
:1025FE0044344C3443343A34203425343034323479
:10260E0078340A3400345234583442342534643425
:10261E00443430343A34203425343034323478343F
:10262E000A340034433441344E3443345434523437
:10263E004C343A34203425343034323478340A343D
:10264E000034433441344E345334543441345434CE
:10265E003A34203425343034323478340A34003469
:10266E005434583442343034203469347334203482
:10267E00693464346C3465340A3400345434583458
:10268E004234313420346934733420346934643440
:10269E006C3465340A340034543458344234323491
:1026AE002034693473342034693464346C346534C2
:1026BE000A340034523458343034493446342034D9
:1026CE006934733420346F346E340A340034523427
:1026DE005834313449344634203469347334203418
:1026EE006F346E340A34003443344E34463431344D
:1026FE003A34203425343034323478340A340034C9
:10270E0043344E34463432343A3420342534303463
:10271E00323478340A34003443344E34463433344D
:10272E003A34203425343034323478340A34003498
:10273E00013400340A34003464340034E834033491
:10274E001034273401340034103400340034013492
:10275E000034103428346E3475346C346C342934AF
:10276E000034253464342C34253473340A34003464
:10277E00003404340834103414341834253430340E
:10278E00323478343A340034203425343034323410
:10279E00783400343134413451340034023404344A
:1027AE0025346334003400340234203424340734A6
:020000040001F9
:04000E00E4FFFFFE0E
:00000001FF
