:08000000803102288731E22F54
:10038E001630210097000800F10071088131EA2132
:10039E000800640080010131890BD1290034FE0070
:1003AE0012001E00FE0BD729003460302100990088
:1003BE00980122009601080040302400940020305D
:1003CE00950092010800F0002000111EEB29700824
:1003DE0023009A000800F000240095137008910085
:1003EE00141CF729110808002000911EFB29230078
:1003FE009D1C032A1D121D16190808000830230023
:10040E009F0090309D0024309E0033309B009C0155
:10041E0008000334323400340334313400340234EF
:10042E000F344034A0340034F100F0013A30710240
:10043E000318272A30307102031C272AF001F00A14
:10044E00700C08008231382282318131DC218231F8
:10045E008131C72182318131E321823182310522FE
:10046E000800103022008C008E012F3021008C00ED
:10047E0032308E0023008E0107308C0024008C0158
:10048E0030308E002100951322009E019D01080040
:10049E002000A10022000C127808FA007A08F10060
:1004AE007908FB007B08F200200021088331A42389
:1004BE00FC007C082000A00022000C162000200862
:1004CE000800F401F501701C702A7208F407730815
:1004DE00F53D0130F235F30D890B712A0130F136FD
:1004EE00F00C890B762A70087104031D6A2A7508B0
:1004FE00F1007408F00008002000A5000130A200F1
:10050E002508023E890A8C2AA235890B8B2A2208DD
:10051E00A3002308A6000530A2002208A8002C3054
:10052E00A2002208A9002608A2002208AA00AB01F8
:10053E000430A2002208F8002830A3002308F90096
:10054E00283082314F222000A4002408A700080082
:10055E00F501F601700871040319DE2AF701F70A96
:10056E00F11BC32A0130F035F10D890BBA2A013087
:10057E00F4007408F707B72A0130F535F60D890B2C
:10058E00C42A71087302031DCE2A70087202031C5E
:10059E00D52A7008F2027108F33B75140130F1365A
:1005AE00F00C890BD62A0130F702031DC32A7608F8
:1005BE00F1007508F000080020003208B400310880
:1005CE00B300B436B30CB436B30CB436B30C330834
:1005DE00B5003508B7003108B3000430B335FF3E1F
:1005EE00031DF52A3335E039B4003408B800370856
:1005FE00B3003308CA003808B3003308CB004730C5
:10060E00F8008830F9003708B300B4013308FA0057
:10061E003408FB003808B500B6013508FC00360872
:10062E00FD0086313E26080020006B08B5006C08E0
:10063E00B6006D08B7000330B1003108F800353050
:10064E00B2003208F900353082314F22833120005A
:10065E00B3003308B40003303406031D0800033022
:10066E00B1003108B5000E30B1003108B6000330CC
:10067E00B1003108F8003530B2003208F9003530DB
:10068E0082314F2283312000B3003308B400BB30D7
:10069E00F8008830F9003708B100B2013108FA00CD
:1006AE003208FB0086313E26080020006F08C1008C
:1006BE006E08C0000230BC003C08F8004030BD009F
:1006CE003D08F900403082314F2283312000BE00B8
:1006DE003E08BF004108BC003C08C2004208031996
:1006EE000800421C852BCA30F8008830F90086318C
:1006FE003E2683310030843159240800C21C922BCF
:10070E00D730F8008830F90086313E26833101302B
:10071E00843159240800C21D982B00308231832267
:10072E000800C21E9E2B0130823183220800C21F98
:10073E0008000230823183220800F600F7017108AA
:10074E000319F02B7608031DD22BD72B7208031D2D
:10075E00BB2B77087607F300730886008701010824
:10076E008131F2218331CE2B77087607F30073089F
:10077E008600870101088131F2218331F400770868
:10078E007207F50075088600870174088100013034
:10079E00F3007308F707710877020318F02BAD2BDF
:1007AE007208031DEC2BF02B00308131F2218331C6
:1007BE00F30077087207F400740886008701730847
:1007CE0081000130F3007308F70771087702031CEC
:1007DE00DB2B77080800FD007D088600870120309E
:1007EE000106031DFF2B0130F8007808FD07F32BDF
:1007FE007D0886008701093001060319FA2BFB01DB
:10080E00FC01FA017D08860087012D300106031DCB
:10081E00152C0130F8007808FA071C2C7D0886008C
:10082E0087012B300106031D202C0130F8007808BB
:10083E00FD077D0886008701010882311B22833166
:10084E00031C452C7C08F1007B08F0000A30F200F6
:10085E000030F3008231682283317D0886008701E3
:10086E0001087007F80071080318710AF90078087A
:10087E00D03EFB00FF30793DFC001C2C7A0803199A
:10088E00542C7B09F8007C09F900F80A0319F90ABF
:10089E007808F6007908F70008007C08F7007B0856
:1008AE00F60008002000BB003B08F93E84008830AB
:1008BE000318013E850000080907903EB10031087B
:1008CE002100A0000E302000B1003108F800A03049
:1008DE00B2003208F900A03082314F22843120005C
:1008EE00B3003308B5003508A03E860087018101AC
:1008FE006C30F8008830F900210021082000B1008A
:10090E00B2013108FA003208FB0086313E268431EE
:10091E008C30F8008830F900210022082000B10048
:10092E00B2013108FA003208FB0086313E268431CE
:10093E00AC30F8008830F900210025082000B10005
:10094E00B2013108FA003208FB0086313E268431AE
:10095E0001302000B1003B0AB52CB135890BB42C07
:10096E003108B2003208B6000530B1003108B700C8
:10097E002C30B1003108B8003608B1003108B9008A
:10098E00BA010430B1003108F8003730B200320835
:10099E00F900373082314F2284312000B300330802
:1009AE00B4003130F8008830F9002100260820000C
:1009BE00B100B2013108FA003208FB0086313E2642
:1009CE00080082312922843100302000B100B200AB
:1009DE008231E322843183311B23843183315C23C2
:1009EE0084312000911EF52C8131FB2184312000B1
:1009FE00C3004308CD00F630F8008830F9004D08EA
:100A0E00C300C4014308FA004408FB0086313E26A9
:100A1E00843120004D08C3004C085C3E86008701DF
:100A2E00430881000A304D06031D532D4C085C3ED1
:100A3E0086008701810140305C06031D372D5D3035
:100A4E008331F223843177082000C7007608C60070
:100A5E004708B2004608B1008231E3228431892D65
:100A6E005C302000C3004308B1004C08C4004408A9
:100A7E00B200003085318C2584312000C500450838
:100A8E00C800480803194F2D1B30F80088307C2D04
:100A9E000230F8008830852D0130C3004308CC07A2
:100AAE0000308400883085000008C4004C084402E1
:100ABE000318F52C4C085C3E8600870181015C30E2
:100ACE00C3004308B1004C08C4004408B200003013
:100ADE0085318C2584312000C5004508C9004908A0
:100AEE000319822D1A30F8008830F9005C30C300EB
:100AFE004308FA00862D0130F8008830F90086315F
:100B0E003E2684312000CC01F52C2000B60036089C
:100B1E00F33E840088300318013E85000008403EF5
:100B2E00B3003308CE004A08B3003308CF004B0899
:100B3E00B3003308D000D101D2013208B30033081C
:100B4E00D300BC010130B3003308BC073C030319CA
:100B5E00C02D3C083107B300330886008701010819
:100B6E00B4003C08063E4E3E8600870134088100E4
:100B7E00A92D3208063EB3003308B7003708B3007C
:100B8E003308F8004E30B4003408F9004E3082318C
:100B9E004F2285312000B5003508BB006808B8002B
:100BAE006908B9006A08BA000330B3003308F800C8
:100BBE003830B4003408F900383082314F22853194
:100BCE007C30F8008830F90020003A08B300B401F8
:100BDE003308FA003408FB0086313E2685312000AA
:100BEE006508B8006608B9006708BA000330B3009C
:100BFE003308F8003830B4003408F9003830823148
:100C0E004F2285319C30F8008830F90020003A08D8
:100C1E00B300B4013308FA003408FB0086313E26D7
:100C2E00853120003B083706031D3C2E0130B300F2
:100C3E00360A222EB335890B212E3308803EB4009E
:100C4E003408BD00F801F80A3D30B3003308F9004E
:100C5E003D3082314F2285312000B4003408BB0074
:100C6E003B03031D3C2E01300800003008007A3093
:100C7E002000A0002008AB0079082000A100780811
:100C8E00A000F80A0319F90A20088400210885003B
:100C9E000008A2002208B000300803190800253011
:100CAE00300603195F2E30088131CB218631432E59
:100CBE002000AE01AF01A5016A2E200025150130DE
:100CCE00F8070030F93D780884007908850000089F
:100CDE00303A0319642E732E780884007908850043
:100CEE00000882311B228631031C1D2F2000AE010D
:100CFE00AF010A30F0000030F10020002F08F300A1
:100D0E002E08F20082316822863171082000AF0071
:100D1E007008AE0078088400790885000008D03E7F
:100D2E00A000FF3003180030A1002008AE072108F4
:100D3E00AF3D0130F8070030F93D7808840079089E
:100D4E008500000882311B228631031C1D2F802E48
:100D5E0020002B08860087010108A9000030AA0098
:100D6E000130A0002008AB0729082A04031DC32E5A
:100D7E00EC30A9008830AA00AC01AD0129082C077F
:100D8E0084002A082D3D850012000319D32E013050
:100D9E00AC070030AD3DC52E2F082D02031DD92EF8
:100DAE002E082C020318E02E2C08AE022D08AF3BA5
:100DBE00E22EAE01AF01FF302000AE07FF30AF3D97
:100DCE002E0A03192F0A0319FE2E20308131CB2152
:100DDE008631E22E290884002A0885000008813118
:100DEE00CB21863101302000A9070030AA3D013009
:100DFE00AC020030AD3B2C0A031DF12E2D0A031957
:100E0E00432EF12E2B08860087010108A000200832
:100E1E00B0000230A0002008AB073030A90000302F
:100E2E00AA000130AC000030AD00D32E79082000AE
:100E3E00A1007808A000F80A0319F90A2008840016
:100E4E00210885000008B000003A0319E12F633A2B
:100E5E000319092F103A0319AF2E0B3A0319382F25
:100E6E00142F20002B0886008701403FA600413F2B
:100E7E00A7000230A0002008AB07B001B00A043072
:100E8E0030060319692F3008A000A101A035A10D6D
:100E9E00E430200784008830213D8500003FA20009
:100EAE00013FA30023082702031D5F2F22082602FD
:100EBE00031C692F0130A0002008B0070430300653
:100ECE00031D4A2F3008A000A101A01BA103210879
:100EDE00803AA2002F08803A2202031D782F2E0896
:100EEE0020020318852F20003008A000A101A01BAE
:100EFE00A1032008AE022108AF3B882F2000AE01CF
:100F0E00AF01251D982F2E082F040319A92F30305D
:100F1E008131CB218631FF302000AE07FF30AF3D4F
:100F2E008A2F2E082F040319A92F20308131CB21AF
:100F3E008631FF302000AE07FF30AF3D2E082F0464
:100F4E00031D9C2F3008A0002008A800FF302000B1
:100F5E00A0002008A807280A0319432E2808A0007D
:100F6E00A101A035A10DE430200784008830213D79
:100F7E008500003FF000013FF1002708F30026082E
:100F8E00F2008231AF22863170080F392000A200A4
:100F9E002208A40024085B3E840088300318013E1A
:100FAE0085000008A0002008B00030088131CB2158
:100FBE008631AD2F080010308400823085006530F8
:100FCE008600003087000B308131D62187314A30C0
:100FDE008400003085001B308131D0218731A03054
:100FEE008400003085000F308131D0212000843103
:100FFE00E82C08340A3455346E34613462346C345F
:10100E006534203474346F342034733465346E3464
:10101E00643420346D34653473347334613467341E
:10102E0065340A3400340A34433441344E342034A7
:10103E006D346534733473346134673465342034FD
:10104E00733465346E3474343A3420342534733446
:10105E000A3400344D346534733473346134673478
:10106E0065342034723465346334653469347634CF
:10107E00653464343A342034253473340A340034FD
:10108E0053344934443420347334653474343A342C
:10109E00203425343034323478342034253430340E
:1010AE00323478340A340034303431343234333418
:1010BE003434353436343734383439346134623478
:1010CE0063346434653466340034523458344234F4
:1010DE00303453344934443448343A34203425348B
:1010EE003034323478340A34003454345834423480
:1010FE00303453344934443448343A34203425346B
:10110E003034323478340A34003452345834423461
:10111E0030345334493444344C343A342034253446
:10112E003034323478340A3400345434583442343F
:10113E0030345334493444344C343A342034253426
:10114E003034323478340A34003452345834423421
:10115E00303444344C3443343A342034253430342F
:10116E00323478340A340034433441344E345334F8
:10117E005434413454343A342034253430343234F7
:10118E0078340A34003452345834303449344634C6
:10119E0020346934733420346F346E340A3400349E
:1011AE00523458343134493446342034693473342B
:1011BE0020346F346E340A34003401340034103469
:1011CE000034003401340034103428346E34753455
:1011DE006C346C3429340034003402340434253435
:0811EE006334003400340234C4
:020000040001F9
:04000E00E4FFFFFE0E
:00000001FF
