:10000000803102288731E52FF0002000111E0528DD
:10001000700823009A0008002000BB000230B900DD
:100020003908BD000F30B9003908BE003B08B900DF
:100030003908BF000330B9003908F8003D308E316F
:10004000A42680312000BA003A08BC0003303C06E8
:10005000031D08000330B9003908BD000E30B90097
:100060003908BE000330B9003908F8003D308E3140
:10007000A42680312000BA003A08BC0021002008E4
:1000800003190800CF302000A0009230A1003F08E3
:10009000B900BA013908A2003A08A30083312D2320
:1000A0000800210032082000D7002100310820007C
:1000B000D6000230D3005308F80056308E31A42603
:1000C00080312000D4005408D5005708D3005308CD
:1000D000D800580803190800581C7E282100200861
:1000E00003197A2808302000A0009330A100833142
:1000F0002D2380310030813109210800D81C90283F
:100100002100200803198C2815302000A00093300E
:10011000A10083312D238031013081310921080074
:10012000D81D962800308E31EB260800D81E9C285A
:1001300001308E31EB260800D81F080002308E31C6
:10014000EB260800FD007D088600870120300106AF
:10015000031DAF280130F8007808FD07A3287D08AB
:1001600086008701093001060319AA28FB01FC015A
:10017000FA017D08860087012D300106031DC52880
:100180000130F8007808FA07CC287D08860087013E
:100190002B300106031DD0280130F8007808FD0738
:1001A0007D088600870101088E3187268031031C77
:1001B000F5287C08F1007B08F0000A30F2000030DE
:1001C000F3008E31D02680317D088600870101083A
:1001D0007007F80071080318710AF9007808D03E1A
:1001E000FB00FF30793DFC00CC287A080319042974
:1001F0007B09F8007C09F900F80A0319F90A780864
:10020000F6007908F70008007C08F7007B08F60084
:1002100008002000D20052084A3E840093300318A0
:10022000013E850000080907903EB9003908BF006B
:100230000E30B9003908F8003F308E31A4268131E4
:100240002000BA003A08BE004408B9003908CE00C0
:100250004108B9000530B936890B2B293908BA0095
:10026000BB014008BC00BD01BC35BD0DBC35BD0D9A
:10027000BC35BD0D3A083C07CF003B083D3DD000E2
:10028000FF304F05CF0007305005D0004E08063E26
:100290003F3E860087018101210020080319A8291B
:1002A00028302000A0009230A1005208B900BA0105
:1002B0003908A2003A08A3004008BB00BC013B0873
:1002C000A4003C08A50083312D2381316C3020002F
:1002D000A0009230A1005208B900BA013908A2006A
:1002E0003A08A3004108BB00BC013B08A4003C083D
:1002F000A50083312D238131B0302000A000923041
:10030000A1005208B900BA013908A2003A08A300B6
:100310004408BB00BC013B08A4003C08A500833195
:100320002D238131C0302000A0009230A10052085E
:10033000B900BA013908A2003A08A3004508BB0079
:10034000BC013B08A4003C08A50083312D2381316A
:1003500045302000B9003908D100210021080319D7
:10036000BE2923080319B92954302000A000913078
:10037000C629B1302000A0009130D42921002308E3
:100380000319D02966302000A0009130A100500848
:10039000A3004F08A2005108B9003908A400D929C8
:1003A000C3302000A0009130A1005108B9003908E5
:1003B000A20083312D238131031022008E1D0314EE
:1003C000031CE52922008E15080022008E1108006A
:1003D0002000CE00D701210034082000CD002100EC
:1003E00033082000CC000230BA003A08F8004C3044
:1003F0008E31A42681312000BB003B08D0004D087F
:10040000BA003A08D2005219142A21002008031910
:10041000112ADE302000A0009230A10083312D236C
:1004200081312000D701392A521A262A21002008BA
:100430000319222AEC302000A0009230A100833161
:100440002D2381312000D701D70A392A521F392A9A
:10045000210020080319342AFA302000A00092302D
:10046000A10083312D23813102302000BA003A08E7
:10047000D7005708443E840093300318013E85009E
:100480000008403EBA003A08BE00210024082000BF
:10049000BA003A08BF00210025082000BA003A0837
:1004A000C000C101C2013908BA003A08C300D60130
:1004B000390856020318892A56084E07BA003A0826
:1004C000860087010108BB005608063E3E3E8600B6
:1004D00087013B088100210020080319832ADC30B2
:1004E0002000A0009130A1005608063E3E3E860046
:1004F00087010108BA00BB013A08A2003B08A3002B
:1005000083312D23813101302000BA003A08D6070B
:10051000582A3908063EBA003A08CF004F08BA00F8
:100520003A08F8003E308E31A42681312000BB000D
:100530003B08D0000330BA003A08D3005708413EC8
:10054000840093300318013E85000008BA003A0881
:10055000D400D5010330BA003A08F80053308E3188
:10056000A4268131210020080319CC2A393020002B
:10057000A0009230A1005708BA00BB013A08A200BF
:100580003B08A3005508BC00BD013C08A4003D0881
:10059000A50083312D23813103302000BA003A08B1
:1005A000D3005708413E840093300318013E850074
:1005B0000008013EBA003A08D400D5010330BA0061
:1005C0003A08F80053308E31A426813121002008EA
:1005D0000319002B7D302000A0009230A1005708A5
:1005E000BA00BB013A08A2003B08A3005508BC00B2
:1005F000BD013C08A4003D08A50083312D238131B5
:10060000200050084F06031D2B2B0130BA00570A5B
:100610000A2BBA35890B092B3A08803EBB003B08F0
:10062000D100F801F80A51308E31A4268131200022
:10063000BA003A08D0005003031D2B2B03102200F0
:100640008E1D0314031C272B22008E15292B22003C
:100650008E11013008000030080022302000A80070
:100660002808B20020002108A9002008A800A00A3C
:100670000319A10A28088400290885000008AA0097
:100680002A08B8003808031908002530380603196D
:100690004E2B38088E3150268331322B2000B60184
:1006A000B701B501582B35150130A0070030A13D29
:1006B00020088400210885000008303A0319532BD4
:1006C000612B200884002108850000088E318726D0
:1006D0008331031C0C2C2000B601B7010A30F00056
:1006E0000030F10020003708F3003608F2008E31A8
:1006F000D026833171082000B7007008B6002008AA
:100700008400210885000008D03EA800FF300318AF
:100710000030A9002808B6072908B73D0130A00716
:100720000030A13D200884002108850000088E319A
:1007300087268331031C0C2C6E2BB5172D2C320809
:10074000860087010108AE000030AF000130A8002C
:100750002808B2072E082F04031DB22B3430AE0038
:100760009330AF00B001B1012E08300784002F088C
:10077000313D850012000319C22B0130B007003053
:10078000B13DB42B37083102031DC82B36083002A7
:100790000318CF2B3008B6023108B73BD12BB60176
:1007A000B701FF302000B607FF30B73D360A031906
:1007B000370A0319ED2B20308E3150268331D12B8F
:1007C0002E0884002F08850000088E3150268331C2
:1007D00001302000AE070030AF3D0130B0020030E4
:1007E000B13B300A031DE02B310A0319322BE02BF9
:1007F0003208860087010108A8002808B8000230E6
:10080000A8002808B2073830AE000030AF00013031
:10081000B0000030B100C22B20002108A900200840
:10082000A800A00A0319A10A280884002908850045
:100830000008B800003A0319672D633A0319F82B32
:10084000073A03192D2C0D3A03192D2C1A3A0319C6
:100850009F2B0B3A03199D2B032C2000B51B472C13
:10086000320886008701403FB300413FB4000230A8
:10087000A8002808B207B41F972C0330A800280846
:10088000B504B309B409B30A0319B40A972C3208A2
:1008900086008701403FB300413FB4000230A8000A
:1008A0002808B207972CB801B80A05303806031992
:1008B000A02C3808A800A901A835A90D22302807C6
:1008C00084009330293D8500003FAA00013FAB0022
:1008D0002B083402031D6E2C2A083302031CA02CA3
:1008E0000130A8002808B807552CB801B80A043010
:1008F00038060319A02C3808A800A901A835A90DAD
:100900002C30280784009330293D8500003FAA0041
:10091000013FAB002B083402031D902C2A08330240
:10092000031CA02C0130A8002808B807772C350834
:100930008039003A0319532C803A0319752CA02CE6
:10094000360837040319AC2C350803390319AC2CCD
:10095000FF30B607FF30B73D3808A800A901A81B33
:10096000A9032908803AAA003708803A2A02031D01
:10097000BB2C360828020318C82C20003808A80011
:10098000A901A81BA9032808B6022908B73BCB2C4C
:100990002000B601B701351DE42C350803390319D1
:1009A000D52C2D308E315026833120003608370467
:1009B0000319FD2C30308E3150268331FF3020005A
:1009C000B607FF30B73DD62C360837040319F52C8F
:1009D00020308E3150268331FF302000B607FF30A3
:1009E000B73D36083704031DE82C350803390319D1
:1009F000FD2C2D308E315026833120003808A80080
:100A00002808AD00552D0A30F8000030F9002D08F7
:100A1000A800A901A835A90D223028078400933029
:100A2000293D8500003FF000013FF1003408F3004C
:100A30003308F2008F313F2783317108FB007008C3
:100A4000FA008F31132783317808303E2000AA0046
:100A50002A08502D2D08A800A901A835A90D2C3071
:100A6000280784009330293D8500003FF000013FB6
:100A7000F1003408F3003308F2008F313F2783314F
:100A800070080F392000AA002A08AC002C08173E75
:100A9000840092300318013E85000008A800280851
:100AA000B80038088E3150268331FF302000A8006E
:100AB0002808AD072D0A0319322B35088039003A72
:100AC0000319032D803A03192A2D512D512D0800A9
:100AD0008E319526853100302000B900BA008F3163
:100AE000732785312100A001A101A20100308031CE
:100AF0000C2085312100A301A601803151208531D0
:100B00002000911E7D2D8E31722685312000D90066
:100B100059082100A700210803199F2D4730200004
:100B2000A0009330A100210027082000D900DA019D
:100B30005908A2005A08A30083312D2385312100D2
:100B400027082000D90021002608A83E860087013A
:100B50002000590881000A3021002706031DA02F1C
:100B60002608A83E86008701810140302806031D23
:100B7000742F29082000D9005908EE005E2FAA30F2
:100B80008031A220853176082000D9005908E30081
:100B90006308D900DA015908B9005A08BA008F3140
:100BA00073278531E32F643021002A06031DDB2DD6
:100BB000A001A00AE02D76302A06031DE32DA00136
:100BC000A101A10AE32F6E302A06031DE32FA00125
:100BD000A101E32F6C3021002A06031DF72D4030C0
:100BE0002000D90059082100A2004030FE2D6E30AF
:100BF00021002A06031D012EA201003080310C20A5
:100C0000853121002B080319E32F6E302B06031DBD
:100C10000B2EA301E32F73302B06031DE32FA3013B
:100C2000A30AE32F803080310C20853121002A086F
:100C3000D03E2000D9005908EF00AB308031A2200F
:100C4000853177082000E7007608E6006708DA00BB
:100C50006608D900DA36D90CDA36D90CDA36D90C6E
:100C60005908DB005B08E80066080739D900043042
:100C7000D935FF3E031D382E5935DA005A08E900F0
:100C80002100200803196A2E6D3020006E06031D16
:100C90004D2EC730A0009130512E84302000A0008E
:100CA0009130A1006F08D900DA015908A2005A0852
:100CB000A3006808DB00DC015B08A4005C08A50059
:100CC0006908DD00DE015D08A6005E08A70083312B
:100CD0002D23853102302000D9005908EA006D30FB
:100CE0006E060319782E6F083B3E840093307C2EED
:100CF0006F084C3E840093300318013E85000008C5
:100D0000D900DA015908DF005A08E0005F08D9006D
:100D10005908EB006808D9005908EC006908D900A7
:100D20005908ED000430D9005908F8006A308E31B6
:100D3000A4268531210020080319132F0330200039
:100D4000D9005908EA006D306E060319AC2E6F0801
:100D50003B3E84009330B02E6F084C3E84009330AD
:100D60000318013E85000008D900DA015908E100A6
:100D70005A08E2006108D9005908EB00EC01ED01C6
:100D80000430D9005908F8006A308E31A426853124
:100D90006D3020006E06031DE72E5B30A000923000
:100DA000A1006F08D900DA015908A2005A08A3006F
:100DB0006C08DB00DC015B08A4005C08A500833143
:100DC0002D2385319F302000A0009230012F4A3022
:100DD0002000A0009230A1006F08D900DA01590864
:100DE000A2005A08A3006C08DB00DC015B08A40029
:100DF0005C08A50083312D2385318E302000A000B2
:100E00009230A1006F08D900DA015908A2005A08EF
:100E1000A3006D08DB00DC015B08A4005C08A500F2
:100E200083312D2385312100220880310C2085312A
:100E3000E32F6D302000A0009130A10083312D23DD
:100E4000853172302000A0009030A10083312D2325
:100E5000853101302000A0009030A10083312D2386
:100E600085313C302000A0009030A10083312D233B
:100E70008531FB302000A0009030A10083312D236C
:100E80008531D1302000A0009030A10083312D2386
:100E9000853121302000A0009130A10083312D2325
:100EA0008531A5302000A0009030A10083312D2392
:100EB00085319B302000A00091309B2F20006E08D0
:100EC000663A0319122E0E3A0319192F013A031923
:100ED000BF2D043A0319122E023A0319EA2D193ACA
:100EE0000319D32D9F2FE32F210026082000D900BE
:100EF0005908B900A8308131E82185312000DA0095
:100F00005A08E40064080319932F210021080319EB
:100F1000E32F05302000A0009230A100A830D900B6
:100F20005908A2009C2F210021080319E32F3C300F
:100F30002000A0009130A10083312D238531E32FC3
:100F400001302000D90059082100A6070030840094
:100F50009030850000082000DA00210026082000DB
:100F60005A0203187D2D21002608A83E860087011D
:100F7000810126082000D9005908B900A830813124
:100F8000E82185312000DA005A08E50065080319D8
:100F9000D72F210021080319E32F04302000A000DF
:100FA0009230A100A830D9005908A200E02F2100FA
:100FB00021080319E32F3B302000A0009130A1004D
:100FC00083312D23853121007C2D21008E314C264B
:100FD0008731B1008E314D268731B2008E314E26D9
:100FE0008731B3008E314F268731B400A0308400A2
:100FF0000030850011308E31552620008531682D56
:101C90001630210097000800A0340034A03400342E
:101CA000F1007108803104200800640080010131D6
:101CB000890B562E003460302100990098012200D3
:101CC00096010800403024009400203095009201D5
:101CD0000800F0002400951370089100141C6E2E6B
:101CE000110808002000911E722E23009D1C7A2EE0
:101CF0001D121D1619080800083023009F0090309F
:101D00009D0024309E0033309B009C010800F100B0
:101D1000F0013A3071020318932E30307102031C27
:101D2000932EF001F00A700C08008E31B9268E3126
:101D30008E315B268E318E3148268E318E31622671
:101D40008E318E317C260800FD0022000C127808AE
:101D5000F9007908F1007D08FA007A08F2007D08A0
:101D60008F31B227FB007B08FC0022000C167C0898
:101D70000800103022008C008E012F3021008C00D2
:101D800032308E0023008E0107308C0024008C013D
:101D900030308E002100951322009E019D01080025
:101DA000F401F501701CD82E7208F4077308F53D94
:101DB0000130F235F30D890BD92E0130F136F00CDC
:101DC000890BDE2E70087104031DD22E7508F100F8
:101DD0007408F00008002000A2000130A0002208D2
:101DE000023E890AF42EA035890BF32E2008A100AB
:101DF0002108A3000530A0002008A5002C30A00079
:101E00002008A6002308A0002008A700A80104308D
:101E1000A0002008F80025308E31A4262000A10063
:101E20002108A40008007808790403193A2FFD015D
:101E3000FD0AF91B252F0130F835F90D890B1C2FF0
:101E40000130FC007C08FD07192F79087B02031D77
:101E50002B2F78087A02031C312F7808FA027908B0
:101E6000FB3B0130F936F80C890B322F0130FD02B3
:101E7000031D252F7B08F9007A08F8000800F501FA
:101E8000F6017008710403196E2FF701F70AF11BB0
:101E9000532F0130F035F10D890B4A2F0130F4003A
:101EA0007408F707472F0130F535F60D890B542FCD
:101EB00071087302031D5E2F70087202031C652FE8
:101EC0007008F2027108F33B75140130F136F00C22
:101ED000890B662F0130F702031D532F7608F1009E
:101EE0007508F000080020003A08BC003908BB0063
:101EF000BC36BB0CBC36BB0CBC36BB0C3B08BD00B7
:101F00003D08BF003908BB000430BB35FF3E031D50
:101F1000852F3B35E039BC003C08C0003F08BB00C2
:101F20003B082100A40020004008BB003B08210022
:101F3000A500200803190800F0302000A00091300F
:101F4000A1003F08BB00BC013B08A2003C08A30065
:101F50004008BD00BE013D08A4003E08A500833135
:101F60002D230800F600F70171080319FE2F7608EB
:101F7000031DE02FE52F7208031DC92F7708760790
:101F8000F30073088600870101088E3169268F31BE
:101F9000DC2F77087607F3007308860087010108B5
:101FA0008E3169268F31F40077087207F5007508C5
:101FB00086008701740881000130F3007308F70779
:101FC000710877020318FE2FBB2F7208031DFA2F2A
:101FD000FE2F00308E3169268F31F30077087207AB
:101FE000F400740886008701730881000130F30053
:101FF0007308F70771087702031CE92F77080800B8
:1020000007345B3453346534743420346F3475349E
:10201000743470347534743420346D346F346434F3
:1020200065345D3420347B34643465346234753413
:1020300067343A3420344034763464342C342034D9
:1020400076346534723462346F34733465343A34C0
:1020500020344034763476342C3420346E346F346B
:1020600072346D3461346C343A3420344034763414
:102070006E347D340A3400345B3445346E3461345C
:1020800062346C34653420346F34703465347234A7
:102090006134743469346F346E3420346D346F3489
:1020A000643465345D3420347B346C346F346F3485
:1020B00070346234613463346B343A3420344034E5
:1020C0006F346C342C3420346E346F3472346D348D
:1020D00061346C343A34203440346F346E347D349F
:1020E0000A3400345B34533465347434203473342C
:1020F000743461346E346434613472346434203442
:102100006934643465346E347434693466346934E3
:10211000653472345D342034403469343C34533493
:10212000743461346E346434613472346434203411
:102130004934643465346E347434693466346934D3
:10214000653472343E340A3400345B3452346534BE
:102150006334653469347634653420346D346534E1
:10216000733473346134673465345D3420343C3403
:102170006D346534733473346134673465343E349C
:102180002034773469346C346C34203462346534F0
:1021900020346F34753474347034753474340A34C4
:1021A00000345B3453346534743420346634693419
:1021B0006C347434653472345D34203440346634A5
:1021C0003C346E343E343C34663469346C3474349C
:1021D000653472342834533449344434313430341F
:1021E00020347E3420345334493444343034293458
:1021F0003E340A3400345B34533465347434203450
:102200006D34613473346B345D34203440346D3458
:102210003C346E343E343C346D34613473346B344E
:1022200028345334493444343134303420347E3407
:102230002034533449344434303429343E340A345D
:1022400000345B34533465346E34643420346D347C
:102250006534733473346134673465345D342034E9
:102260003C346D34653473347334613467346534AD
:102270003E340A3400340A3455346E3461346234E6
:102280006C346534203474346F34203473346534E2
:102290006E34643420346D34653473347334613493
:1022A000673465340A3400344D3465347334733420
:1022B0006134673465342034723465346334653492
:1022C00069347634653464343A34203425346434E3
:1022D0002C34253473340A3400342D342D342D3409
:1022E000203455344134523454343234433441343C
:1022F0004E342034483445344C34503420342D345A
:102300002D342D340A340034663469346C3474341A
:102310006534723428342534643429343A34203412
:102320002534303432347834203425343034323467
:1023300078340A3400345B34533468346F3477347F
:102340002034743468346934733420346834653428
:102350006C3470345D343A342034403468340A3498
:1023600000344D3465347334733461346734653408
:1023700020347234653463346534693476346534BA
:1023800064343A342034253473340A3400346D34E0
:10239000613473346B3428342534643429343A344A
:1023A00020342534303432347834203425343034F9
:1023B000323478340A34003443346F34703479342E
:1023C00069346E346734203462347534663466346C
:1023D000653472343A342034253463340A3400349A
:1023E00053344934443420347334653474343A34C7
:1023F00020342534303432347834203425343034A9
:10240000323478340A3400340A344D346534733449
:1024100073346134673465342034733465346E3416
:1024200074343A342034253473340A34003430346C
:102430003134323433343434353436343734383458
:10244000393461346234633464346534663400345E
:102450005234583442342534643453344934443487
:1024600048343A34203425343034323478340A3421
:1024700000345434583442342534643453344934A9
:10248000443448343A3420342534303432347834C7
:102490000A340034523458344634253464345334C6
:1024A0004934443448343A342034253430343234D6
:1024B00078340A340034523458344D34253464347A
:1024C00053344934443448343A3420342534303495
:1024D000323478340A340034523458344234253497
:1024E00064345334493444344C343A34203425343D
:1024F0003034323478340A3400345434583442346A
:10250000253464345334493444344C343A3420341C
:1025100025343034323478340A3400345234583468
:102520004634253464345334493444344C343A34D6
:10253000203425343034323478340A340034523480
:1025400058344D34253464345334493444344C3491
:102550003A34203425343034323478340A34003478
:102560005234583442342534643444344C34433483
:102570003A34203425343034323478340A34003458
:1025800052345834423425346434443430343A3488
:10259000203425343034323478340A34003443342F
:1025A00041344E3453345434413454343A34203466
:1025B00025343034323478340A34003454345834C6
:1025C0004234303420346934733420346934643410
:1025D0006C3465340A340034543458344234313461
:1025E0002034693473342034693464346C34653491
:1025F0000A34003454345834423432342034693488
:1026000073342034693464346C3465340A340034EF
:1026100052345834303449344634203469347334B5
:1026200020346F346E340A34003452345834313428
:102630004934463420346934733420346F346E3472
:102640000A340034013400340A3400346434003471
:10265000E8340334103427340134003410340034A7
:10266000003401340034103428346E3475346C3442
:102670006C342934003400340434083410341434F5
:1026800018343134413451340034023404342534A4
:0C2690006334003400340234203424345D
:020000040001F9
:04000E00E4FFFFFE0E
:00000001FF
