:10000000803102288731F02F80308D31C425803136
:100010008B31E42380312000C7004708C8006F08F7
:100020008D31C4250800FD007D0886008701203041
:100030000106031D20280130F8007808FD07142868
:100040007D08860087010930010603191B28FB0182
:10005000FC01FA017D08860087012D300106031D91
:1000600036280130F8007808FA073D287D08860018
:1000700087012B300106031D41280130F800780864
:10008000FD077D088600870101088B3143238031FD
:10009000031C66287C08F1007B08F0000A30F2009F
:1000A0000030F3008B31A52380317D088600870165
:1000B00001087007F80071080318710AF900780840
:1000C000D03EFB00FF30793DFC003D287A08031943
:1000D00075287B09F8007C09F900F80A0319F90A68
:1000E0007808F6007908F70008007C08F7007B081C
:1000F000F6000800A6302000A2009430A30085314D
:10010000A52580312000D101023051020318E128D9
:100110005135AC3E86008701403FCF00413FD000C3
:100120005008C4004F08C300C436C30CC436C30C07
:10013000C436C30C4308C5004508CD004F08073935
:10014000C3000430C335FF3E031DA2284335C4005D
:100150004408CE004530A2009130A3005108C300EE
:10016000C4014308A4004408A5005108C500C60105
:100170004508A6004608A7005108C700C80147085F
:10018000A8004808A9005008AB004F08AA004D0875
:10019000C900CA014908AC004A08AD004E08CB00AE
:1001A000CC014B08AE004C08AF008531A52580314D
:1001B00001302000C3004308D10702305102031C64
:1001C0008828D1010630510203183F295135A03E3D
:1001D00086008701403FCF00413FD0005008C40057
:1001E0004F08C300C436C30CC436C30CC436C30C9A
:1001F0004308C5004508CD004F080739C300043047
:10020000C335FF3E031D00294335C4004408CE001A
:100210001930A2009130A3005108C300C401430863
:10022000A4004408A5005108C500C6014508A60061
:100230004608A7005108C700C8014708A800480899
:10024000A9005008AB004F08AA004D08C900CA0118
:100250004908AC004A08AD004E08CB00CC014B0861
:10026000AE004C08AF008531A5258031013020005B
:10027000C3004308D10706305102031CE628A6300C
:10028000A2009430A3008531A5250800A6302000E7
:10029000A2009430A3008531A52581314030200093
:1002A000A2009330A300210032082000C300C40143
:1002B0004308A4004408A5008531A525813162309A
:1002C0002000A2009330A300210033082000C300C7
:1002D000C4014308A4004408A5008531A525813147
:1002E000A9302000A2009430A3008531A5258131DA
:1002F00050302000A2009430A3002A308B318C2390
:1003000081312000C300C4014308A4004408A500B3
:100310008531A52581315C302000A2009430A300F6
:1003200029308B318C2381312000C300C401430864
:10033000A4004408A5008531A5258131683020003E
:10034000A2009430A30028308B318C23813120000F
:10035000C300C4014308A4004408A5008531A525B5
:100360008131A9302000A2009430A3008531A52559
:1003700081319F302000A2009330A30030308B31B8
:100380008C2381312000C300C4014308A400440829
:10039000A5008531A5258131BF302000A200933012
:1003A000A30040308B318C2381312000C300C40175
:1003B0004308A4004408A5008531A5258131CF302C
:1003C0002000A2009330A30050308B318C23813168
:1003D0002000C300C4014308A4004408A5008531DF
:1003E000A5258131A9302000A2009430A3008531D9
:1003F000A52581318F302000A2009330A30060300A
:100400008B318C2381312000C300C4014308A40038
:100410004408A5008531A5258131AF302000A20018
:100420009330A30070308B318C2381312000C300C6
:10043000C4014308A4004408A5008531A5258131E5
:10044000A9302000A2009430A3008531A525813178
:10045000EE302000A2009330A3000F308B318C23AC
:1004600081312000C300C4014308A4004408A50052
:100470008531A5258131FD302000A2009330A300F5
:100480000E308B318C2381312000C300C40143081E
:10049000A4004408A5008531A5258131A63020009F
:1004A000A2009430A3008531A52508002000CB00D0
:1004B000CD01A030C40044082100B400B5010230D1
:1004C0002000C4004408F800B4308B31602382312E
:1004D0002000C5004508C900210035082000C400DF
:1004E0004408CA004A1B842A6B0803197E2A283054
:1004F000A2009430A3008531A5258231023020006E
:10050000C4004408CD00A22A4A1A942A6B08031991
:10051000902A1A30A2009430A3008531A52582319B
:100520002000CD01CD0AA22A4A19A22A6B0803197C
:10053000A02A0C30A2009430A3008531A525823179
:100540002000CD014D08AE3E840094300318013EDA
:1005500085000008403EC40044082100B400320871
:100560002000C40044082100B50033082000C40066
:1005700044082100B600B701B80120004308C400B8
:1005800044082100B9002000CC0143084C020318A4
:10059000F52A4C084B07C40044088600870101086F
:1005A000C5004C08063EB43E860087014508810020
:1005B0006B080319EF2AF330A2009230A3004C0815
:1005C0004B07C4004408860087010108C500C60126
:1005D0004508A4004608A5008531A52582310130D3
:1005E0002000C4004408CC07C52A4308063EC400C6
:1005F0004408C8004808C4004408F800B4308B31EF
:10060000602382312000C5004508C9000330C400C2
:1006100044082100B40020004D08AB3E8400943013
:100620000318013E85000008C40044082100B500FD
:10063000B60103302000C4004408F800B4308B3108
:100640006023823120006B0803193D2B4C30A2003F
:100650009330A3004D08C400C5014408A400450818
:10066000A500210036082000C600C7014608A600E4
:100670004708A7008531A525823103302000C4003A
:1006800044082100B40020004D08AB3E84009430A3
:100690000318013E85000008013EC4004408210003
:1006A000B500B60103302000C4004408F800B4309F
:1006B0008B316023823120006B080319762B6E305A
:1006C000A2009330A3004D08C400C5014408A40053
:1006D0004508A500210036082000C600C7014608CD
:1006E000A6004708A7008531A525823120004908CA
:1006F0004806031D08000130C4004D0A802BC43594
:10070000890B7F2B4408803EC50045082100B400BA
:10071000F801F80AB4308B31602382312000C40024
:100720004408C9004903031D08006B0803190800A9
:100730000730A2009330A3004B08A4000030A500AE
:100740008531A525080022008E152100D9014130F0
:100750002000E900EE30890BAB2BE90BAB2B00003E
:100760008B31512383312000ED01EE011930C70098
:100770000D30C8008E311B2683312100DD018D3103
:100780006E2583312000E90069082100D600560853
:100790000319CD2B22008E11CF2B22008E152000A5
:1007A000911EBF2B8B31232383312000E900690880
:1007B0002100DB0059080319EE2BB1302000A20004
:1007C0009430A30021005B082000E900EA016908D9
:1007D000A4006A08A5008531A525833121005B08A6
:1007E0002000E90021005D08C43E8600870120004A
:1007F000690881000A3021005B06031D8C2D5D080D
:10080000C43E86008701810140304406031D822DCD
:1008100045082000E90069082100DC005D2DC63094
:1008200080311320833176082000E9006908210017
:10083000D40054082000E900EA016908F0006A08C1
:10084000F1008B31C0238331BD2B6430210046067B
:10085000031D2E2CF001F00A0130352C76304606AF
:10086000031D3C2CF001F00A00308B31382383311A
:100870002100D901D90ABD2B6E304606031DBD2BC0
:10088000F00100308B31382383312100D901BD2B99
:100890006C304606031D4E2C4030542C6E30210027
:1008A0004606031D572C00308D31C42583312100AD
:1008B0004708031D5E2C2000ED01692C73302100D8
:1008C0004706031D6B2C4808031D6B2C2000ED010F
:1008D000ED0AEE01BD2B683021004706031DBD2B3C
:1008E0004808031DBD2B2000ED01EE01EE0ABD2BD3
:1008F000803104208331C630803113208331760863
:100900002000E90069082100D50055088C316424D5
:100910008331BD2B21004608D03E2000E900690844
:100920002100DA00C730803113208331770821009D
:10093000D8007608D7006D305C06031DB12C5A082C
:100940002000E9006908C700210058082000C900FC
:10095000210057082000C80000308E31A6268331C0
:10096000BD2B663021005C06031DBD2B5A082000FC
:10097000E9006908C700210058082000C9002100CB
:1009800057082000C80001308E31A6268331BD2BC8
:10099000803104208331BD2B80317A208331BD2BFF
:1009A000813146218331BD2B21005D08FF3E2000AF
:1009B000E9006908C300C530823156228331BD2B5E
:1009C00013302000A2009230A300DE30A400923049
:1009D000A5008531A5258331E6302000A2009030A6
:1009E000A3008531A525833102302000A20090307C
:1009F000A3008531A5258331B0302000A2009030BE
:100A0000A3008531A52583313D302000A200903020
:100A1000A3008531A5258331C7302000A200913085
:100A2000A3008531A52583319D302000A20091309F
:100A3000A3008531A52583316E302000A2009230BD
:100A4000A3008531A5258331ED302000A20091302F
:100A5000A3008531A525833137302000A2009230D4
:100A6000A3008531A5258331C9302000A200923032
:100A7000A3008531A525833154302000A200923097
:100A8000A3008531A525833177302000A200903066
:100A9000A3008531A525833171302000A20091305B
:100AA000A3008531A52583319E302000A20092301D
:100AB000A3008531A5258331BD2B21005C08403A78
:100AC0000319D42C063A0319CC2C273A0319C82C45
:100AD000033A0319782C063A0319D02C023A031969
:100AE0008A2C0E3A0319E02C013A03190F2C043A10
:100AF00003198A2C023A0319482C193A0319252C98
:100B00008B2DBD2B5D082000E9006908C300C430AF
:100B1000823156228331BD2B01302000E900690863
:100B20002100DD0708305D02031CBF2B5D08C43EB9
:100B30008600870181015D082000E9006908C30083
:100B4000C430823156228331BD2B24302000B000C6
:100B50003008BC0020002308B1002208B000A20A1F
:100B60000319A30A30088400310885000008B20088
:100B70003208C20042080319080025304206031952
:100B8000C62D42088A31F9228531AA2D2000C001E4
:100B9000C101BF01D02D3F150130A2070030A33D98
:100BA00022088400230885000008303A0319CB2D61
:100BB000D92D220884002308850000088B314323A7
:100BC0008531031C852E2000C001C1010A30F000D0
:100BD0000030F10020004108F3004008F2008B31A2
:100BE000A523853171082000C1007008C0002208CB
:100BF0008400230885000008D03EB000FF300318B1
:100C00000030B1003008C0073108C13D0130A207F3
:100C10000030A33D220884002308850000088B31A2
:100C200043238531031C852EE62DBF16BF17A92E41
:100C30003C0886008701403FB800413FB9000230C0
:100C4000B0003008BC0738083904031D2B2E86304D
:100C5000B8009430B900BA01BB0138083A078400E3
:100C600039083B3D8500120003193B2E0130BA07BD
:100C70000030BB3D2D2E41083B02031D412E400894
:100C80003A020318482E3A08C0023B08C13B4A2EDC
:100C9000C001C101FF302000C007FF30C13D400A44
:100CA0000319410A0319662E20308A31F922853151
:100CB0004A2E380884003908850000088A31F92254
:100CC000853101302000B8070030B93D0130BA024B
:100CD0000030BB3B3A0A031D592E3B0A0319AA2DCB
:100CE000592E3C08860087010108B0003008C20078
:100CF0000230B0003008BC074230B8000030B90004
:100D00000130BA000030BB003B2E20002308B100A8
:100D10002208B000A20A0319A30A3008840031088F
:100D200085000008C200003A0319EF2F583A031952
:100D3000152E3B3A0319712E073A0319A92E0D3AC5
:100D40000319A92E1A3A0319182E0B3A0319162E55
:100D50007C2E2000BF1BC32E3C0886008701403F2D
:100D6000BD00413FBE000230B0003008BC07BE1FCE
:100D7000132F0330B0003008BF04BD09BE09BD0AFF
:100D80000319BE0A132F3C0886008701403FBD00AF
:100D9000413FBE000230B0003008BC07132FC20133
:100DA000C20A0530420603191C2F4208B000B101E7
:100DB000B035B10D7430300784009430313D85007A
:100DC000003FB200013FB30033083E02031DEA2E8C
:100DD00032083D02031C1C2F0130B0003008C2074E
:100DE000D12EC201C20A0430420603191C2F420848
:100DF000B000B101B035B10D7E30300784009430C1
:100E0000313D8500003FB200013FB30033083E0290
:100E1000031D0C2F32083D02031C1C2F0130B000B3
:100E20003008C207F32E3F088039003A0319CF2E4D
:100E3000803A0319F12E1C2F400841040319282F72
:100E40003F0803390319282FFF30C007FF30C13D89
:100E50004208B000B101B01BB1033108803AB200C2
:100E60004108803A3202031D372F40083002031830
:100E7000442F20004208B000B101B01BB10330087C
:100E8000C0023108C13B472F2000C001C1013F1DF6
:100E9000602F3F0803390319512F2D308A31F92271
:100EA00085312000400841040319792F30308A3100
:100EB000F9228531FF302000C007FF30C13D522F9D
:100EC000400841040319712F20308A31F9228531FD
:100ED000FF302000C007FF30C13D40084104031D22
:100EE000642F3F0803390319792F2D308A31F922F5
:100EF000853120004208B0003008B700DD2F0A30ED
:100F0000F8000030F9003708B000B101B035B10D7C
:100F10007430300784009430313D8500003FF0008C
:100F2000013FF1003E08F3003D08F2008C319724A8
:100F300085317108FB007008FA008C310A24853174
:100F40007808303E2000D62F3708B000B101B03508
:100F5000B10D7E30300784009430313D8500003F74
:100F6000F000013FF1003E08F3003D08F2008C3133
:100F70009724853170080F392000B2003208B6007E
:100F8000BF1AC62F2A30B4009330C92F1930B400CD
:100F90009330B5003508B1003408B000360830078A
:100FA000840031080318310A85000008B2003208B5
:100FB000C20042088A31F9228531FF302000B0009A
:100FC0003008B707370A0319AA2D3F088039003ABD
:100FD00003197F2F803A0319A42FD92FD92F080086
:100FE0002000EB01EC01ED01EE01EF01A0308400E7
:100FF0000030850024308A31FE2220008331A32B6B
:1015EA001630210097000800F10071088B31122390
:1015FA000800640080010131890BFF2A0034E030C1
:10160A002100990098012200960108004030240028
:10161A0094002030950092010800F0002000111E6D
:10162A00132B700823009A000800F0002400951379
:10163A0070089100141C1F2B110808002000911E2D
:10164A00232B23009D1C2B2B1D121D161908080085
:10165A00083023009F0090309D0024309E003330D4
:10166A009B009C010800F2007208F100710820003A
:10167A00EB007008F1007108EC000800F100F001BD
:10168A003A30710203184F2B30307102031C4F2B72
:10169A00F001F00A700C08008B3175238B318B3105
:1016AA0004238B318A31F5228B318B310B238B3119
:1016BA008B312D230800FD0022000C117808F90057
:1016CA007908F1007D08FA007A08F2007D088C3169
:1016DA00CB24FB007B08FC0022000C157C080800C8
:1016EA00143022008C008E013B3021008C003230F5
:1016FA008E0023008E018C0124008C0130308E0074
:10170A002100951722009E0184309D0008002000C8
:10171A00A1000330A00020082100B4002000210805
:10172A00A00020082100B500B60103302000A00067
:10173A002008F800B4308B316023210036080800F5
:10174A00F401F501701CAD2B7208F4077308F53D1E
:10175A000130F235F30D890BAE2B0130F136F00C66
:10176A00890BB32B70087104031DA72B7508F100B0
:10177A007408F00008007108F3007008F200F336EC
:10178A00F20CF336F20CF336F20C7208F400740819
:10179A00F5007008F2000430F235FF3E031DD12B2C
:1017AA007235E039F3007308F6007508F200720822
:1017BA002100B2007608F2007208B3000800053072
:1017CA002000A00020082100B4000F302000A00053
:1017DA0020082100B50010302000A00020082100B8
:1017EA00B60010302000A00020082100B700043005
:1017FA002000A0002008F800B4308B3160232000BC
:10180A00A1002108A2002208080078087904031917
:10181A00312CFD01FD0AF91B1C2C0130F835F90D9C
:10182A00890B132C0130FC007C08FD07102C790869
:10183A007B02031D222C78087A02031C282C7808C4
:10184A00FA027908FB3B0130F936F80C890B292C8E
:10185A000130FD02031D1C2C7B08F9007A08F800F0
:10186A0008002000A4000130A0002408023E890AD2
:10187A003F2CA035890B3E2C2008A1002108A2008C
:10188A000530A00020082100B4002C302000A00060
:10189A0020082100B50020002208A000200821000D
:1018AA00B600B70104302000A0002008F800B430C8
:1018BA008B3160232000A1002108A300080020002A
:1018CA00C90080308D31C4258C313F302000C700DB
:1018DA004708CA000530C70047082100B4002A306B
:1018EA002000C70047082100B50020004A08C700A9
:1018FA0047082100B60020004908C7004708210010
:10190A00B70004302000C7004708F800B4308B3114
:10191A0060238C312000C8004808CB006F088D3145
:10192A00C4250800F501F601700871040319C62CD4
:10193A00F701F70AF11BAB2C0130F035F10D890BD9
:10194A00A22C0130F4007408F7079F2C0130F535FA
:10195A00F60D890BAC2C71087302031DB62C7008A6
:10196A007202031CBD2C7008F2027108F33B751455
:10197A000130F136F00C890BBE2C0130F702031D41
:10198A00AB2C7608F1007508F0000800F600F701A4
:10199A0071080319172D7608031DF92CFE2C7208FD
:1019AA00031DE22C77087607F30073088600870187
:1019BA0001088B311A238C31F52C77087607F3004E
:1019CA0073088600870101088B311A238C31F400D1
:1019DA0077087207F5007508860087017408810088
:1019EA000130F3007308F707710877020318172DFF
:1019FA00D42C7208031D132D172D00308B311A2396
:101A0A008C31F30077087207F400740886008701A6
:101A1A00730881000130F3007308F7077108770231
:101A2A00031C022D7708080020006D0803192C2DCD
:101A3A008D30A2009430A3004408A5004308A400F6
:101A4A004508A6000030A7008531A525080020001A
:101A5A006E080319622D9A30A2009430A30044083C
:101A6A00A5004308A4008531A5258D312000CA01AF
:101A7A0046084A0203185B2DA030A2009430A30046
:101A8A004A084507C7004708860087010108C800B9
:101A9A00C9014808A4004908A5008531A5258D314A
:101AAA0001302000C7004708CA073D2DA930A2000F
:101ABA009430A3008531A525080015302000A20026
:101ACA009330A3004508A4000030A5008531A52560
:101ADA000800A0302000E50065082100B400B50127
:101AEA0002302000E5006508F800B4308B3160232D
:101AFA008D312000E6006608E70021003508200045
:101B0A00E5006508E8006808031D8D2D013008000E
:101B1A00E81C9E2D6B080319992D4330A2009430BE
:101B2A00A3008531A5258D3101308F314B278D31A9
:101B3A00BD2D681CAF2D6B080319AA2D3630A200E3
:101B4A009430A3008531A5258D3100308F314B2784
:101B5A008D31BD2DE81DB32D0030BA2DE81EB72DED
:101B6A000130BA2DE81FBD2D02308C3136248D315B
:101B7A002000681EC22D0030080001300800200035
:101B8A00C6000230C30043082100B4000F30200011
:101B9A00C30043082100B50020004608C3004308DB
:101BAA002100B60003302000C3004308F800B43017
:101BBA008B3160238D312000C4004408C500803079
:101BCA0046060319EC2D4608C3004308EF0003300C
:101BDA004506031D08000330C30043082100B40072
:101BEA000E302000C30043082100B5000330200056
:101BFA00C3004308F800B4308B3160238D312000D4
:101C0A00C4004408C5006B0803190800FD30A2008F
:101C1A009330A300210036082000C300C401430802
:101C2A00A4004408A5008531A525080041302000FC
:101C3A00C900EE30890B1F2EC90B1F2E0000003081
:101C4A00F000F1008B31C0238E31200048082100BA
:101C5A00B100200047082100B000C0302000C900B0
:101C6A0049082100B400F801F80AB4308B31602326
:101C7A008E310830890B3F2E000002302000C90047
:101C8A0049082100B40028302000C9004908210071
:101C9A00B50005302000C90049082100B600F1301E
:101CAA002000C90049082100B70041302000C900BE
:101CBA0049082100B80005302000C9004908F80089
:101CCA00B4308B3160238E3102302000C9004908BC
:101CDA002100B40060302000C90049082100B50085
:101CEA0024302000C90049082100B6000330200032
:101CFA00C9004908F800B4308B3160238E310230B4
:101D0A002000C90049082100B40070302000C90031
:101D1A0049082100B50020302000C90049082100E7
:101D2A00B60003302000C9004908F800B4308B31EE
:101D3A0060238E312000EB01EC0100308D31C42587
:101D4A0008002000D20080308D31C4258E318B31BD
:101D5A00E4238E310830200049020030031948027A
:101D6A00031CBB2EFF30C8000730C9004908CB004E
:101D7A004808CA00CB36CA0CCB36CA0CCB36CA0CBA
:101D8A004A08CC004C08D30048080739CA00043076
:101D9A00CA35FF3E031DCD2E4A35CB004B08D40071
:101DAA005208031DE72E4735AC3E860087014808D6
:101DBA00C03F4908C13F6B0803190F2FB430A20076
:101DCA009230F62E20004735A03E8600870148084B
:101DDA00C03F4908C13F6B0803190F2F8730A20083
:101DEA009230A3004708CA00CB014A08A4004B0856
:101DFA00A5005308CC00CD014C08A6004D08A70049
:101E0A005408CE00CF014E08A8004F08A90085311A
:101E1A00A5258E3102302000CA004A082100B400EC
:101E2A002000520803191E2F4708943E840094305C
:101E3A00222F4708003E840090300318013E850097
:101E4A000008CA00CB014A08D0004B08D10050084C
:101E5A00CA004A082100B50020005308CA004A08EF
:101E6A002100B60020005408CA004A082100B70021
:101E7A0004302000CA004A08F800B4308B316023CD
:101E8A008E3120006F088D31C42508002000E4003F
:101E9A006408B43E840094300318013E85000008AB
:101EAA000907903ECB004B08D1000E30CB004B08FF
:101EBA00F80051308B3160238F312000CC004C0860
:101ECA00D0005608CB004B08E3005308CB0005307E
:101EDA00CB36890B6D2F4B08CC00CD015208CE00B2
:101EEA00CF01CE35CF0DCE35CF0DCE35CF0D4C0827
:101EFA004E07E1004D084F3DE200FF306105E10069
:101F0A0007306205E2006308063E513E86008701FB
:101F1A0081016B080319E82F3B30A2009330A3001C
:101F2A006408CB00CC014B08A4004C08A500520859
:101F3A00CD00CE014D08A6004E08A7008531A52583
:101F4A008F315D302000A2009330A3006408CB00DB
:101F5A00CC014B08A4004C08A5005308CD00CE01C3
:101F6A004D08A6004E08A7008531A5258F317F3080
:101F7A002000A2009330A3006408CB00CC014B08D8
:101F8A00A4004C08A5005608CD00CE014D08A600B5
:101F9A004E08A7008531A5258F31DF302000A20029
:101FAA009330A3006408CB00CC014B08A4004C0872
:101FBA00A5005708CD00CE014D08A6004E08A7007F
:101FCA008531A5258F3157302000CB004B08E00022
:101FDA006208C4006108C3006008CB004B08C50052
:101FEA006308CC004C08C600210031088A0030087A
:101FFA000A008F310800203424345B3453346534AA
:10200A00743420346F3475347434703475347434E1
:10201A0020346D346F34643465345D3420347B3459
:10202A00643465346234753467343A342034403465
:10203A00763464342C342034763465347234623421
:10204A006F34733465343A34203440347634763419
:10205A002C3420346E346F3472346D3461346C3401
:10206A003A342034403476346E347D340A340034C1
:10207A0020342034203420342034773469347434C2
:10208A00683420345334493444343A3420344034A4
:10209A006F346C34733420346F34723420344034E7
:1020AA006F346E3473342C34203469346E342034F3
:1020BA00683465347834203466346F3472346D345D
:1020CA00613474343A34203440346F346C346834B4
:1020DA0020346F347234203440346F346E346834B0
:1020EA000A3400345B34533465346E346434203437
:1020FA006D34653473347334613467346534203431
:10210A0062346534673469346E346E3469346E34DB
:10211A00673420347734693474346834203427348B
:10212A00403427342034633468346134723461347F
:10213A0063347434653472345D34203440343C344E
:10214A0040346D34653473347334613467346534C0
:10215A003E340A3400345B3445346E3461346234BC
:10216A006C34653420346F347034653472346134BD
:10217A00743469346F346E3420346D346F3464349B
:10218A0065345D3420347B346C346F346F3470348E
:10219A006234613463346B343A34203440346F34FB
:1021AA006C342C3420346E346F3472346D346134B0
:1021BA006C343A34203440346F346E347D340A340B
:1021CA0000345B34533465347434203473347434D7
:1021DA0061346E3464346134723464342034693462
:1021EA00643465346E3474346934663469346534FD
:1021FA0072345D342034403469343C34733474347A
:10220A0061346E3464346134723464342034693431
:10221A00643465346E3474346934663469346534CC
:10222A0072343E340A340034523458344634253435
:10223A0064342034523458344634253464345334A4
:10224A0049344434483420345234583446342534DA
:10225A0064345334493444344C343A3420342534C5
:10226A0034346434203425343034323458346834C5
:10227A002034253430343234583468340A34003443
:10228A00523458344D34253464342034523458345A
:10229A004D34253464345334493444344834203476
:1022AA00523458344D342534643453344934443424
:1022BA004C343A34203425343434643420342534CC
:1022CA00303432345834683420342534303432349B
:1022DA00583468340A3400345B3452346534633415
:1022EA00653469347634653420346D346534733436
:1022FA0073346134673465345D3420343C346D346E
:10230A006534733473346134673465343E3420344D
:10231A00773469346C346C34203462346534203454
:10232A006F34753474347034753474340A34003448
:10233A005B345334653474342034663469346C3411
:10234A007434653472345D342034403466343C3439
:10235A006E343E343C34663469346C3474346534D7
:10236A0072342834533449344434313430342034C8
:10237A007E342034533449344434303429343E349E
:10238A000A3400345B3453346534743420346D3485
:10239A00613473346B345D34203440346D343C34EE
:1023AA006E343E343C346D34613473346B342834C7
:1023BA005334493444343134303420347E34203474
:1023CA00533449344434303429343E340A340034E2
:1023DA005B34413462346F3472347434203461347F
:1023EA006C346C342034703465346E34643469343B
:1023FA006E34673420347434723461346E34733416
:10240A006D3469347334733469346F346E347334AD
:10241A005D342034403461340A3400342F342F348C
:10242A002F34203455344134523454343234433402
:10243A0041344E342034483445344C3450342034FA
:10244A002834763465347234733469346F346E34B4
:10245A00203425347334293420342F342F342F3444
:10246A000A3400345B34443475346D3470342034A7
:10247A006D34613473346B347334203461346E34A4
:10248A0064342034663469346C3474346534723498
:10249A0073345D342034403446340A3400345B34B7
:1024AA00533465346E34643420346D346534733493
:1024BA0073346134673465345D3420343C346D34AC
:1024CA006534733473346134673465343E340A34A2
:1024DA0000345B34533465347434203462346134E8
:1024EA0075346434203472346134743465345D3440
:1024FA002034403462343C346234703472343E34B2
:10250A000A340034663469346C3474346534723491
:10251A0028342534643429343A3420342534303488
:10252A0032347834203425343034323478340A342E
:10253A0000345B34533468346F3477342034743461
:10254A006834693473342034683465346C347034D4
:10255A005D343A342034403468340A3400346D34FB
:10256A00613473346B3428342534643429343A346E
:10257A00203425343034323478342034253430341D
:10258A00323478340A3400345B34443475346D346C
:10259A007034203472346534673469347334743473
:1025AA006534723473345D342034403464340A340C
:1025BA00003430342E3431343334203420344D3422
:1025CA0061347234633468342034323433342C3412
:1025DA0020343234303431343834003443346F34B4
:1025EA007034793469346E34673420346234753423
:1025FA0066346634653472343A34203425346334AC
:10260A000A3400344D3465347334733461346734B6
:10261A0065342034733465346E3474343A34203477
:10262A00253473340A340034303431343234333498
:10263A003434353436343734383439344134423426
:10264A00433444344534463400343034313432343B
:10265A0033343434353436343734383439346134F5
:10266A006234633464346534663400345234583422
:10267A0042342534643453344934443448343A3483
:10268A00203425343034323478340A340034543423
:10269A005834423425346434533449344434483445
:1026AA003A34203425343034323478340A3400341D
:1026BA00523458344234253464345334493444341B
:1026CA004C343A34203425343034323478340A34B1
:1026DA00003454345834423425346434533449343D
:1026EA0044344C343A342034253430343234783457
:1026FA000A3400345234583442342534643444346D
:10270A004C3443343A342034253430343234783437
:10271A000A34003452345834423430344334543452
:10272A0052344C343A342034253430343234783408
:10273A000A34003454345834423430344334543430
:10274A0052344C343A3420342534303432347834E8
:10275A000A34003452345834423431344334543411
:10276A0052344C343A3420342534303432347834C8
:10277A000A340034543458344234313443345434EF
:10278A0052344C343A3420342534303432347834A8
:10279A000A340034543458344234323443345434CE
:1027AA0052344C343A342034253430343234783488
:1027BA000A340034523458344234253464344434AC
:1027CA0030343A34203425343034323478340A34CC
:1027DA000034433441344E344334543452344C3448
:1027EA003A34203425343034323478340A340034DC
:1027FA00433441344E3453345434413454343A34E7
:10280A00203425343034323478340A3400345434A1
:10281A0058344234303420346934733420346934BF
:10282A0064346C3465340A340034543458344234D1
:10283A0031342034693473342034693464346C3468
:10284A0065340A340034543458344234323420342F
:10285A00693473342034693464346C3465340A342A
:10286A0000345234583430344934463420346934CC
:10287A00733420346F346E340A340034523458348A
:10288A0031344934463420346934733420346F3453
:10289A006E340A34003443344E34463431343A34D4
:1028AA00203425343034323478340A340034433412
:1028BA004E34463432343A342034253430343234C7
:1028CA0078340A34003443344E34463433343A3498
:1028DA00203425343034323478340A340034013424
:1028EA0000340A34003464340034E83403341034D5
:1028FA0027340134003410340034003401340034F5
:10290A00103428346E3475346C346C342934003401
:10291A00253464342C34253473340A3400340034B6
:10292A00043408341034143418342534303433342D
:10293A0078343A340034203425343034323478341C
:10294A0000342D342D342D340A34003431344134DA
:10295A0051340034023404342534633400340034EE
:02296A00023435
:020000040001F9
:04000E00E4FFFFFE0E
:00000001FF
