:040000008031222801
:100008007E14803120007F08F1000B1F1D2821007D
:10001800111E15282000111E152882319C228031BE
:100028001D282100911E1D282000911E1D288231A7
:10003800D42271082000FF007E1009008031242896
:10004800FA01FB0138308400003085001730833115
:100058005F238031A0308400003085004030833138
:100068005F237E1020008131072928302000AA0054
:100078002A08B00020002708AB002608AA00A60A14
:100088000319A70A2A0884002B0885000008AC0079
:100098002C08B30033080319080025303306031968
:1000A8005A28330883316B2380313E282000AE0163
:1000B8006D283008860087010108AA002A08B300C5
:1000C8000230AA002A08B007330883316B23803135
:1000D8003E2820002708AB002608AA00A60A031914
:1000E800A70A2A0884002B0885000008B300003AF4
:1000F80003190629633A03195D28073A0319882862
:100108000D3A0319882868282000300886008701DE
:10011800403FB100413FB2000230AA002A08B007B0
:10012800B21F9F280330AA002A08AE04B109B209F9
:10013800B10A0319B20AB301B30A05303306031929
:10014800C4283308AA00AB01AA35AB0D4E302A07E4
:10015800840083302B3D8500003FAC00013FAD009B
:100168002D083202031DBA282C083102031CC428AA
:100178000130AA002A08B30705303306031DA52855
:100188002E0803390319CC282D3083316B23803195
:1001980020003308AA002A08AF00FF302000AA0078
:1001A8002A08AF072F0A03193E280A30A00000309A
:1001B800A1002F08AA00AB01AA35AB0D4E302A07C3
:1001C800840083302B3D8500003FF200013FF3009F
:1001D8003208F5003108F4008131FA2180317308C2
:1001E8002000A3007208A20082312E228031200054
:1001F8002008303EAC002C08B300330883316B2351
:100208008031D12808008331312381318B170B17B6
:1002180000302000A500A60083311F238131200073
:10022800911E132982317E2281312000B4003408C6
:10023800CE007830A6008330A7004E08B400B50180
:100248003408A8003508A900803139208131200000
:100258004E08B4004D08A03E86008701340881008E
:100268000A304E06031D6C294D08A03E8600870102
:100278008101403021002006031D6A29A130F800C1
:100288000030F90081318A21813179082000B700D6
:100298007808B6003708F9003608F80081318A2155
:1002A800813179082000A6007808A50083311F2332
:1002B800813170302000A6008330A7003708A900DC
:1002C8003608A800803139208131872920007F290C
:1002D8000130B4003408CD077B30840083308500BA
:1002E8000008B5004D083502031813294D08A03E33
:1002F8008600870181014D08B4003408F200A0305F
:1003080083317C2381312000CD01132978088400B2
:10031800790885001200203A031D97290130F80753
:100328000030F93D8A297808840079088500120090
:10033800093A031992292000A301A401A20178080F
:1003480084007908850012002D3A031DB029013078
:10035800A0002008A207B829780884007908850039
:1003680012002B3A031DBC290130F8070030F93D73
:10037800780884007908850000088331402381319A
:10038800031CE52920002408F3002308F2000A30A2
:10039800F4000030F5008231B922813178088400F8
:1003A80079088500000872072000A0007308031868
:1003B800730AA1002008D03EA300FF30213DA4000D
:1003C800B829200022080319F5292309A0002409C7
:1003D800A100A00A0319A10A2008F8002108F900C1
:1003E80008002408F9002308F8000800F701F801BC
:1003F800720873040319292AF901F90AF31B0E2A52
:100408000130F235F30D890B052A0130F600760824
:10041800F907022A0130F735F80D890B0F2A7308FE
:100428007502031D192A72087402031C202A720817
:10043800F4027308F53B77140130F336F20C890B9C
:10044800212A0130F902031D0E2A7808F3007708E3
:10045800F20008002000200821040319562AA501EB
:10046800A50AA11B412A0130A035A10D890B382A04
:100478000130A4002408A507352A21082302031DFA
:10048800472A20082202031C4D2A2008A20221081C
:10049800A33B0130A136A00C890B4E2A0130A502DE
:1004A800031D412A2308A1002208A0000800F30028
:1004B80020004F0803195C2A2100111A672A7308C3
:1004C80023009A007B2A11127308F2007B08403E31
:1004D80086008701720881000130F2007208FB076C
:1004E80008307B020318FB0101302000CF022100F5
:1004F80011160800F30120004A0803197F2A4B0847
:10050800383E860087010108F2007208F3000130C6
:10051800F2007208CB0708304B020318CB01210008
:10052800911201302000CA022100911673080800B8
:10053800083020004F020318B62A7A08403E860089
:100548008701010823009A000130F0007008FA07BB
:1005580008307A020318FA010130F0007008200010
:10056800CF070800210011120800F601F701721CDC
:10057800C12A7408F6077508F73D0130F435F50D02
:10058800890BC22A0130F336F20C890BC72A72088C
:100598007304031DBB2A7708F3007608F2000800ED
:1005A80023009D1CD92A1D121D161908F0002000D1
:1005B8004C08383E86008701700881000130F00041
:1005C8007008CC0708304C020318CC010130F00049
:1005D8007008CA0708002100911211120830230080
:1005E8009F0090309D0024309E00CF309B009C01DE
:1005F800FB01FA010830F20072082000CF00CC019C
:10060800CB01CA0121009116080022008C018E013D
:100618003F3021008C003A308E00083023008E00D5
:1006280017308C0024008C018E01210095172200C0
:100638009E019D01080020002608A7002708C80081
:100648002508A7000430A735FF3E031D272B2735B3
:10065800E039A8002808C90008008331092383313C
:100668008331582383318331742383318331652364
:1006780083318231EF220800F300F2013A3073022D
:1006880003184C2B30307302031C4C2BF201F20A76
:10069800720C0800013400340A3400346434003425
:1006A800E83403341034273472302100990098015B
:1006B800220096010800640080010131890B602B3B
:1006C8000034240094012030950092010800F400C1
:1006D800740882315B220800253464340A340034FB
:1006E80016302100970008002534633400343F3465
:0206F8000800F8
:020000040001F9
:04000E00E4FFFFFF0D
:00000001FF
