:08000000803102288731E02F56
:100504001630210097000800F100710882319C2206
:10051400080002340F340034A03400342400940161
:100524002030950092010800640080010131890B9C
:10053400972A0034F0002000111E9D2A7008230021
:100544009A000800F0002400951370089100141C10
:10055400A92A110808002000911EAD2A23009D1C21
:10056400B52A1D121D1619080800703021009900C3
:1005740098012200960121001A1B0800BD2A0830A8
:1005840023009F0090309D0024309E0040309B004B
:1005940003309C000800F100F0013A3071020318A6
:1005A400D92A30307102031CD92AF001F00A700CE8
:1005B40008008231EA2282318231B72282318231CB
:1005C400822282318231902282318231C12208001A
:1005D400103022008C008E012F3021008C0032302C
:1005E4008E0023008E0107308C0024008C013030F3
:1005F4008E002100951322009E019D010800200019
:100604006208A5006308A6006408A7000330A200DE
:100614002208F8002530A3002308F900253083318F
:1006240018232000A4002408A80008002000A1002A
:1006340022000C127808FA007A08F1007908FB000D
:100644007B08F2002000210884311E24FC007C0871
:100654002000A00022000C12200020080800F40151
:10066400F501701C392B7208F4077308F53D01304D
:10067400F235F30D890B3A2B0130F136F00C890B6E
:100684003F2B70087104031D332B7508F1007408A7
:10069400F00008002000A5000130A2002508023E59
:1006A400890A552BA235890B542B2208A300230851
:1006B400A6000530A2002208A8002C30A2002208BF
:1006C400A9002608A2002208AA00AB010430A20057
:1006D4002208F8002830A3002308F90028308331C9
:1006E40018232000A4002408A7000800F501F6013F
:1006F400700871040319A72BF701F70AF11B8C2B5F
:100704000130F035F10D890B832B0130F4007408AE
:10071400F707802B0130F535F60D890B8D2B710809
:100724007302031D972B70087202031C9E2B700822
:10073400F2027108F33B75140130F136F00C890BA9
:100744009F2B0130F702031D8C2B7608F1007508EE
:10075400F000080020003208B4003108B300B436B9
:10076400B30CB436B30CB436B30C3308B500350847
:10077400B7003108B3000430B335FF3E031DBE2B70
:100784003335E039B4003408B8003708B30033080F
:10079400C7003808B3003308C8002F30F800883089
:1007A400F9003708B300B4013308FA003408FB0039
:1007B4003808B500B6013508FC003608FD0086315E
:1007C4003C26080020006608C1006508C00002300D
:1007D400BC003C08F8004030BD003D08F900403042
:1007E4008331182383312000BE003E08BF00400837
:1007F400BC003C08C2004208031D0800421C062C31
:10080400003084316C240800421C0C2C01308431EB
:100814006C240800421C122C003083314C23080045
:10082400421C182C013083314C230800421C080060
:10083400023083314C230800F600F70171080319D4
:100844006A2C7608031D4C2C512C7208031D352C80
:1008540077087607F3007308860087010108823160
:10086400A4228431482C77087607F30073088600A5
:10087400870101088231A4228431F40077087207C9
:10088400F500750886008701740881000130F300C3
:100894007308F7077108770203186A2C272C72086B
:1008A400031D662C6A2C00308231A4228431F300AB
:1008B40077087207F40074088600870173088100C2
:1008C4000130F3007308F70771087702031C552CF5
:1008D400770808002000BB003B08003E84008830F5
:1008E4000318013E8500000809079039B10031085A
:1008F4002100A0000E302000B1003108F80059306A
:10090400B2003208F900A03083311823843120006A
:10091400B3003308B5003508A03E86008701810185
:100924000130B1003B0A972CB135890B962C310864
:10093400B2003208B6000530B1003108B7002C30DF
:10094400B1003108B8003608B1003108B900BA0165
:100954000430B1003108F8003730B2003208F90031
:1009640037308331182384312000B3003308B400B6
:100974001930F8008830F900A030B1003108FA00CD
:1009840086313C2608002000A7002708633E840027
:1009940088300318013E850000084039A40024086B
:1009A400CB004708A4002408CC004808A40024086D
:1009B400CD00CE01CF012308A4002408D000AA0151
:1009C4000130A4002408AA072A030319F92C2A08D1
:1009D4002207A4002408860087010108A5002A082C
:1009E400063E4B3E8600870125088100E22C230841
:1009F400063EA4002408A8002808A4002408F8003F
:100A04004B30A5002508F9004B308331182384317D
:100A14002000A6002608A90029082806031D0800AE
:100A24000130A400270A172DA435890B162D24089C
:100A34008039A5002508AB00F801F80A2B30A40082
:100A44002408F9002B30833118232000A500250841
:100A5400A900080076088400770885001200203A6F
:100A6400031D392D0130F6070030F73D2C2D760893
:100A74008400770885001200093A0319342DFB011C
:100A8400FC01FA01760884007708850012002D3AEB
:100A9400031D512D0130F8007808FA07592D760806
:100AA40084007708850012002B3A031D5D2D013068
:100AB400F6070030F73D76088400770885000008C3
:100AC4008231CD228531031C842D7C08F1007B0802
:100AD400F0000A30F2000030F30083313123853115
:100AE400760884007708850000087007F80071080C
:100AF4000318710AF9007808D03EFB00FF30793DF5
:100B0400FC00592D7A080319932D7B09F8007C0900
:100B1400F900F80A0319F90A7808F6007908F700C9
:100B240008007C08F7007B08F60008008231DB220D
:100B3400853100302000B100B2008331AC2385310F
:100B44008331012385318331E42385312000911ED3
:100B5400A52D8231AD2285312000C3004308CA008F
:100B64006630F8008830F9004A08C300C40143081D
:100B7400FA004408FB0086313C268531031022002C
:100B84008E1D0314031CC92D22008E15CB2D2200AB
:100B94008E1120004A08C3004908593E8600870187
:100BA400430881000A304A06031D0E2E4908593EA7
:100BB40086008701810140305906031DFD2D5A30FE
:100BC400F6000030F70085312C25853177082000A8
:100BD400C6007608C5004608F7004508F6008531CA
:100BE4002C25853177082000B2007608B1008331C6
:100BF400AC238531392E59302000C3004308A200AC
:100C04004908C4004408A30000308431C524853158
:100C14000330F8008830302E0130C3004308C90780
:100C240069308400883085000008C4004908440203
:100C34000318A52D4908593E8600870181015930C2
:100C4400C3004308A2004908C4004408A3000030BC
:100C54008431C52485310230F8008830F9005930D8
:100C64002000C3004308FA0086313C268531200069
:100C7400C901A52D7A302000A0002008AB00790816
:100C84002000A1007808A000F80A0319F90A200836
:100C94008400210885000008A2002208B000300862
:100CA400031908002530300603195D2E30088231FF
:100CB40086228631412E2000AE01AF01A501682EA7
:100CC400200025150130F8070030F93D780884002C
:100CD400790885000008303A0319622E712E7808CD
:100CE40084007908850000088231CD228631031CF6
:100CF4001B2F2000AE01AF010A30F0000030F100DC
:100D040020002F08F3002E08F200833131238631AE
:100D140071082000AF007008AE00780884007908DC
:100D240085000008D03EA000FF3003180030A10069
:100D34002008AE072108AF3D0130F8070030F93D27
:100D4400780884007908850000088231CD22863134
:100D5400031C1B2F7E2E20002B0886008701010810
:100D6400A9000030AA000130A0002008AB07290820
:100D74002A04031DC12E5C30A9008830AA00AC01EE
:100D8400AD0129082C0784002A082D3D8500120096
:100D94000319D12E0130AC070030AD3DC32E2F080E
:100DA4002D02031DD72E2E082C020318DE2E2C082C
:100DB400AE022D08AF3BE02EAE01AF01FF302000A4
:100DC400AE07FF30AF3D2E0A03192F0A0319FC2E7C
:100DD4002030823186228631E02E290884002A08B8
:100DE4008500000882318622863101302000A9075F
:100DF4000030AA3D0130AC020030AD3B2C0A031D8B
:100E0400EF2E2D0A0319412EEF2E2B0886008701A1
:100E14000108A0002008B0000230A0002008AB07A1
:100E24003030A9000030AA000130AC000030AD0021
:100E3400D12E79082000A1007808A000F80A03192F
:100E4400F90A20088400210885000008B000003A4F
:100E54000319DF2F633A0319072F103A0319AD2E34
:100E64000B3A0319362F122F20002B088600870116
:100E7400403FA600413FA7000230A0002008AB0776
:100E8400B001B00A043030060319672F3008A000FF
:100E9400A101A035A10D5430200784008830213DE4
:100EA4008500003FA200013FA30023082702031D81
:100EB4005D2F22082602031C672F0130A0002008A2
:100EC400B00704303006031D482F3008A000A101EC
:100ED400A01BA1032108803AA2002F08803A220215
:100EE400031D762F2E0820020318832F20003008BC
:100EF400A000A101A01BA1032008AE022108AF3B62
:100F0400862F2000AE01AF01251D962F2E082F0439
:100F14000319A72F3030823186228631FF3020001A
:100F2400AE07FF30AF3D882F2E082F040319A72FDB
:100F34002030823186228631FF302000AE07FF3018
:100F4400AF3D2E082F04031D9A2F3008A00020085F
:100F5400A800FF302000A0002008A807280A0319D1
:100F6400412E2808A000A101A035A10D543020076E
:100F740084008830213D8500003FF000013FF100EE
:100F84002708F3002608F20083317823863170089D
:100F94000F392000A2002208A4002408433E840044
:100FA40088300318013E85000008A0002008B00026
:100FB4003008823186228631AB2F08008B308400C2
:100FC400823085001200E2001200E3001200E40007
:100FD4001200E5001200E60047308400003085006E
:100FE4001B30823196228731A03084000030850086
:100FF4000F308231962220008531982D003402343E
:101004000A34433441344E3420346D3465347334FB
:1010140073346134673465342034733465346E3426
:1010240074343A342034253473340A3400344D345F
:101034006534733473346134673465342034723402
:1010440065346334653469347634653464343A34ED
:101054002034253473340A3400345334493444344A
:1010640020347334653474343A34203425343034C1
:1010740032347834203425343034323478340A34F9
:101084000034303431343234333434343534363457
:101094003734383439346134623463346434653415
:1010A4006634003401340034103400340034013424
:1010B4000034103428346E3475346C346C34293470
:1010C40000340034023404342534633400340834E6
:020000040001F9
:04000E00E4FFFFFF0D
:00000001FF
