:10000000803102288731F02FF100F0013A3071027F
:100010000318102830307102031C1028F001F00A78
:10002000700C0800FD007D08860087012030010665
:10003000031D1F280130F8007808FD0713287D08EC
:10004000860087010930010603191A28FB01FC010B
:10005000FA017D08860087012D300106031D352831
:100060000130F8007808FA073C287D0886008701EF
:100070002B300106031D40280130F8007808FD07E9
:100080007D08860087010108803104208031031C2F
:1000900065287C08F1007B08F0000A30F20000308F
:1000A000F3008B319F2380317D0886008701010892
:1000B0007007F80071080318710AF9007808D03E3B
:1000C000FB00FF30793DFC003C287A0803197428B6
:1000D0007B09F8007C09F900F80A0319F90A780885
:1000E000F6007908F70008007C08F7007B08F600A6
:1000F0000800A5302000A2009430A3008531A5257A
:1001000080312000D101023051020318E02851351E
:10011000AC3E86008701403FCF00413FD0005008F1
:10012000C4004F08C300C436C30CC436C30CC43665
:10013000C30C4308C5004508CD004F080739C3006C
:100140000430C335FF3E031DA1284335C4004408D5
:10015000CE004430A2009130A3005108C300C40176
:100160004308A4004408A5005108C500C60145087D
:10017000A6004608A7005108C700C8014708A80004
:100180004808A9005008AB004F08AA004D08C90054
:10019000CA014908AC004A08AD004E08CB00CC01AA
:1001A0004B08AE004C08AF008531A52580310130E9
:1001B0002000C3004308D10702305102031C8728E6
:1001C000D1010630510203183E295135A03E860068
:1001D0008701403FCF00413FD0005008C4004F0886
:1001E000C300C436C30CC436C30CC436C30C4308A6
:1001F000C5004508CD004F080739C3000430C3359A
:10020000FF3E031DFF284335C4004408CE001830CC
:10021000A2009130A3005108C300C4014308A40008
:100220004408A5005108C500C6014508A6004608B7
:10023000A7005108C700C8014708A8004808A9003E
:100240005008AB004F08AA004D08C900CA01490870
:10025000AC004A08AD004E08CB00CC014B08AE0004
:100260004C08AF008531A525803101302000C30046
:100270004308D10706305102031CE528A530A2002F
:100280009430A3008531A5250800A5302000A200E8
:100290009430A3008531A52581313F302000A20094
:1002A0009330A300210032082000C300C40143089A
:1002B000A4004408A5008531A525813161302000C6
:1002C000A2009330A300210033082000C300C40122
:1002D0004308A4004408A5008531A5258131A83034
:1002E0002000A2009430A3008531A52581314F3034
:1002F0002000A2009430A3002A308B318623813164
:100300002000C300C4014308A4004408A5008531AF
:10031000A52581315B302000A2009430A300293054
:100320008B31862381312000C300C4014308A4001F
:100330004408A5008531A525813167302000A20041
:100340009430A30028308B31862381312000C300F4
:10035000C4014308A4004408A5008531A5258131C6
:10036000A8302000A2009430A3008531A52581315A
:100370009E302000A2009330A30030308B318623C2
:1003800081312000C300C4014308A4004408A50033
:100390008531A5258131BE302000A2009330A30015
:1003A00040308B31862381312000C300C4014308D3
:1003B000A4004408A5008531A5258131CE30200058
:1003C000A2009330A30050308B318623813120006E
:1003D000C300C4014308A4004408A5008531A52535
:1003E0008131A8302000A2009430A3008531A525DA
:1003F00081318E302000A2009330A30060308B3119
:10040000862381312000C300C4014308A4004408AE
:10041000A5008531A5258131AE302000A2009330A2
:10042000A30070308B31862381312000C300C401CA
:100430004308A4004408A5008531A5258131A830D2
:100440002000A2009430A3008531A5258131ED3034
:100450002000A2009330A3000F308B31862381311E
:100460002000C300C4014308A4004408A50085314E
:10047000A5258131FC302000A2009330A3000E306E
:100480008B31862381312000C300C4014308A400BE
:100490004408A5008531A5258131A5302000A200A2
:1004A0009430A3008531A52508002000CB00CD01A4
:1004B000A030C40044082100B400B501023020007F
:1004C000C4004408F800B4308B315A238231200034
:1004D000C5004508C900210035082000C4004408B3
:1004E000CA004A1B832A6A0803197D2A2730A20002
:1004F0009430A3008531A525823102302000C4004C
:100500004408CD00A12A4A1A932A6A0803198F2A9F
:100510001930A2009430A3008531A5258231200036
:10052000CD01CD0AA12A4A19A12A6A0803199F2AD6
:100530000B30A2009430A3008531A5258231200024
:10054000CD014D08AD3E840094300318013E850076
:100550000008403EC40044082100B40032082000D6
:10056000C40044082100B50033082000C40044083A
:100570002100B600B701B80120004308C4004408B8
:100580002100B9002000CC0143084C020318F42AD2
:100590004C084B07C4004408860087010108C500C9
:1005A0004C08063EB43E86008701450881006A0873
:1005B0000319EE2AF230A2009230A3004C084B0738
:1005C000C4004408860087010108C500C60145082B
:1005D000A4004608A5008531A52582310130200000
:1005E000C4004408CC07C42A4308063EC40044089B
:1005F000C8004808C4004408F800B4308B315A23BE
:1006000082312000C5004508C9000330C4004408F9
:100610002100B40020004D08AA3E84009430031845
:10062000013E85000008C40044082100B500B60161
:1006300003302000C4004408F800B4308B315A2342
:10064000823120006A0803193C2B4B30A200933002
:10065000A3004D08C400C5014408A4004508A50036
:10066000210036082000C600C7014608A60047083A
:10067000A7008531A525823103302000C40044083D
:100680002100B40020004D08AA3E840094300318D5
:10069000013E85000008013EC40044082100B50069
:1006A000B60103302000C4004408F800B4308B3198
:1006B0005A23823120006A080319752B6D30A2007D
:1006C0009330A3004D08C400C5014408A4004508A8
:1006D000A500210036082000C600C7014608A60074
:1006E0004708A7008531A525823120004908480622
:1006F000031D08000130C4004D0A7F2BC435890B4F
:100700007E2B4408803EC50045082100B400F80156
:10071000F80AB4308B315A2382312000C4004408D7
:10072000C9004903031D08006A08031908000630C0
:10073000A2009330A3004B08A4000030A50085312F
:10074000A525080022008E152100C9018B313C230C
:1007500083312000EC01ED01C030C7000D30C8002E
:100760008E311B2683312100D6018D311325833133
:100770002000E80068082100C60046080319C32BC2
:1007800022008E11C52B22008E152000911EB52B44
:100790008B311C2383312000E80068082100D4003D
:1007A00049080319E42BB0302000A2009430A300C4
:1007B000210054082000E800E9016808A400690845
:1007C000A5008531A5258331210054082000E800CB
:1007D00021005608CB3E8600870120006808810072
:1007E0000A3021005406031D822D5608CB3E860098
:1007F0008701810140304B06031D782D4C082000F5
:10080000E80068082100D500532DCD30803112203A
:10081000833176082000E80068082100C4004408FD
:100820002000E800E9016808F0006908F1008B3158
:10083000BA238331B32B643021004D06031D242CD1
:10084000F001F00A01302B2C76304D06031D322CBE
:10085000F001F00A00308B31312383312100C901CE
:10086000C90AB32B6E304D06031DB32BF0010030C7
:100870008B31312383312100C901B32B6C304D06FC
:10088000031D442C40304A2C6E3021004D06031DC0
:100890004D2C00308D316925833121004E08031D18
:1008A000542C2000EC015F2C733021004E06031DF8
:1008B000612C4F08031D612C2000EC01EC0AED01B6
:1008C000B32B683021004E06031DB32B4F08031DC8
:1008D000B32B2000EC01ED01ED0AB32B8B314B2340
:1008E0008331CD3080311220833176082000E8003A
:1008F00068082100C50045088C315E248331B32B84
:1009000021004D08D03E2000E80068082100CA0000
:10091000CE3080311220833177082100C80076085C
:10092000C7006D305506031DA72C4A082000E800BB
:100930006808C700210048082000C90021004708B6
:100940002000C80000308E31A6268331B32B6630DC
:1009500021005506031DB32B4A082000E800680853
:10096000C700210048082000C900210047082000D6
:10097000C80001308E31A6268331B32B8B314B2337
:100980008331B32B803179208331B32B81314521E1
:100990008331B32B21005608FF3E2000E800680891
:1009A000C300CC30823155228331B32B123020006A
:1009B000A2009230A300DD30A4009230A500853162
:1009C000A5258331E5302000A2009030A3008531B9
:1009D000A525833101302000A2009030A30085318D
:1009E000A5258331AF302000A2009030A3008531CF
:1009F000A52583313C302000A2009030A300853132
:100A0000A5258331C6302000A2009130A300853196
:100A1000A52583319C302000A2009130A3008531B0
:100A2000A52583316D302000A2009230A3008531CE
:100A3000A5258331EC302000A2009130A300853140
:100A4000A525833136302000A2009230A3008531E5
:100A5000A5258331C8302000A2009230A300853143
:100A6000A525833153302000A2009230A3008531A8
:100A7000A525833176302000A2009030A300853177
:100A8000A525833170302000A2009130A30085316C
:100A9000A52583319D302000A2009230A30085312E
:100AA000A5258331B32B21005508403A0319CA2CE0
:100AB000063A0319C22C273A0319BE2C033A03192C
:100AC0006E2C063A0319C62C023A0319802C0E3AF2
:100AD0000319D62C013A0319052C043A0319802C6A
:100AE000023A03193E2C193A03191B2C812DB32B02
:100AF00056082000E8006808C300CB308231552238
:100B00008331B32B01302000E80068082100D607AC
:100B1000003084009030850000082000E9002100AA
:100B20005608200069020318B52B21005608CB3E59
:100B300086008701810156082000E8006808C3008C
:100B4000CB30823155228331B32B24302000B000CA
:100B50003008BC0020002308B1002208B000A20A1F
:100B60000319A30A30088400310885000008B20088
:100B70003208C20042080319080025304206031952
:100B8000C62D42088A31F2228531AA2D2000C001EB
:100B9000C101BF01D02D3F150130A2070030A33D98
:100BA00022088400230885000008303A0319CB2D61
:100BB000D92D2208840023088500000880310420F4
:100BC0008531031C852E2000C001C1010A30F000D0
:100BD0000030F10020004108F3004008F2008B31A2
:100BE0009F23853171082000C1007008C0002208D1
:100BF0008400230885000008D03EB000FF300318B1
:100C00000030B1003008C0073108C13D0130A207F3
:100C10000030A33D220884002308850000088031AD
:100C200004208531031C852EE62DBF16BF17A92E83
:100C30003C0886008701403FB800413FB9000230C0
:100C4000B0003008BC0738083904031D2B2E85304E
:100C5000B8009430B900BA01BB0138083A078400E3
:100C600039083B3D8500120003193B2E0130BA07BD
:100C70000030BB3D2D2E41083B02031D412E400894
:100C80003A020318482E3A08C0023B08C13B4A2EDC
:100C9000C001C101FF302000C007FF30C13D400A44
:100CA0000319410A0319662E20308A31F222853158
:100CB0004A2E380884003908850000088A31F2225B
:100CC000853101302000B8070030B93D0130BA024B
:100CD0000030BB3B3A0A031D592E3B0A0319AA2DCB
:100CE000592E3C08860087010108B0003008C20078
:100CF0000230B0003008BC074230B8000030B90004
:100D00000130BA000030BB003B2E20002308B100A8
:100D10002208B000A20A0319A30A3008840031088F
:100D200085000008C200003A0319EF2F583A031952
:100D3000152E3B3A0319712E073A0319A92E0D3AC5
:100D40000319A92E1A3A0319182E0B3A0319162E55
:100D50007C2E2000BF1BC32E3C0886008701403F2D
:100D6000BD00413FBE000230B0003008BC07BE1FCE
:100D7000132F0330B0003008BF04BD09BE09BD0AFF
:100D80000319BE0A132F3C0886008701403FBD00AF
:100D9000413FBE000230B0003008BC07132FC20133
:100DA000C20A0530420603191C2F4208B000B101E7
:100DB000B035B10D7330300784009430313D85007B
:100DC000003FB200013FB30033083E02031DEA2E8C
:100DD00032083D02031C1C2F0130B0003008C2074E
:100DE000D12EC201C20A0430420603191C2F420848
:100DF000B000B101B035B10D7D30300784009430C2
:100E0000313D8500003FB200013FB30033083E0290
:100E1000031D0C2F32083D02031C1C2F0130B000B3
:100E20003008C207F32E3F088039003A0319CF2E4D
:100E3000803A0319F12E1C2F400841040319282F72
:100E40003F0803390319282FFF30C007FF30C13D89
:100E50004208B000B101B01BB1033108803AB200C2
:100E60004108803A3202031D372F40083002031830
:100E7000442F20004208B000B101B01BB10330087C
:100E8000C0023108C13B472F2000C001C1013F1DF6
:100E9000602F3F0803390319512F2D308A31F22278
:100EA00085312000400841040319792F30308A3100
:100EB000F2228531FF302000C007FF30C13D522FA4
:100EC000400841040319712F20308A31F222853104
:100ED000FF302000C007FF30C13D40084104031D22
:100EE000642F3F0803390319792F2D308A31F222FC
:100EF000853120004208B0003008B700DD2F0A30ED
:100F0000F8000030F9003708B000B101B035B10D7C
:100F10007330300784009430313D8500003FF0008D
:100F2000013FF1003E08F3003D08F2008C319124AE
:100F300085317108FB007008FA008C31042485317A
:100F40007808303E2000D62F3708B000B101B03508
:100F5000B10D7D30300784009430313D8500003F75
:100F6000F000013FF1003E08F3003D08F2008C3133
:100F70009124853170080F392000B2003208B60084
:100F8000BF1AC62F2930B4009330C92F1830B400CF
:100F90009330B5003508B1003408B000360830078A
:100FA000840031080318310A85000008B2003208B5
:100FB000C20042088A31F2228531FF302000B000A1
:100FC0003008B707370A0319AA2D3F088039003ABD
:100FD00003197F2F803A0319A42FD92FD92F080086
:100FE0002000EA01EB01EC01ED01EE01A0308400EC
:100FF0000030850024308A31F72220008331A22B73
:1015DC001630210097000800F10071088B310B23A5
:1015EC000800640080010131890BF82A0034603056
:1015FC002100990098012200960108004030240037
:10160C0094002030950092010800F0002000111E7B
:10161C000C2B700823009A000800F000240095138E
:10162C0070089100141C182B110808002000911E42
:10163C001C2B23009D1C242B1D121D1619080800A1
:10164C00083023009F0090309D0024309E003330E2
:10165C009B009C010800F2007208F1007108200048
:10166C00EA007008F1007108EB0008008B316F2361
:10167C008B318A31FD228B318A31EE228B318B31C9
:10168C0004238B318B312623080080308D31692562
:10169C008B318B31DE238B312000C7004708C8000B
:1016AC006E088D3169250800FD0022000C127808A7
:1016BC00F9007908F1007D08FA007A08F2007D083B
:1016CC008C31C524FB007B08FC0022000C167C0826
:1016DC000800103022008C008E012F3021008C006D
:1016EC0032308E0023008E0107308C0024008C01D8
:1016FC0030308E002100951322009E019D010800C0
:10170C002000A1000330A00020082100B40020001C
:10171C002108A00020082100B500B60103302000EC
:10172C00A0002008F800B4308B315A232100360871
:10173C000800F401F501701CA72B7208F40773085C
:10174C00F53D0130F235F30D890BA82B0130F13644
:10175C00F00C890BAD2B70087104031DA12B7508BF
:10176C00F1007408F00008007108F3007008F20032
:10177C00F336F20CF336F20CF336F20C7208F4007A
:10178C007408F5007008F2000430F235FF3E031DBA
:10179C00CB2B7235E039F3007308F6007508F200B4
:1017AC0072082100B2007608F2007208B30008003B
:1017BC0005302000A00020082100B4000F302000CC
:1017CC00A00020082100B50010302000A000200847
:1017DC002100B60010302000A00020082100B70026
:1017EC0004302000A0002008F800B4308B315A23BC
:1017FC002000A1002108A200220808007808790422
:10180C0003192B2CFD01FD0AF91B162C0130F835A0
:10181C00F90D890B0D2C0130FC007C08FD070A2CFE
:10182C0079087B02031D1C2C78087A02031C222CDD
:10183C007808FA027908FB3B0130F936F80C890B71
:10184C00232C0130FD02031D162C7B08F9007A08AD
:10185C00F80008002000A4000130A0002408023E7B
:10186C00890A392CA035890B382C2008A1002108B5
:10187C00A2000530A00020082100B4002C3020006C
:10188C00A00020082100B50020002208A00020089C
:10189C002100B600B70104302000A0002008F80099
:1018AC00B4308B315A232000A1002108A30008007A
:1018BC002000C90080308D3169258C313F302000EB
:1018CC00C7004708CA000530C70047082100B4000C
:1018DC002A302000C70047082100B50020004A0824
:1018EC00C70047082100B60020004908C700470878
:1018FC002100B70004302000C7004708F800B430BE
:10190C008B315A238C312000C8004808CB006E085C
:10191C008D3169250800F501F60170087104031971
:10192C00C02CF701F70AF11BA52C0130F035F10D95
:10193C00890B9C2C0130F4007408F707992C0130AA
:10194C00F535F60D890BA62C71087302031DB02C0E
:10195C0070087202031CB72C7008F2027108F33B7A
:10196C0075140130F136F00C890BB82C0130F702EC
:10197C00031DA52C7608F1007508F0000800F60090
:10198C00F70171080319112D7608031DF32CF82C9F
:10199C007208031DDC2C77087607F30073088600A9
:1019AC00870101088B3113238C31EF2C77087607D4
:1019BC00F30073088600870101088B3113238C31E7
:1019CC00F40077087207F500750886008701740823
:1019DC0081000130F3007308F707710877020318D0
:1019EC00112DCE2C7208031D0D2D112D00308B31B5
:1019FC0013238C31F30077087207F4007408860007
:101A0C008701730881000130F3007308F707710830
:101A1C007702031CFC2C77080800A0302000E4009F
:101A2C0064082100B400B50102302000E400640811
:101A3C00F800B4308B315A238D312000E500650855
:101A4C00E600210035082000E4006408E700670880
:101A5C00031D322D01300800E71C432D6A080319C1
:101A6C003E2D4230A2009430A3008531A5258D3146
:101A7C0001308F314B278D31622D671C542D6A0834
:101A8C0003194F2D3530A2009430A3008531A525C4
:101A9C008D3100308F314B278D31622DE71D582D44
:101AAC0000305F2DE71E5C2D01305F2DE71F622D8E
:101ABC0002308C3130248D312000671E672D0030B0
:101ACC000800013008002000C6000230C3004308A3
:101ADC002100B4000F302000C30043082100B500E2
:101AEC0020004608C30043082100B6000330200044
:101AFC00C3004308F800B4308B315A238D312000D9
:101B0C00C4004408C500803046060319912D4608D0
:101B1C00C3004308EE0003304506031D08000330E4
:101B2C00C30043082100B4000E302000C30043085A
:101B3C002100B50003302000C3004308F800B43086
:101B4C008B315A238D312000C4004408C5006A082B
:101B5C0003190800FC30A2009330A30021003608C2
:101B6C002000C300C4014308A4004408A50085312B
:101B7C00A525080020006C080319D62D8C30A20076
:101B8C009430A3004308C600C7014608A4004708C8
:101B9C00A5004408A6000030A7008531A525080043
:101BAC0020006D0803190F2E9930A2009430A30069
:101BBC004308C600C7014608A4004708A5008531A4
:101BCC00A5258D312000C901450849020318082EAE
:101BDC009F30A2009430A30049084407C600460871
:101BEC00860087010108C700C8014708A4004808FF
:101BFC00A5008531A5258D3101302000C600460891
:101C0C00C907EA2DA830A2009430A3008531A52580
:101C1C00080014302000A2009330A3004408A40054
:101C2C000030A5008531A525080041302000C900F1
:101C3C00EE30890B1F2EC90B1F2E00000030F00058
:101C4C00F1008B31BA238E31200048082100B100FD
:101C5C00200047082100B000C0302000C90049080E
:101C6C002100B400F801F80AB4308B315A238E31BC
:101C7C000830890B3F2E000002302000C9004908B3
:101C8C002100B40028302000C90049082100B5000B
:101C9C0005302000C90049082100B600F1302000B1
:101CAC00C90049082100B70041302000C90049088B
:101CBC002100B80005302000C9004908F800B430F4
:101CCC008B315A238E3102302000C9004908210083
:101CDC00B40060302000C90049082100B500243050
:101CEC002000C90049082100B60003302000C900BB
:101CFC004908F800B4308B315A238E310230200061
:101D0C00C90049082100B40070302000C9004908FE
:101D1C002100B50020302000C90049082100B60080
:101D2C0003302000C9004908F800B4308B315A2325
:101D3C008E312000EA01EB0100308D31692508005D
:101D4C002000D20080308D3169258E318B31DE231D
:101D5C008E31083020004902003003194802031C60
:101D6C00BB2EFF30C8000730C9004908CB0048081B
:101D7C00CA00CB36CA0CCB36CA0CCB36CA0C4A08B6
:101D8C00CC004C08D30048080739CA000430CA35C7
:101D9C00FF3E031DCD2E4A35CB004B08D400520814
:101DAC00031DE72E4735AC3E860087014808C03F2F
:101DBC004908C13F6A0803190F2FB330A2009230B3
:101DCC00F62E20004735A03E860087014808C03F0C
:101DDC004908C13F6A0803190F2F8630A2009230C0
:101DEC00A3004708CA00CB014A08A4004B08A50071
:101DFC005308CC00CD014C08A6004D08A700540890
:101E0C00CE00CF014E08A8004F08A9008531A525AA
:101E1C008E3102302000CA004A082100B400200094
:101E2C00520803191E2F4708933E84009430222F2A
:101E3C004708B53E840094300318013E8500000825
:101E4C00CA00CB014A08D0004B08D1005008CA0088
:101E5C004A082100B50020005308CA004A08210096
:101E6C00B60020005408CA004A082100B70004300C
:101E7C002000CA004A08F800B4308B315A238E3146
:101E8C0020006E088D31692508002000E3006308EE
:101E9C00B33E840094300318013E85000008090706
:101EAC00903ECA004A08D0000E30CA004A08F8001A
:101EBC0050308B315A238F312000CB004B08CF0090
:101ECC005508CA004A08E2005208CA000530CA3652
:101EDC00890B6D2F4A08CB00CC015108CD00CE01E7
:101EEC00CD35CE0DCD35CE0DCD35CE0D4B084D07A8
:101EFC00E0004C084E3DE100FF306005E00007308B
:101F0C006105E1006208063E503E860087018101B2
:101F1C006A080319E82F3A30A2009330A300630833
:101F2C00CA00CB014A08A4004B08A5005108CC00FC
:101F3C00CD014C08A6004D08A7008531A5258F3191
:101F4C005C302000A2009330A3006308CA00CB01D0
:101F5C004A08A4004B08A5005208CC00CD014C083F
:101F6C00A6004D08A7008531A5258F317E302000B5
:101F7C00A2009330A3006308CA00CB014A08A40056
:101F8C004B08A5005508CC00CD014C08A6004D0807
:101F9C00A7008531A5258F31DE302000A2009330BB
:101FAC00A3006308CA00CB014A08A4004B08A50093
:101FBC005608CC00CD014C08A6004D08A700853171
:101FCC00A5258F3156302000CA004A08DF00600872
:101FDC00CA004A08C3005F08CB004B08C400620863
:101FEC00CC004C08C500210031088A0030080A00DA
:101FFC008F31080007345B34533465347434203427
:10200C006F347534743470347534743420346D34E6
:10201C006F34643465345D3420347B34643465341B
:10202C006234753467343A34203440347634643452
:10203C002C34203476346534723462346F34733417
:10204C0065343A3420344034763476342C342034AD
:10205C006E346F3472346D3461346C343A342034F1
:10206C00403476346E347D340A34003420342034D9
:10207C002034203420347734693474346834203478
:10208C005334493444343A34203440346F346C344F
:10209C00733420346F347234203440346F346E34E3
:1020AC0073342C34203469346E3420346834653401
:1020BC007834203466346F3472346D346134743453
:1020CC003A34203440346F346C34683420346F34F8
:1020DC007234203440346F346E3468340A34003433
:1020EC005B34533465346E34643420346D3465346D
:1020FC00733473346134673465342034623465343A
:10210C00673469346E346E3469346E346734203419
:10211C0077346934743468342034273440342734A9
:10212C00203463346834613472346134633474340D
:10213C00653472345D34203440343C3440346D3476
:10214C006534733473346134673465343E340A3423
:10215C0000345B3445346E34613462346C34653431
:10216C0020346F34703465347234613474346934AF
:10217C006F346E3420346D346F34643465345D34B4
:10218C0020347B346C346F346F347034623461348B
:10219C0063346B343A34203440346F346C342C3424
:1021AC0020346E346F3472346D3461346C343A34A0
:1021BC00203440346F346E347D340A3400345B3454
:1021CC0053346534743420347334743461346E3461
:1021DC006434613472346434203469346434653466
:1021EC006E347434693466346934653472345D34F5
:1021FC002034403469343C347334743461346E3478
:10220C006434613472346434203469346434653435
:10221C006E347434693466346934653472343E34E3
:10222C000A3400345234583446342534643420345F
:10223C005234583446342534643453344934443499
:10224C0048342034523458344634253464345334AE
:10225C00493444344C343A342034253434346434E2
:10226C002034253430343234583468342034253416
:10227C0030343234583468340A34003452345834DC
:10228C004D34253464342034523458344D34253490
:10229C00643453344934443448342034523458343C
:1022AC004D34253464345334493444344C343A3446
:1022BC0020342534343464342034253430343234EE
:1022CC00583468342034253430343234583468343B
:1022DC000A3400345B345234653463346534693405
:1022EC007634653420346D3465347334733461342E
:1022FC00673465345D3420343C346D346534733468
:10230C0073346134673465343E3420347734693443
:10231C006C346C3420346234653420346F3475344E
:10232C0074347034753474340A3400345B3453347C
:10233C00653474342034663469346C3474346534E4
:10234C0072345D342034403466343C346E343E3464
:10235C003C34663469346C347434653472342834E7
:10236C005334493444343134303420347E342034C2
:10237C00533449344434303429343E340A34003430
:10238C005B3453346534743420346D3461347334B9
:10239C006B345D34203440346D343C346E343E3414
:1023AC003C346D34613473346B34283453344934D5
:1023BC0044343134303420347E3420345334493472
:1023CC004434303429343E340A3400345B344134E0
:1023DC0062346F3472347434203461346C346C3441
:1023EC002034703465346E34643469346E3467343C
:1023FC0020347434723461346E3473346D34693413
:10240C007334733469346F346E3473345D34203404
:10241C00403461340A3400342F342F342F342034B8
:10242C0055344134523454343234433441344E34C0
:10243C002034483445344C345034203428347634E9
:10244C0065347234733469346F346E34203425340B
:10245C007334293420342F342F342F340A3400347D
:10246C005B34443475346D34703420346D346134E1
:10247C0073346B347334203461346E3464342034EC
:10248C00663469346C3474346534723473345D344A
:10249C002034403446340A3400345B3453346534CD
:1024AC006E34643420346D34653473347334613475
:1024BC00673465345D3420343C346D3465347334A6
:1024CC0073346134673465343E340A3400345B341D
:1024DC005334653474342034623461347534643468
:1024EC00203472346134743465345D3420344034B7
:1024FC0062343C346234703472343E340A34003406
:10250C00663469346C34743465347234283425344C
:10251C00643429343A342034253430343234783429
:10252C00203425343034323478340A3400345B347B
:10253C00533468346F3477342034743468346934E9
:10254C0073342034683465346C3470345D343A340C
:10255C002034403468340A3400346D3461347334BC
:10256C006B3428342534643429343A3420342534FB
:10257C0030343234783420342534303432347834B6
:10258C000A3400345B34443475346D347034203484
:10259C00723465346734693473347434653472342A
:1025AC0073345D342034403464340A3400343034B1
:1025BC002E3431343134203420344D34613472347F
:1025CC00633468342034313439342C34203432348C
:1025DC00303431343834003443346F34703479341B
:1025EC0069346E346734203462347534663466343E
:1025FC00653472343A342034253463340A3400346C
:10260C004D34653473347334613467346534203439
:10261C00733465346E3474343A3420342534733462
:10262C000A340034303431343234333434343534C5
:10263C003634373438343934413442344334443406
:10264C004534463400343034313432343334343459
:10265C003534363437343834393461346234633495
:10266C00643465346634003452345834423425347E
:10267C00643453344934443448343A3420342534A3
:10268C003034323478340A340034543458344234CC
:10269C002534643453344934443448343A34203483
:1026AC0025343034323478340A34003452345834CB
:1026BC004234253464345334493444344C343A343D
:1026CC00203425343034323478340A3400345434E1
:1026DC0058344234253464345334493444344C34FF
:1026EC003A34203425343034323478340A340034DB
:1026FC005234583442342534643444344C344334E6
:10270C003A34203425343034323478340A340034BA
:10271C0052345834423430344334543452344C34BC
:10272C003A34203425343034323478340A3400349A
:10273C0054345834423430344334543452344C349A
:10274C003A34203425343034323478340A3400347A
:10275C0052345834423431344334543452344C347B
:10276C003A34203425343034323478340A3400345A
:10277C0054345834423431344334543452344C3459
:10278C003A34203425343034323478340A3400343A
:10279C0054345834423432344334543452344C3438
:1027AC003A34203425343034323478340A3400341A
:1027BC0052345834423425346434443430343A344A
:1027CC00203425343034323478340A3400344334F1
:1027DC0041344E344334543452344C343A3420342F
:1027EC0025343034323478340A34003443344134B0
:1027FC004E3453345434413454343A342034253424
:10280C003034323478340A3400345434583442344A
:10281C0030342034693473342034693464346C3487
:10282C0065340A340034543458344234313420344E
:10283C00693473342034693464346C3465340A3448
:10284C0000345434583442343234203469347334C0
:10285C002034693464346C3465340A3400345234B2
:10286C005834303449344634203469347334203489
:10287C006F346E340A3400345234583431344934A1
:10288C00463420346934733420346F346E340A3453
:10289C00003443344E34463431343A342034253405
:1028AC003034323478340A34003443344E344634C1
:1028BC0032343A34203425343034323478340A34D7
:1028CC00003443344E34463433343A3420342534D3
:1028DC003034323478340A340034013400340A345D
:1028EC00003464340034E8340334103427340134B5
:1028FC0000341034003400340134003410342834E3
:10290C006E3475346C346C342934003425346434AE
:10291C002C34253473340A34003400340434083431
:10292C0010341434183425343034323478343A3486
:10293C0000342034253430343234783400342D349F
:10294C002D342D340A3400343134413451340034B4
:10295C00023404342534633400340034023420341B
:02296C00243411
:020000040001F9
:04000E00E4FFFFFE0E
:00000001FF
